{"contracts/TrainingCertification.sol":{"TrainingCertification":{"abi":[{"inputs":[],"stateMutability":"nonpayable","type":"constructor"},{"inputs":[],"name":"AccessControlBadConfirmation","type":"error"},{"inputs":[{"internalType":"address","name":"account","type":"address"},{"internalType":"bytes32","name":"neededRole","type":"bytes32"}],"name":"AccessControlUnauthorizedAccount","type":"error"},{"inputs":[{"internalType":"address","name":"sender","type":"address"},{"internalType":"uint256","name":"balance","type":"uint256"},{"internalType":"uint256","name":"needed","type":"uint256"},{"internalType":"uint256","name":"tokenId","type":"uint256"}],"name":"ERC1155InsufficientBalance","type":"error"},{"inputs":[{"internalType":"address","name":"approver","type":"address"}],"name":"ERC1155InvalidApprover","type":"error"},{"inputs":[{"internalType":"uint256","name":"idsLength","type":"uint256"},{"internalType":"uint256","name":"valuesLength","type":"uint256"}],"name":"ERC1155InvalidArrayLength","type":"error"},{"inputs":[{"internalType":"address","name":"operator","type":"address"}],"name":"ERC1155InvalidOperator","type":"error"},{"inputs":[{"internalType":"address","name":"receiver","type":"address"}],"name":"ERC1155InvalidReceiver","type":"error"},{"inputs":[{"internalType":"address","name":"sender","type":"address"}],"name":"ERC1155InvalidSender","type":"error"},{"inputs":[{"internalType":"address","name":"operator","type":"address"},{"internalType":"address","name":"owner","type":"address"}],"name":"ERC1155MissingApprovalForAll","type":"error"},{"anonymous":false,"inputs":[{"indexed":true,"internalType":"address","name":"account","type":"address"},{"indexed":true,"internalType":"address","name":"operator","type":"address"},{"indexed":false,"internalType":"bool","name":"approved","type":"bool"}],"name":"ApprovalForAll","type":"event"},{"anonymous":false,"inputs":[{"indexed":true,"internalType":"address","name":"recipient","type":"address"},{"indexed":true,"internalType":"uint256","name":"tokenId","type":"uint256"},{"indexed":false,"internalType":"uint256","name":"mintTimestamp","type":"uint256"},{"indexed":false,"internalType":"uint256","name":"expiryTimestamp","type":"uint256"}],"name":"CertificationMinted","type":"event"},{"anonymous":false,"inputs":[{"indexed":true,"internalType":"uint256","name":"tokenId","type":"uint256"},{"indexed":false,"internalType":"string","name":"courseCode","type":"string"},{"indexed":false,"internalType":"string","name":"courseName","type":"string"}],"name":"CourseCreated","type":"event"},{"anonymous":false,"inputs":[{"indexed":true,"internalType":"uint256","name":"tokenId","type":"uint256"},{"indexed":false,"internalType":"string","name":"courseName","type":"string"},{"indexed":false,"internalType":"string","name":"imageURI","type":"string"},{"indexed":false,"internalType":"uint256","name":"validityDuration","type":"uint256"}],"name":"CourseUpdated","type":"event"},{"anonymous":false,"inputs":[{"indexed":true,"internalType":"bytes32","name":"role","type":"bytes32"},{"indexed":true,"internalType":"bytes32","name":"previousAdminRole","type":"bytes32"},{"indexed":true,"internalType":"bytes32","name":"newAdminRole","type":"bytes32"}],"name":"RoleAdminChanged","type":"event"},{"anonymous":false,"inputs":[{"indexed":true,"internalType":"bytes32","name":"role","type":"bytes32"},{"indexed":true,"internalType":"address","name":"account","type":"address"},{"indexed":true,"internalType":"address","name":"sender","type":"address"}],"name":"RoleGranted","type":"event"},{"anonymous":false,"inputs":[{"indexed":true,"internalType":"bytes32","name":"role","type":"bytes32"},{"indexed":true,"internalType":"address","name":"account","type":"address"},{"indexed":true,"internalType":"address","name":"sender","type":"address"}],"name":"RoleRevoked","type":"event"},{"anonymous":false,"inputs":[{"indexed":true,"internalType":"address","name":"operator","type":"address"},{"indexed":true,"internalType":"address","name":"from","type":"address"},{"indexed":true,"internalType":"address","name":"to","type":"address"},{"indexed":false,"internalType":"uint256[]","name":"ids","type":"uint256[]"},{"indexed":false,"internalType":"uint256[]","name":"values","type":"uint256[]"}],"name":"TransferBatch","type":"event"},{"anonymous":false,"inputs":[{"indexed":true,"internalType":"address","name":"operator","type":"address"},{"indexed":true,"internalType":"address","name":"from","type":"address"},{"indexed":true,"internalType":"address","name":"to","type":"address"},{"indexed":false,"internalType":"uint256","name":"id","type":"uint256"},{"indexed":false,"internalType":"uint256","name":"value","type":"uint256"}],"name":"TransferSingle","type":"event"},{"anonymous":false,"inputs":[{"indexed":false,"internalType":"string","name":"value","type":"string"},{"indexed":true,"internalType":"uint256","name":"id","type":"uint256"}],"name":"URI","type":"event"},{"inputs":[],"name":"DEFAULT_ADMIN_ROLE","outputs":[{"internalType":"bytes32","name":"","type":"bytes32"}],"stateMutability":"view","type":"function"},{"inputs":[],"name":"MINTER_ROLE","outputs":[{"internalType":"bytes32","name":"","type":"bytes32"}],"stateMutability":"view","type":"function"},{"inputs":[{"internalType":"address","name":"account","type":"address"},{"internalType":"uint256","name":"id","type":"uint256"}],"name":"balanceOf","outputs":[{"internalType":"uint256","name":"","type":"uint256"}],"stateMutability":"view","type":"function"},{"inputs":[{"internalType":"address[]","name":"accounts","type":"address[]"},{"internalType":"uint256[]","name":"ids","type":"uint256[]"}],"name":"balanceOfBatch","outputs":[{"internalType":"uint256[]","name":"","type":"uint256[]"}],"stateMutability":"view","type":"function"},{"inputs":[{"internalType":"address[]","name":"recipients","type":"address[]"},{"internalType":"uint256","name":"tokenId","type":"uint256"},{"internalType":"bytes","name":"data","type":"bytes"}],"name":"batchMintCertifications","outputs":[],"stateMutability":"nonpayable","type":"function"},{"inputs":[{"internalType":"string","name":"courseCode","type":"string"},{"internalType":"string","name":"courseName","type":"string"},{"internalType":"string","name":"imageURI","type":"string"},{"internalType":"uint256","name":"validityDuration","type":"uint256"}],"name":"createCourse","outputs":[{"internalType":"uint256","name":"","type":"uint256"}],"stateMutability":"nonpayable","type":"function"},{"inputs":[{"internalType":"uint256","name":"id","type":"uint256"}],"name":"exists","outputs":[{"internalType":"bool","name":"","type":"bool"}],"stateMutability":"view","type":"function"},{"inputs":[{"internalType":"uint256","name":"tokenId","type":"uint256"}],"name":"getCourse","outputs":[{"components":[{"internalType":"string","name":"courseCode","type":"string"},{"internalType":"string","name":"courseName","type":"string"},{"internalType":"string","name":"imageURI","type":"string"},{"internalType":"uint256","name":"validityDuration","type":"uint256"},{"internalType":"bool","name":"exists","type":"bool"}],"internalType":"struct TrainingCertification.Course","name":"","type":"tuple"}],"stateMutability":"view","type":"function"},{"inputs":[{"internalType":"uint256","name":"tokenId","type":"uint256"},{"internalType":"address","name":"holder","type":"address"}],"name":"getExpiryTimestamp","outputs":[{"internalType":"uint256","name":"","type":"uint256"}],"stateMutability":"view","type":"function"},{"inputs":[{"internalType":"uint256","name":"tokenId","type":"uint256"},{"internalType":"address","name":"holder","type":"address"}],"name":"getMintTimestamp","outputs":[{"internalType":"uint256","name":"","type":"uint256"}],"stateMutability":"view","type":"function"},{"inputs":[{"internalType":"bytes32","name":"role","type":"bytes32"}],"name":"getRoleAdmin","outputs":[{"internalType":"bytes32","name":"","type":"bytes32"}],"stateMutability":"view","type":"function"},{"inputs":[],"name":"getTotalCourses","outputs":[{"internalType":"uint256","name":"","type":"uint256"}],"stateMutability":"view","type":"function"},{"inputs":[{"internalType":"bytes32","name":"role","type":"bytes32"},{"internalType":"address","name":"account","type":"address"}],"name":"grantRole","outputs":[],"stateMutability":"nonpayable","type":"function"},{"inputs":[{"internalType":"bytes32","name":"role","type":"bytes32"},{"internalType":"address","name":"account","type":"address"}],"name":"hasRole","outputs":[{"internalType":"bool","name":"","type":"bool"}],"stateMutability":"view","type":"function"},{"inputs":[{"internalType":"address","name":"account","type":"address"},{"internalType":"address","name":"operator","type":"address"}],"name":"isApprovedForAll","outputs":[{"internalType":"bool","name":"","type":"bool"}],"stateMutability":"view","type":"function"},{"inputs":[{"internalType":"uint256","name":"tokenId","type":"uint256"},{"internalType":"address","name":"holder","type":"address"}],"name":"isValid","outputs":[{"internalType":"bool","name":"","type":"bool"}],"stateMutability":"view","type":"function"},{"inputs":[{"internalType":"uint256","name":"tokenId","type":"uint256"},{"internalType":"address[]","name":"holders","type":"address[]"}],"name":"isValidBatch","outputs":[{"internalType":"bool[]","name":"","type":"bool[]"}],"stateMutability":"view","type":"function"},{"inputs":[{"internalType":"address","name":"to","type":"address"},{"internalType":"uint256","name":"tokenId","type":"uint256"},{"internalType":"bytes","name":"data","type":"bytes"}],"name":"mintCertification","outputs":[],"stateMutability":"nonpayable","type":"function"},{"inputs":[{"internalType":"bytes32","name":"role","type":"bytes32"},{"internalType":"address","name":"callerConfirmation","type":"address"}],"name":"renounceRole","outputs":[],"stateMutability":"nonpayable","type":"function"},{"inputs":[{"internalType":"bytes32","name":"role","type":"bytes32"},{"internalType":"address","name":"account","type":"address"}],"name":"revokeRole","outputs":[],"stateMutability":"nonpayable","type":"function"},{"inputs":[{"internalType":"address","name":"from","type":"address"},{"internalType":"address","name":"to","type":"address"},{"internalType":"uint256[]","name":"ids","type":"uint256[]"},{"internalType":"uint256[]","name":"values","type":"uint256[]"},{"internalType":"bytes","name":"data","type":"bytes"}],"name":"safeBatchTransferFrom","outputs":[],"stateMutability":"nonpayable","type":"function"},{"inputs":[{"internalType":"address","name":"from","type":"address"},{"internalType":"address","name":"to","type":"address"},{"internalType":"uint256","name":"id","type":"uint256"},{"internalType":"uint256","name":"value","type":"uint256"},{"internalType":"bytes","name":"data","type":"bytes"}],"name":"safeTransferFrom","outputs":[],"stateMutability":"nonpayable","type":"function"},{"inputs":[{"internalType":"address","name":"operator","type":"address"},{"internalType":"bool","name":"approved","type":"bool"}],"name":"setApprovalForAll","outputs":[],"stateMutability":"nonpayable","type":"function"},{"inputs":[{"internalType":"bytes4","name":"interfaceId","type":"bytes4"}],"name":"supportsInterface","outputs":[{"internalType":"bool","name":"","type":"bool"}],"stateMutability":"view","type":"function"},{"inputs":[],"name":"totalSupply","outputs":[{"internalType":"uint256","name":"","type":"uint256"}],"stateMutability":"view","type":"function"},{"inputs":[{"internalType":"uint256","name":"id","type":"uint256"}],"name":"totalSupply","outputs":[{"internalType":"uint256","name":"","type":"uint256"}],"stateMutability":"view","type":"function"},{"inputs":[{"internalType":"uint256","name":"tokenId","type":"uint256"},{"internalType":"string","name":"courseName","type":"string"},{"internalType":"string","name":"imageURI","type":"string"},{"internalType":"uint256","name":"validityDuration","type":"uint256"}],"name":"updateCourse","outputs":[],"stateMutability":"nonpayable","type":"function"},{"inputs":[{"internalType":"uint256","name":"tokenId","type":"uint256"}],"name":"uri","outputs":[{"internalType":"string","name":"","type":"string"}],"stateMutability":"view","type":"function"}],"evm":{"bytecode":{"linkReferences":{},"object":"608060405234801561001057600080fd5b50604051806020016040528060008152506100308161005260201b60201c565b506100446000801b3361006560201b60201c565b5060016006819055506104f8565b80600290816100619190610426565b5050565b6000610077838361016360201b60201c565b6101585760016005600085815260200190815260200160002060000160008473ffffffffffffffffffffffffffffffffffffffff1673ffffffffffffffffffffffffffffffffffffffff16815260200190815260200160002060006101000a81548160ff0219169083151502179055506100f56101ce60201b60201c565b73ffffffffffffffffffffffffffffffffffffffff168273ffffffffffffffffffffffffffffffffffffffff16847f2f8788117e7eff1d82e926ec794901d17c78024a50270940304540a733656f0d60405160405180910390a46001905061015d565b600090505b92915050565b60006005600084815260200190815260200160002060000160008373ffffffffffffffffffffffffffffffffffffffff1673ffffffffffffffffffffffffffffffffffffffff16815260200190815260200160002060009054906101000a900460ff16905092915050565b600033905090565b600081519050919050565b7f4e487b7100000000000000000000000000000000000000000000000000000000600052604160045260246000fd5b7f4e487b7100000000000000000000000000000000000000000000000000000000600052602260045260246000fd5b6000600282049050600182168061025757607f821691505b60208210810361026a57610269610210565b5b50919050565b60008190508160005260206000209050919050565b60006020601f8301049050919050565b600082821b905092915050565b6000600883026102d27fffffffffffffffffffffffffffffffffffffffffffffffffffffffffffffffff82610295565b6102dc8683610295565b95508019841693508086168417925050509392505050565b6000819050919050565b6000819050919050565b600061032361031e610319846102f4565b6102fe565b6102f4565b9050919050565b6000819050919050565b61033d83610308565b6103516103498261032a565b8484546102a2565b825550505050565b600090565b610366610359565b610371818484610334565b505050565b5b818110156103955761038a60008261035e565b600181019050610377565b5050565b601f8211156103da576103ab81610270565b6103b484610285565b810160208510156103c3578190505b6103d76103cf85610285565b830182610376565b50505b505050565b600082821c905092915050565b60006103fd600019846008026103df565b1980831691505092915050565b600061041683836103ec565b9150826002028217905092915050565b61042f826101d6565b67ffffffffffffffff811115610448576104476101e1565b5b610452825461023f565b61045d828285610399565b600060209050601f831160018114610490576000841561047e578287015190505b610488858261040a565b8655506104f0565b601f19841661049e86610270565b60005b828110156104c6578489015182556001820191506020850194506020810190506104a1565b868310156104e357848901516104df601f8916826103ec565b8355505b6001600288020188555050505b505050505050565b61523a806105076000396000f3fe608060405234801561001057600080fd5b50600436106101c35760003560e01c806391d14854116100f9578063bd85b03911610097578063d547741f11610071578063d547741f14610574578063e149011b14610590578063e985e9c5146105c0578063f242432a146105f0576101c3565b8063bd85b03914610508578063d4cba21c14610538578063d539139314610556576101c3565b80639b8ea179116100d35780639b8ea17914610482578063a217fddf1461049e578063a22cb465146104bc578063a3ace66b146104d8576101c3565b806391d1485414610406578063945edbeb146104365780639788905614610452576101c3565b806327a956f61161016657806336568abe1161014057806336568abe1461036e5780634e1273f41461038a5780634f558e79146103ba57806391aac065146103ea576101c3565b806327a956f6146103065780632eb2c2d6146103365780632f2ff15d14610352576101c3565b80630e89341c116101a25780630e89341c1461025857806317cb7d7c1461028857806318160ddd146102b8578063248a9ca3146102d6576101c3565b8062fdd58e146101c857806301ffc9a7146101f85780630b91e28d14610228575b600080fd5b6101e260048036038101906101dd919061337c565b61060c565b6040516101ef91906133cb565b60405180910390f35b610212600480360381019061020d919061343e565b610666565b60405161021f9190613486565b60405180910390f35b610242600480360381019061023d91906134a1565b610678565b60405161024f9190613600565b60405180910390f35b610272600480360381019061026d91906134a1565b6108e3565b60405161027f919061366c565b60405180910390f35b6102a2600480360381019061029d91906137c3565b610bbe565b6040516102af91906133cb565b60405180910390f35b6102c0610e69565b6040516102cd91906133cb565b60405180910390f35b6102f060048036038101906102eb91906138b4565b610e73565b6040516102fd91906138f0565b60405180910390f35b610320600480360381019061031b919061390b565b610e93565b60405161032d9190613486565b60405180910390f35b610350600480360381019061034b9190613ab4565b610f49565b005b61036c60048036038101906103679190613b83565b610ff1565b005b61038860048036038101906103839190613b83565b611013565b005b6103a4600480360381019061039f9190613c86565b61108e565b6040516103b19190613dad565b60405180910390f35b6103d460048036038101906103cf91906134a1565b611197565b6040516103e19190613486565b60405180910390f35b61040460048036038101906103ff9190613dcf565b6111ab565b005b610420600480360381019061041b9190613b83565b61138c565b60405161042d9190613486565b60405180910390f35b610450600480360381019061044b9190613e6e565b6113f7565b005b61046c6004803603810190610467919061390b565b611657565b60405161047991906133cb565b60405180910390f35b61049c60048036038101906104979190613ef9565b6116eb565b005b6104a66118c7565b6040516104b391906138f0565b60405180910390f35b6104d660048036038101906104d19190613f94565b6118ce565b005b6104f260048036038101906104ed919061390b565b6118e4565b6040516104ff91906133cb565b60405180910390f35b610522600480360381019061051d91906134a1565b61193f565b60405161052f91906133cb565b60405180910390f35b61054061195c565b60405161054d91906133cb565b60405180910390f35b61055e611972565b60405161056b91906138f0565b60405180910390f35b61058e60048036038101906105899190613b83565b611996565b005b6105aa60048036038101906105a59190613fd4565b6119b8565b6040516105b791906140df565b60405180910390f35b6105da60048036038101906105d59190614101565b611baa565b6040516105e79190613486565b60405180910390f35b61060a60048036038101906106059190614141565b611c3e565b005b600080600083815260200190815260200160002060008473ffffffffffffffffffffffffffffffffffffffff1673ffffffffffffffffffffffffffffffffffffffff16815260200190815260200160002054905092915050565b600061067182611ce6565b9050919050565b6106806132a3565b6007600083815260200190815260200160002060040160009054906101000a900460ff166106e3576040517f08c379a00000000000000000000000000000000000000000000000000000000081526004016106da90614224565b60405180910390fd5b600760008381526020019081526020016000206040518060a001604052908160008201805461071190614273565b80601f016020809104026020016040519081016040528092919081815260200182805461073d90614273565b801561078a5780601f1061075f5761010080835404028352916020019161078a565b820191906000526020600020905b81548152906001019060200180831161076d57829003601f168201915b505050505081526020016001820180546107a390614273565b80601f01602080910402602001604051908101604052809291908181526020018280546107cf90614273565b801561081c5780601f106107f15761010080835404028352916020019161081c565b820191906000526020600020905b8154815290600101906020018083116107ff57829003601f168201915b5050505050815260200160028201805461083590614273565b80601f016020809104026020016040519081016040528092919081815260200182805461086190614273565b80156108ae5780601f10610883576101008083540402835291602001916108ae565b820191906000526020600020905b81548152906001019060200180831161089157829003601f168201915b50505050508152602001600382015481526020016004820160009054906101000a900460ff1615151515815250509050919050565b60606007600083815260200190815260200160002060040160009054906101000a900460ff16610948576040517f08c379a000000000000000000000000000000000000000000000000000000000815260040161093f90614224565b60405180910390fd5b6000600760008481526020019081526020016000206040518060a001604052908160008201805461097890614273565b80601f01602080910402602001604051908101604052809291908181526020018280546109a490614273565b80156109f15780601f106109c6576101008083540402835291602001916109f1565b820191906000526020600020905b8154815290600101906020018083116109d457829003601f168201915b50505050508152602001600182018054610a0a90614273565b80601f0160208091040260200160405190810160405280929190818152602001828054610a3690614273565b8015610a835780601f10610a5857610100808354040283529160200191610a83565b820191906000526020600020905b815481529060010190602001808311610a6657829003601f168201915b50505050508152602001600282018054610a9c90614273565b80601f0160208091040260200160405190810160405280929190818152602001828054610ac890614273565b8015610b155780601f10610aea57610100808354040283529160200191610b15565b820191906000526020600020905b815481529060010190602001808311610af857829003601f168201915b50505050508152602001600382015481526020016004820160009054906101000a900460ff161515151581525050905060008160200151826020015183604001518460000151610b688660600151611d60565b604051602001610b7c9594939291906145fe565b6040516020818303038152906040529050610b9681611e2e565b604051602001610ba691906146f8565b60405160208183030381529060405292505050919050565b60008060001b610bcd81611e5b565b6000865111610c11576040517f08c379a0000000000000000000000000000000000000000000000000000000008152600401610c0890614766565b60405180910390fd5b6000855111610c55576040517f08c379a0000000000000000000000000000000000000000000000000000000008152600401610c4c906147d2565b60405180910390fd5b6000845111610c99576040517f08c379a0000000000000000000000000000000000000000000000000000000008152600401610c909061483e565b60405180910390fd5b60008311610cdc576040517f08c379a0000000000000000000000000000000000000000000000000000000008152600401610cd3906148d0565b60405180910390fd5b6000868051906020012090506000600960008381526020019081526020016000205414610d3e576040517f08c379a0000000000000000000000000000000000000000000000000000000008152600401610d359061493c565b60405180910390fd5b6000600654905060066000815480929190610d589061498b565b91905055506040518060a0016040528089815260200188815260200187815260200186815260200160011515815250600760008381526020019081526020016000206000820151816000019081610daf9190614b7f565b506020820151816001019081610dc59190614b7f565b506040820151816002019081610ddb9190614b7f565b506060820151816003015560808201518160040160006101000a81548160ff021916908315150217905550905050806009600084815260200190815260200160002081905550807fde9406a80ec412e1774c566cfc90b0aa3adb56b79530121356ed153cd1cbafd28989604051610e53929190614c51565b60405180910390a2809350505050949350505050565b6000600454905090565b600060056000838152602001908152602001600020600101549050919050565b600080610ea0838561060c565b03610eae5760009050610f43565b60006008600085815260200190815260200160002060008473ffffffffffffffffffffffffffffffffffffffff1673ffffffffffffffffffffffffffffffffffffffff16815260200190815260200160002054905060008103610f15576000915050610f43565b6000600760008681526020019081526020016000206003015482610f399190614c88565b9050804210925050505b92915050565b6000610f53611e6f565b90508073ffffffffffffffffffffffffffffffffffffffff168673ffffffffffffffffffffffffffffffffffffffff1614158015610f985750610f968682611baa565b155b15610fdc5780866040517fe237d922000000000000000000000000000000000000000000000000000000008152600401610fd3929190614ccb565b60405180910390fd5b610fe98686868686611e77565b505050505050565b610ffa82610e73565b61100381611e5b565b61100d8383611f6f565b50505050565b61101b611e6f565b73ffffffffffffffffffffffffffffffffffffffff168173ffffffffffffffffffffffffffffffffffffffff161461107f576040517f6697b23200000000000000000000000000000000000000000000000000000000815260040160405180910390fd5b6110898282612061565b505050565b606081518351146110da57815183516040517f5b0599910000000000000000000000000000000000000000000000000000000081526004016110d1929190614cf4565b60405180910390fd5b6000835167ffffffffffffffff8111156110f7576110f6613698565b5b6040519080825280602002602001820160405280156111255781602001602082028036833780820191505090505b50905060005b845181101561118c5761116261114a828761215490919063ffffffff16565b61115d838761216890919063ffffffff16565b61060c565b82828151811061117557611174614d1d565b5b60200260200101818152505080600101905061112b565b508091505092915050565b6000806111a38361193f565b119050919050565b6000801b6111b881611e5b565b6007600086815260200190815260200160002060040160009054906101000a900460ff1661121b576040517f08c379a000000000000000000000000000000000000000000000000000000000815260040161121290614224565b60405180910390fd5b600084511161125f576040517f08c379a0000000000000000000000000000000000000000000000000000000008152600401611256906147d2565b60405180910390fd5b60008351116112a3576040517f08c379a000000000000000000000000000000000000000000000000000000000815260040161129a9061483e565b60405180910390fd5b600082116112e6576040517f08c379a00000000000000000000000000000000000000000000000000000000081526004016112dd906148d0565b60405180910390fd5b836007600087815260200190815260200160002060010190816113099190614b7f565b508260076000878152602001908152602001600020600201908161132d9190614b7f565b50816007600087815260200190815260200160002060030181905550847fc128f82e4a6850637e3659e21039e2d8fa11326d0888c5ba6193f3b1c132cd4585858560405161137d93929190614d4c565b60405180910390a25050505050565b60006005600084815260200190815260200160002060000160008373ffffffffffffffffffffffffffffffffffffffff1673ffffffffffffffffffffffffffffffffffffffff16815260200190815260200160002060009054906101000a900460ff16905092915050565b7f9f2df0fed2c77648de5860a4cc508cd0818c85b8b8a1ab4ceeef8d981c8956a661142181611e5b565b6000845111611465576040517f08c379a000000000000000000000000000000000000000000000000000000000815260040161145c90614ddd565b60405180910390fd5b6007600084815260200190815260200160002060040160009054906101000a900460ff166114c8576040517f08c379a00000000000000000000000000000000000000000000000000000000081526004016114bf90614224565b60405180910390fd5b600042905060006007600086815260200190815260200160002060030154826114f19190614c88565b905060005b865181101561164e57600087828151811061151457611513614d1d565b5b60200260200101519050600073ffffffffffffffffffffffffffffffffffffffff168173ffffffffffffffffffffffffffffffffffffffff160361158d576040517f08c379a000000000000000000000000000000000000000000000000000000000815260040161158490614e49565b60405180910390fd5b836008600089815260200190815260200160002060008373ffffffffffffffffffffffffffffffffffffffff1673ffffffffffffffffffffffffffffffffffffffff168152602001908152602001600020819055506115ef818860018961217c565b868173ffffffffffffffffffffffffffffffffffffffff167f68d1cb491f47403f44e44c4d83d2a2d3db46e6f9fe2400782fe7d1af350292428686604051611638929190614cf4565b60405180910390a35080806001019150506114f6565b50505050505050565b6000806008600085815260200190815260200160002060008473ffffffffffffffffffffffffffffffffffffffff1673ffffffffffffffffffffffffffffffffffffffff168152602001908152602001600020549050600081036116bf5760009150506116e5565b6007600085815260200190815260200160002060030154816116e19190614c88565b9150505b92915050565b7f9f2df0fed2c77648de5860a4cc508cd0818c85b8b8a1ab4ceeef8d981c8956a661171581611e5b565b6007600084815260200190815260200160002060040160009054906101000a900460ff16611778576040517f08c379a000000000000000000000000000000000000000000000000000000000815260040161176f90614224565b60405180910390fd5b600073ffffffffffffffffffffffffffffffffffffffff168473ffffffffffffffffffffffffffffffffffffffff16036117e7576040517f08c379a00000000000000000000000000000000000000000000000000000000081526004016117de90614e49565b60405180910390fd5b426008600085815260200190815260200160002060008673ffffffffffffffffffffffffffffffffffffffff1673ffffffffffffffffffffffffffffffffffffffff1681526020019081526020016000208190555060006007600085815260200190815260200160002060030154426118609190614c88565b905061186f858560018661217c565b838573ffffffffffffffffffffffffffffffffffffffff167f68d1cb491f47403f44e44c4d83d2a2d3db46e6f9fe2400782fe7d1af3502924242846040516118b8929190614cf4565b60405180910390a35050505050565b6000801b81565b6118e06118d9611e6f565b8383612215565b5050565b60006008600084815260200190815260200160002060008373ffffffffffffffffffffffffffffffffffffffff1673ffffffffffffffffffffffffffffffffffffffff16815260200190815260200160002054905092915050565b600060036000838152602001908152602001600020549050919050565b6000600160065461196d9190614e69565b905090565b7f9f2df0fed2c77648de5860a4cc508cd0818c85b8b8a1ab4ceeef8d981c8956a681565b61199f82610e73565b6119a881611e5b565b6119b28383612061565b50505050565b606060008251116119fe576040517f08c379a00000000000000000000000000000000000000000000000000000000081526004016119f590614ee9565b60405180910390fd5b6000825167ffffffffffffffff811115611a1b57611a1a613698565b5b604051908082528060200260200182016040528015611a495781602001602082028036833780820191505090505b50905060005b8351811015611b9f576000848281518110611a6d57611a6c614d1d565b5b602002602001015190506000611a83828861060c565b03611ab5576000838381518110611a9d57611a9c614d1d565b5b60200260200101901515908115158152505050611b92565b60006008600088815260200190815260200160002060008373ffffffffffffffffffffffffffffffffffffffff1673ffffffffffffffffffffffffffffffffffffffff16815260200190815260200160002054905060008103611b40576000848481518110611b2757611b26614d1d565b5b6020026020010190151590811515815250505050611b92565b6000600760008981526020019081526020016000206003015482611b649190614c88565b9050804210858581518110611b7c57611b7b614d1d565b5b6020026020010190151590811515815250505050505b8080600101915050611a4f565b508091505092915050565b6000600160008473ffffffffffffffffffffffffffffffffffffffff1673ffffffffffffffffffffffffffffffffffffffff16815260200190815260200160002060008373ffffffffffffffffffffffffffffffffffffffff1673ffffffffffffffffffffffffffffffffffffffff16815260200190815260200160002060009054906101000a900460ff16905092915050565b6000611c48611e6f565b90508073ffffffffffffffffffffffffffffffffffffffff168673ffffffffffffffffffffffffffffffffffffffff1614158015611c8d5750611c8b8682611baa565b155b15611cd15780866040517fe237d922000000000000000000000000000000000000000000000000000000008152600401611cc8929190614ccb565b60405180910390fd5b611cde8686868686612385565b505050505050565b60007f7965db0b000000000000000000000000000000000000000000000000000000007bffffffffffffffffffffffffffffffffffffffffffffffffffffffff1916827bffffffffffffffffffffffffffffffffffffffffffffffffffffffff19161480611d595750611d5882612490565b5b9050919050565b606060006001611d6f84612572565b01905060008167ffffffffffffffff811115611d8e57611d8d613698565b5b6040519080825280601f01601f191660200182016040528015611dc05781602001600182028036833780820191505090505b509050600082602083010190505b600115611e23578080600190039150507f3031323334353637383961626364656600000000000000000000000000000000600a86061a8153600a8581611e1757611e16614f09565b5b04945060008503611dce575b819350505050919050565b6060611e54826040518060600160405280604081526020016151c56040913960016126c5565b9050919050565b611e6c81611e67611e6f565b612859565b50565b600033905090565b600073ffffffffffffffffffffffffffffffffffffffff168473ffffffffffffffffffffffffffffffffffffffff1603611ee95760006040517f57f447ce000000000000000000000000000000000000000000000000000000008152600401611ee09190614f38565b60405180910390fd5b600073ffffffffffffffffffffffffffffffffffffffff168573ffffffffffffffffffffffffffffffffffffffff1603611f5b5760006040517f01a83514000000000000000000000000000000000000000000000000000000008152600401611f529190614f38565b60405180910390fd5b611f6885858585856128aa565b5050505050565b6000611f7b838361138c565b6120565760016005600085815260200190815260200160002060000160008473ffffffffffffffffffffffffffffffffffffffff1673ffffffffffffffffffffffffffffffffffffffff16815260200190815260200160002060006101000a81548160ff021916908315150217905550611ff3611e6f565b73ffffffffffffffffffffffffffffffffffffffff168273ffffffffffffffffffffffffffffffffffffffff16847f2f8788117e7eff1d82e926ec794901d17c78024a50270940304540a733656f0d60405160405180910390a46001905061205b565b600090505b92915050565b600061206d838361138c565b156121495760006005600085815260200190815260200160002060000160008473ffffffffffffffffffffffffffffffffffffffff1673ffffffffffffffffffffffffffffffffffffffff16815260200190815260200160002060006101000a81548160ff0219169083151502179055506120e6611e6f565b73ffffffffffffffffffffffffffffffffffffffff168273ffffffffffffffffffffffffffffffffffffffff16847ff6391f5c32d9c69d2a47ea670b442974b53935d1edc7fd64eb21e047a839171b60405160405180910390a46001905061214e565b600090505b92915050565b600060208202602084010151905092915050565b600060208202602084010151905092915050565b600073ffffffffffffffffffffffffffffffffffffffff168473ffffffffffffffffffffffffffffffffffffffff16036121ee5760006040517f57f447ce0000000000000000000000000000000000000000000000000000000081526004016121e59190614f38565b60405180910390fd5b6000806121fb858561295c565b9150915061220d6000878484876128aa565b505050505050565b600073ffffffffffffffffffffffffffffffffffffffff168273ffffffffffffffffffffffffffffffffffffffff16036122875760006040517fced3e10000000000000000000000000000000000000000000000000000000000815260040161227e9190614f38565b60405180910390fd5b80600160008573ffffffffffffffffffffffffffffffffffffffff1673ffffffffffffffffffffffffffffffffffffffff16815260200190815260200160002060008473ffffffffffffffffffffffffffffffffffffffff1673ffffffffffffffffffffffffffffffffffffffff16815260200190815260200160002060006101000a81548160ff0219169083151502179055508173ffffffffffffffffffffffffffffffffffffffff168373ffffffffffffffffffffffffffffffffffffffff167f17307eab39ab6107e8899845ad3d59bd9653f200f220920489ca2b5937696c31836040516123789190613486565b60405180910390a3505050565b600073ffffffffffffffffffffffffffffffffffffffff168473ffffffffffffffffffffffffffffffffffffffff16036123f75760006040517f57f447ce0000000000000000000000000000000000000000000000000000000081526004016123ee9190614f38565b60405180910390fd5b600073ffffffffffffffffffffffffffffffffffffffff168573ffffffffffffffffffffffffffffffffffffffff16036124695760006040517f01a835140000000000000000000000000000000000000000000000000000000081526004016124609190614f38565b60405180910390fd5b600080612476858561295c565b9150915061248787878484876128aa565b50505050505050565b60007fd9b67a26000000000000000000000000000000000000000000000000000000007bffffffffffffffffffffffffffffffffffffffffffffffffffffffff1916827bffffffffffffffffffffffffffffffffffffffffffffffffffffffff1916148061255b57507f0e89341c000000000000000000000000000000000000000000000000000000007bffffffffffffffffffffffffffffffffffffffffffffffffffffffff1916827bffffffffffffffffffffffffffffffffffffffffffffffffffffffff1916145b8061256b575061256a8261298c565b5b9050919050565b600080600090507a184f03e93ff9f4daa797ed6e38ed64bf6a1f01000000000000000083106125d0577a184f03e93ff9f4daa797ed6e38ed64bf6a1f01000000000000000083816125c6576125c5614f09565b5b0492506040810190505b6d04ee2d6d415b85acef8100000000831061260d576d04ee2d6d415b85acef8100000000838161260357612602614f09565b5b0492506020810190505b662386f26fc10000831061263c57662386f26fc10000838161263257612631614f09565b5b0492506010810190505b6305f5e1008310612665576305f5e100838161265b5761265a614f09565b5b0492506008810190505b612710831061268a5761271083816126805761267f614f09565b5b0492506004810190505b606483106126ad57606483816126a3576126a2614f09565b5b0492506002810190505b600a83106126bc576001810190505b80915050919050565b606060008451036126e757604051806020016040528060008152509050612852565b6000826127195760036002865160046127009190614f53565b61270a9190614c88565b6127149190614f95565b612740565b6003600286516127299190614c88565b6127339190614f95565b600461273f9190614f53565b5b905060008167ffffffffffffffff81111561275e5761275d613698565b5b6040519080825280601f01601f1916602001820160405280156127905781602001600182028036833780820191505090505b50905060018501602082018788518901602081018051600082525b82841015612806576003840193508351603f8160121c168701518653600186019550603f81600c1c168701518653600186019550603f8160061c168701518653600186019550603f81168701518653600186019550506127ab565b80825289156128465760038c510660018114612829576002811461283c57612844565b603d6001870353603d6002870353612844565b603d60018703535b505b50505050505080925050505b9392505050565b612863828261138c565b6128a65780826040517fe2517d3f00000000000000000000000000000000000000000000000000000000815260040161289d929190614fc6565b60405180910390fd5b5050565b6128b6858585856129f6565b600073ffffffffffffffffffffffffffffffffffffffff168473ffffffffffffffffffffffffffffffffffffffff16146129555760006128f4611e6f565b9050600184510361294457600061291560008661216890919063ffffffff16565b9050600061292d60008661216890919063ffffffff16565b905061293d838989858589612a08565b5050612953565b612952818787878787612bbc565b5b505b5050505050565b60608060405191506001825283602083015260408201905060018152826020820152604081016040529250929050565b60007f01ffc9a7000000000000000000000000000000000000000000000000000000007bffffffffffffffffffffffffffffffffffffffffffffffffffffffff1916827bffffffffffffffffffffffffffffffffffffffffffffffffffffffff1916149050919050565b612a0284848484612d70565b50505050565b60008473ffffffffffffffffffffffffffffffffffffffff163b1115612bb4578373ffffffffffffffffffffffffffffffffffffffff1663f23a6e6187878686866040518663ffffffff1660e01b8152600401612a69959493929190615044565b6020604051808303816000875af1925050508015612aa557506040513d601f19601f82011682018060405250810190612aa291906150b3565b60015b612b29573d8060008114612ad5576040519150601f19603f3d011682016040523d82523d6000602084013e612ada565b606091505b506000815103612b2157846040517f57f447ce000000000000000000000000000000000000000000000000000000008152600401612b189190614f38565b60405180910390fd5b805160208201fd5b63f23a6e6160e01b7bffffffffffffffffffffffffffffffffffffffffffffffffffffffff1916817bffffffffffffffffffffffffffffffffffffffffffffffffffffffff191614612bb257846040517f57f447ce000000000000000000000000000000000000000000000000000000008152600401612ba99190614f38565b60405180910390fd5b505b505050505050565b60008473ffffffffffffffffffffffffffffffffffffffff163b1115612d68578373ffffffffffffffffffffffffffffffffffffffff1663bc197c8187878686866040518663ffffffff1660e01b8152600401612c1d9594939291906150e0565b6020604051808303816000875af1925050508015612c5957506040513d601f19601f82011682018060405250810190612c5691906150b3565b60015b612cdd573d8060008114612c89576040519150601f19603f3d011682016040523d82523d6000602084013e612c8e565b606091505b506000815103612cd557846040517f57f447ce000000000000000000000000000000000000000000000000000000008152600401612ccc9190614f38565b60405180910390fd5b805160208201fd5b63bc197c8160e01b7bffffffffffffffffffffffffffffffffffffffffffffffffffffffff1916817bffffffffffffffffffffffffffffffffffffffffffffffffffffffff191614612d6657846040517f57f447ce000000000000000000000000000000000000000000000000000000008152600401612d5d9190614f38565b60405180910390fd5b505b505050505050565b612d7c84848484612efb565b600073ffffffffffffffffffffffffffffffffffffffff168473ffffffffffffffffffffffffffffffffffffffff1603612e46576000805b8351811015612e2a576000612dd2828561216890919063ffffffff16565b90508060036000612dec858961216890919063ffffffff16565b81526020019081526020016000206000828254612e099190614c88565b925050819055508083612e1c9190614c88565b925050806001019050612db4565b508060046000828254612e3d9190614c88565b92505081905550505b600073ffffffffffffffffffffffffffffffffffffffff168373ffffffffffffffffffffffffffffffffffffffff1603612ef5576000805b8351811015612ee2576000612e9c828561216890919063ffffffff16565b90508060036000612eb6858961216890919063ffffffff16565b815260200190815260200160002060008282540392505081905550808301925050806001019050612e7e565b5080600460008282540392505081905550505b50505050565b8051825114612f4557815181516040517f5b059991000000000000000000000000000000000000000000000000000000008152600401612f3c929190614cf4565b60405180910390fd5b6000612f4f611e6f565b905060005b835181101561315e576000612f72828661216890919063ffffffff16565b90506000612f89838661216890919063ffffffff16565b9050600073ffffffffffffffffffffffffffffffffffffffff168873ffffffffffffffffffffffffffffffffffffffff16146130b657600080600084815260200190815260200160002060008a73ffffffffffffffffffffffffffffffffffffffff1673ffffffffffffffffffffffffffffffffffffffff1681526020019081526020016000205490508181101561305e57888183856040517f03dee4c50000000000000000000000000000000000000000000000000000000081526004016130559493929190615148565b60405180910390fd5b81810360008085815260200190815260200160002060008b73ffffffffffffffffffffffffffffffffffffffff1673ffffffffffffffffffffffffffffffffffffffff16815260200190815260200160002081905550505b600073ffffffffffffffffffffffffffffffffffffffff168773ffffffffffffffffffffffffffffffffffffffff1614613151578060008084815260200190815260200160002060008973ffffffffffffffffffffffffffffffffffffffff1673ffffffffffffffffffffffffffffffffffffffff16815260200190815260200160002060008282546131499190614c88565b925050819055505b5050806001019050612f54565b50600183510361321d57600061317e60008561216890919063ffffffff16565b9050600061319660008561216890919063ffffffff16565b90508573ffffffffffffffffffffffffffffffffffffffff168773ffffffffffffffffffffffffffffffffffffffff168473ffffffffffffffffffffffffffffffffffffffff167fc3d58168c5ae7397731d063d5bbf3d657854427343f4c083240f7aacaa2d0f62858560405161320e929190614cf4565b60405180910390a4505061329c565b8373ffffffffffffffffffffffffffffffffffffffff168573ffffffffffffffffffffffffffffffffffffffff168273ffffffffffffffffffffffffffffffffffffffff167f4a39dc06d4c0dbc64b70af90fd698a233a518aa5d07e595d983b8c0526c8f7fb868660405161329392919061518d565b60405180910390a45b5050505050565b6040518060a00160405280606081526020016060815260200160608152602001600081526020016000151581525090565b6000604051905090565b600080fd5b600080fd5b600073ffffffffffffffffffffffffffffffffffffffff82169050919050565b6000613313826132e8565b9050919050565b61332381613308565b811461332e57600080fd5b50565b6000813590506133408161331a565b92915050565b6000819050919050565b61335981613346565b811461336457600080fd5b50565b60008135905061337681613350565b92915050565b60008060408385031215613393576133926132de565b5b60006133a185828601613331565b92505060206133b285828601613367565b9150509250929050565b6133c581613346565b82525050565b60006020820190506133e060008301846133bc565b92915050565b60007fffffffff0000000000000000000000000000000000000000000000000000000082169050919050565b61341b816133e6565b811461342657600080fd5b50565b60008135905061343881613412565b92915050565b600060208284031215613454576134536132de565b5b600061346284828501613429565b91505092915050565b60008115159050919050565b6134808161346b565b82525050565b600060208201905061349b6000830184613477565b92915050565b6000602082840312156134b7576134b66132de565b5b60006134c584828501613367565b91505092915050565b600081519050919050565b600082825260208201905092915050565b60005b838110156135085780820151818401526020810190506134ed565b60008484015250505050565b6000601f19601f8301169050919050565b6000613530826134ce565b61353a81856134d9565b935061354a8185602086016134ea565b61355381613514565b840191505092915050565b61356781613346565b82525050565b6135768161346b565b82525050565b600060a08301600083015184820360008601526135998282613525565b915050602083015184820360208601526135b38282613525565b915050604083015184820360408601526135cd8282613525565b91505060608301516135e2606086018261355e565b5060808301516135f5608086018261356d565b508091505092915050565b6000602082019050818103600083015261361a818461357c565b905092915050565b600082825260208201905092915050565b600061363e826134ce565b6136488185613622565b93506136588185602086016134ea565b61366181613514565b840191505092915050565b600060208201905081810360008301526136868184613633565b905092915050565b600080fd5b600080fd5b7f4e487b7100000000000000000000000000000000000000000000000000000000600052604160045260246000fd5b6136d082613514565b810181811067ffffffffffffffff821117156136ef576136ee613698565b5b80604052505050565b60006137026132d4565b905061370e82826136c7565b919050565b600067ffffffffffffffff82111561372e5761372d613698565b5b61373782613514565b9050602081019050919050565b82818337600083830152505050565b600061376661376184613713565b6136f8565b90508281526020810184848401111561378257613781613693565b5b61378d848285613744565b509392505050565b600082601f8301126137aa576137a961368e565b5b81356137ba848260208601613753565b91505092915050565b600080600080608085870312156137dd576137dc6132de565b5b600085013567ffffffffffffffff8111156137fb576137fa6132e3565b5b61380787828801613795565b945050602085013567ffffffffffffffff811115613828576138276132e3565b5b61383487828801613795565b935050604085013567ffffffffffffffff811115613855576138546132e3565b5b61386187828801613795565b925050606061387287828801613367565b91505092959194509250565b6000819050919050565b6138918161387e565b811461389c57600080fd5b50565b6000813590506138ae81613888565b92915050565b6000602082840312156138ca576138c96132de565b5b60006138d88482850161389f565b91505092915050565b6138ea8161387e565b82525050565b600060208201905061390560008301846138e1565b92915050565b60008060408385031215613922576139216132de565b5b600061393085828601613367565b925050602061394185828601613331565b9150509250929050565b600067ffffffffffffffff82111561396657613965613698565b5b602082029050602081019050919050565b600080fd5b600061398f61398a8461394b565b6136f8565b905080838252602082019050602084028301858111156139b2576139b1613977565b5b835b818110156139db57806139c78882613367565b8452602084019350506020810190506139b4565b5050509392505050565b600082601f8301126139fa576139f961368e565b5b8135613a0a84826020860161397c565b91505092915050565b600067ffffffffffffffff821115613a2e57613a2d613698565b5b613a3782613514565b9050602081019050919050565b6000613a57613a5284613a13565b6136f8565b905082815260208101848484011115613a7357613a72613693565b5b613a7e848285613744565b509392505050565b600082601f830112613a9b57613a9a61368e565b5b8135613aab848260208601613a44565b91505092915050565b600080600080600060a08688031215613ad057613acf6132de565b5b6000613ade88828901613331565b9550506020613aef88828901613331565b945050604086013567ffffffffffffffff811115613b1057613b0f6132e3565b5b613b1c888289016139e5565b935050606086013567ffffffffffffffff811115613b3d57613b3c6132e3565b5b613b49888289016139e5565b925050608086013567ffffffffffffffff811115613b6a57613b696132e3565b5b613b7688828901613a86565b9150509295509295909350565b60008060408385031215613b9a57613b996132de565b5b6000613ba88582860161389f565b9250506020613bb985828601613331565b9150509250929050565b600067ffffffffffffffff821115613bde57613bdd613698565b5b602082029050602081019050919050565b6000613c02613bfd84613bc3565b6136f8565b90508083825260208201905060208402830185811115613c2557613c24613977565b5b835b81811015613c4e5780613c3a8882613331565b845260208401935050602081019050613c27565b5050509392505050565b600082601f830112613c6d57613c6c61368e565b5b8135613c7d848260208601613bef565b91505092915050565b60008060408385031215613c9d57613c9c6132de565b5b600083013567ffffffffffffffff811115613cbb57613cba6132e3565b5b613cc785828601613c58565b925050602083013567ffffffffffffffff811115613ce857613ce76132e3565b5b613cf4858286016139e5565b9150509250929050565b600081519050919050565b600082825260208201905092915050565b6000819050602082019050919050565b6000613d36838361355e565b60208301905092915050565b6000602082019050919050565b6000613d5a82613cfe565b613d648185613d09565b9350613d6f83613d1a565b8060005b83811015613da0578151613d878882613d2a565b9750613d9283613d42565b925050600181019050613d73565b5085935050505092915050565b60006020820190508181036000830152613dc78184613d4f565b905092915050565b60008060008060808587031215613de957613de86132de565b5b6000613df787828801613367565b945050602085013567ffffffffffffffff811115613e1857613e176132e3565b5b613e2487828801613795565b935050604085013567ffffffffffffffff811115613e4557613e446132e3565b5b613e5187828801613795565b9250506060613e6287828801613367565b91505092959194509250565b600080600060608486031215613e8757613e866132de565b5b600084013567ffffffffffffffff811115613ea557613ea46132e3565b5b613eb186828701613c58565b9350506020613ec286828701613367565b925050604084013567ffffffffffffffff811115613ee357613ee26132e3565b5b613eef86828701613a86565b9150509250925092565b600080600060608486031215613f1257613f116132de565b5b6000613f2086828701613331565b9350506020613f3186828701613367565b925050604084013567ffffffffffffffff811115613f5257613f516132e3565b5b613f5e86828701613a86565b9150509250925092565b613f718161346b565b8114613f7c57600080fd5b50565b600081359050613f8e81613f68565b92915050565b60008060408385031215613fab57613faa6132de565b5b6000613fb985828601613331565b9250506020613fca85828601613f7f565b9150509250929050565b60008060408385031215613feb57613fea6132de565b5b6000613ff985828601613367565b925050602083013567ffffffffffffffff81111561401a576140196132e3565b5b61402685828601613c58565b9150509250929050565b600081519050919050565b600082825260208201905092915050565b6000819050602082019050919050565b6000614068838361356d565b60208301905092915050565b6000602082019050919050565b600061408c82614030565b614096818561403b565b93506140a18361404c565b8060005b838110156140d25781516140b9888261405c565b97506140c483614074565b9250506001810190506140a5565b5085935050505092915050565b600060208201905081810360008301526140f98184614081565b905092915050565b60008060408385031215614118576141176132de565b5b600061412685828601613331565b925050602061413785828601613331565b9150509250929050565b600080600080600060a0868803121561415d5761415c6132de565b5b600061416b88828901613331565b955050602061417c88828901613331565b945050604061418d88828901613367565b935050606061419e88828901613367565b925050608086013567ffffffffffffffff8111156141bf576141be6132e3565b5b6141cb88828901613a86565b9150509295509295909350565b7f436f7572736520646f6573206e6f742065786973740000000000000000000000600082015250565b600061420e601583613622565b9150614219826141d8565b602082019050919050565b6000602082019050818103600083015261423d81614201565b9050919050565b7f4e487b7100000000000000000000000000000000000000000000000000000000600052602260045260246000fd5b6000600282049050600182168061428b57607f821691505b60208210810361429e5761429d614244565b5b50919050565b600081905092915050565b7f7b226e616d65223a220000000000000000000000000000000000000000000000600082015250565b60006142e56009836142a4565b91506142f0826142af565b600982019050919050565b6000614306826134ce565b61431081856142a4565b93506143208185602086016134ea565b80840191505092915050565b7f222c226465736372697074696f6e223a224f6666696369616c2063657274696660008201527f69636174696f6e20666f72200000000000000000000000000000000000000000602082015250565b6000614388602c836142a4565b91506143938261432c565b602c82019050919050565b7f222c22696d616765223a22000000000000000000000000000000000000000000600082015250565b60006143d4600b836142a4565b91506143df8261439e565b600b82019050919050565b7f222c2261747472696275746573223a5b00000000000000000000000000000000600082015250565b60006144206010836142a4565b915061442b826143ea565b601082019050919050565b7f7b2274726169745f74797065223a22436f7572736520436f6465222c2276616c60008201527f7565223a22000000000000000000000000000000000000000000000000000000602082015250565b60006144926025836142a4565b915061449d82614436565b602582019050919050565b7f227d2c0000000000000000000000000000000000000000000000000000000000600082015250565b60006144de6003836142a4565b91506144e9826144a8565b600382019050919050565b7f7b2274726169745f74797065223a2256616c6964697479204475726174696f6e60008201527f222c2276616c7565223a22000000000000000000000000000000000000000000602082015250565b6000614550602b836142a4565b915061455b826144f4565b602b82019050919050565b7f207365636f6e6473227d00000000000000000000000000000000000000000000600082015250565b600061459c600a836142a4565b91506145a782614566565b600a82019050919050565b7f5d7d000000000000000000000000000000000000000000000000000000000000600082015250565b60006145e86002836142a4565b91506145f3826145b2565b600282019050919050565b6000614609826142d8565b915061461582886142fb565b91506146208261437b565b915061462c82876142fb565b9150614637826143c7565b915061464382866142fb565b915061464e82614413565b915061465982614485565b915061466582856142fb565b9150614670826144d1565b915061467b82614543565b915061468782846142fb565b91506146928261458f565b915061469d826145db565b91508190509695505050505050565b7f646174613a6170706c69636174696f6e2f6a736f6e3b6261736536342c000000600082015250565b60006146e2601d836142a4565b91506146ed826146ac565b601d82019050919050565b6000614703826146d5565b915061470f82846142fb565b915081905092915050565b7f436f7572736520636f64652063616e6e6f7420626520656d7074790000000000600082015250565b6000614750601b83613622565b915061475b8261471a565b602082019050919050565b6000602082019050818103600083015261477f81614743565b9050919050565b7f436f75727365206e616d652063616e6e6f7420626520656d7074790000000000600082015250565b60006147bc601b83613622565b91506147c782614786565b602082019050919050565b600060208201905081810360008301526147eb816147af565b9050919050565b7f496d616765205552492063616e6e6f7420626520656d70747900000000000000600082015250565b6000614828601983613622565b9150614833826147f2565b602082019050919050565b600060208201905081810360008301526148578161481b565b9050919050565b7f56616c6964697479206475726174696f6e206d7573742062652067726561746560008201527f72207468616e207a65726f000000000000000000000000000000000000000000602082015250565b60006148ba602b83613622565b91506148c58261485e565b604082019050919050565b600060208201905081810360008301526148e9816148ad565b9050919050565b7f436f7572736520636f646520616c726561647920657869737473000000000000600082015250565b6000614926601a83613622565b9150614931826148f0565b602082019050919050565b6000602082019050818103600083015261495581614919565b9050919050565b7f4e487b7100000000000000000000000000000000000000000000000000000000600052601160045260246000fd5b600061499682613346565b91507fffffffffffffffffffffffffffffffffffffffffffffffffffffffffffffffff82036149c8576149c761495c565b5b600182019050919050565b60008190508160005260206000209050919050565b60006020601f8301049050919050565b600082821b905092915050565b600060088302614a357fffffffffffffffffffffffffffffffffffffffffffffffffffffffffffffffff826149f8565b614a3f86836149f8565b95508019841693508086168417925050509392505050565b6000819050919050565b6000614a7c614a77614a7284613346565b614a57565b613346565b9050919050565b6000819050919050565b614a9683614a61565b614aaa614aa282614a83565b848454614a05565b825550505050565b600090565b614abf614ab2565b614aca818484614a8d565b505050565b5b81811015614aee57614ae3600082614ab7565b600181019050614ad0565b5050565b601f821115614b3357614b04816149d3565b614b0d846149e8565b81016020851015614b1c578190505b614b30614b28856149e8565b830182614acf565b50505b505050565b600082821c905092915050565b6000614b5660001984600802614b38565b1980831691505092915050565b6000614b6f8383614b45565b9150826002028217905092915050565b614b88826134ce565b67ffffffffffffffff811115614ba157614ba0613698565b5b614bab8254614273565b614bb6828285614af2565b600060209050601f831160018114614be95760008415614bd7578287015190505b614be18582614b63565b865550614c49565b601f198416614bf7866149d3565b60005b82811015614c1f57848901518255600182019150602085019450602081019050614bfa565b86831015614c3c5784890151614c38601f891682614b45565b8355505b6001600288020188555050505b505050505050565b60006040820190508181036000830152614c6b8185613633565b90508181036020830152614c7f8184613633565b90509392505050565b6000614c9382613346565b9150614c9e83613346565b9250828201905080821115614cb657614cb561495c565b5b92915050565b614cc581613308565b82525050565b6000604082019050614ce06000830185614cbc565b614ced6020830184614cbc565b9392505050565b6000604082019050614d0960008301856133bc565b614d1660208301846133bc565b9392505050565b7f4e487b7100000000000000000000000000000000000000000000000000000000600052603260045260246000fd5b60006060820190508181036000830152614d668186613633565b90508181036020830152614d7a8185613633565b9050614d8960408301846133bc565b949350505050565b7f526563697069656e74732061727261792063616e6e6f7420626520656d707479600082015250565b6000614dc7602083613622565b9150614dd282614d91565b602082019050919050565b60006020820190508181036000830152614df681614dba565b9050919050565b7f43616e6e6f74206d696e7420746f207a65726f20616464726573730000000000600082015250565b6000614e33601b83613622565b9150614e3e82614dfd565b602082019050919050565b60006020820190508181036000830152614e6281614e26565b9050919050565b6000614e7482613346565b9150614e7f83613346565b9250828203905081811115614e9757614e9661495c565b5b92915050565b7f486f6c646572732061727261792063616e6e6f7420626520656d707479000000600082015250565b6000614ed3601d83613622565b9150614ede82614e9d565b602082019050919050565b60006020820190508181036000830152614f0281614ec6565b9050919050565b7f4e487b7100000000000000000000000000000000000000000000000000000000600052601260045260246000fd5b6000602082019050614f4d6000830184614cbc565b92915050565b6000614f5e82613346565b9150614f6983613346565b9250828202614f7781613346565b91508282048414831517614f8e57614f8d61495c565b5b5092915050565b6000614fa082613346565b9150614fab83613346565b925082614fbb57614fba614f09565b5b828204905092915050565b6000604082019050614fdb6000830185614cbc565b614fe860208301846138e1565b9392505050565b600081519050919050565b600082825260208201905092915050565b600061501682614fef565b6150208185614ffa565b93506150308185602086016134ea565b61503981613514565b840191505092915050565b600060a0820190506150596000830188614cbc565b6150666020830187614cbc565b61507360408301866133bc565b61508060608301856133bc565b8181036080830152615092818461500b565b90509695505050505050565b6000815190506150ad81613412565b92915050565b6000602082840312156150c9576150c86132de565b5b60006150d78482850161509e565b91505092915050565b600060a0820190506150f56000830188614cbc565b6151026020830187614cbc565b81810360408301526151148186613d4f565b905081810360608301526151288185613d4f565b9050818103608083015261513c818461500b565b90509695505050505050565b600060808201905061515d6000830187614cbc565b61516a60208301866133bc565b61517760408301856133bc565b61518460608301846133bc565b95945050505050565b600060408201905081810360008301526151a78185613d4f565b905081810360208301526151bb8184613d4f565b9050939250505056fe4142434445464748494a4b4c4d4e4f505152535455565758595a6162636465666768696a6b6c6d6e6f707172737475767778797a303132333435363738392b2fa26469706673582212209d6cb442d7d6bb20e982cc71fee2b1737bf9b70d549cf7680c62fcd843c8f39464736f6c634300081c0033","opcodes":"PUSH1 0x80 PUSH1 0x40 MSTORE CALLVALUE DUP1 ISZERO PUSH2 0x10 JUMPI PUSH1 0x0 DUP1 REVERT JUMPDEST POP PUSH1 0x40 MLOAD DUP1 PUSH1 0x20 ADD PUSH1 0x40 MSTORE DUP1 PUSH1 0x0 DUP2 MSTORE POP PUSH2 0x30 DUP2 PUSH2 0x52 PUSH1 0x20 SHL PUSH1 0x20 SHR JUMP JUMPDEST POP PUSH2 0x44 PUSH1 0x0 DUP1 SHL CALLER PUSH2 0x65 PUSH1 0x20 SHL PUSH1 0x20 SHR JUMP JUMPDEST POP PUSH1 0x1 PUSH1 0x6 DUP2 SWAP1 SSTORE POP PUSH2 0x4F8 JUMP JUMPDEST DUP1 PUSH1 0x2 SWAP1 DUP2 PUSH2 0x61 SWAP2 SWAP1 PUSH2 0x426 JUMP JUMPDEST POP POP JUMP JUMPDEST PUSH1 0x0 PUSH2 0x77 DUP4 DUP4 PUSH2 0x163 PUSH1 0x20 SHL PUSH1 0x20 SHR JUMP JUMPDEST PUSH2 0x158 JUMPI PUSH1 0x1 PUSH1 0x5 PUSH1 0x0 DUP6 DUP2 MSTORE PUSH1 0x20 ADD SWAP1 DUP2 MSTORE PUSH1 0x20 ADD PUSH1 0x0 KECCAK256 PUSH1 0x0 ADD PUSH1 0x0 DUP5 PUSH20 0xFFFFFFFFFFFFFFFFFFFFFFFFFFFFFFFFFFFFFFFF AND PUSH20 0xFFFFFFFFFFFFFFFFFFFFFFFFFFFFFFFFFFFFFFFF AND DUP2 MSTORE PUSH1 0x20 ADD SWAP1 DUP2 MSTORE PUSH1 0x20 ADD PUSH1 0x0 KECCAK256 PUSH1 0x0 PUSH2 0x100 EXP DUP2 SLOAD DUP2 PUSH1 0xFF MUL NOT AND SWAP1 DUP4 ISZERO ISZERO MUL OR SWAP1 SSTORE POP PUSH2 0xF5 PUSH2 0x1CE PUSH1 0x20 SHL PUSH1 0x20 SHR JUMP JUMPDEST PUSH20 0xFFFFFFFFFFFFFFFFFFFFFFFFFFFFFFFFFFFFFFFF AND DUP3 PUSH20 0xFFFFFFFFFFFFFFFFFFFFFFFFFFFFFFFFFFFFFFFF AND DUP5 PUSH32 0x2F8788117E7EFF1D82E926EC794901D17C78024A50270940304540A733656F0D PUSH1 0x40 MLOAD PUSH1 0x40 MLOAD DUP1 SWAP2 SUB SWAP1 LOG4 PUSH1 0x1 SWAP1 POP PUSH2 0x15D JUMP JUMPDEST PUSH1 0x0 SWAP1 POP JUMPDEST SWAP3 SWAP2 POP POP JUMP JUMPDEST PUSH1 0x0 PUSH1 0x5 PUSH1 0x0 DUP5 DUP2 MSTORE PUSH1 0x20 ADD SWAP1 DUP2 MSTORE PUSH1 0x20 ADD PUSH1 0x0 KECCAK256 PUSH1 0x0 ADD PUSH1 0x0 DUP4 PUSH20 0xFFFFFFFFFFFFFFFFFFFFFFFFFFFFFFFFFFFFFFFF AND PUSH20 0xFFFFFFFFFFFFFFFFFFFFFFFFFFFFFFFFFFFFFFFF AND DUP2 MSTORE PUSH1 0x20 ADD SWAP1 DUP2 MSTORE PUSH1 0x20 ADD PUSH1 0x0 KECCAK256 PUSH1 0x0 SWAP1 SLOAD SWAP1 PUSH2 0x100 EXP SWAP1 DIV PUSH1 0xFF AND SWAP1 POP SWAP3 SWAP2 POP POP JUMP JUMPDEST PUSH1 0x0 CALLER SWAP1 POP SWAP1 JUMP JUMPDEST PUSH1 0x0 DUP2 MLOAD SWAP1 POP SWAP2 SWAP1 POP JUMP JUMPDEST PUSH32 0x4E487B7100000000000000000000000000000000000000000000000000000000 PUSH1 0x0 MSTORE PUSH1 0x41 PUSH1 0x4 MSTORE PUSH1 0x24 PUSH1 0x0 REVERT JUMPDEST PUSH32 0x4E487B7100000000000000000000000000000000000000000000000000000000 PUSH1 0x0 MSTORE PUSH1 0x22 PUSH1 0x4 MSTORE PUSH1 0x24 PUSH1 0x0 REVERT JUMPDEST PUSH1 0x0 PUSH1 0x2 DUP3 DIV SWAP1 POP PUSH1 0x1 DUP3 AND DUP1 PUSH2 0x257 JUMPI PUSH1 0x7F DUP3 AND SWAP2 POP JUMPDEST PUSH1 0x20 DUP3 LT DUP2 SUB PUSH2 0x26A JUMPI PUSH2 0x269 PUSH2 0x210 JUMP JUMPDEST JUMPDEST POP SWAP2 SWAP1 POP JUMP JUMPDEST PUSH1 0x0 DUP2 SWAP1 POP DUP2 PUSH1 0x0 MSTORE PUSH1 0x20 PUSH1 0x0 KECCAK256 SWAP1 POP SWAP2 SWAP1 POP JUMP JUMPDEST PUSH1 0x0 PUSH1 0x20 PUSH1 0x1F DUP4 ADD DIV SWAP1 POP SWAP2 SWAP1 POP JUMP JUMPDEST PUSH1 0x0 DUP3 DUP3 SHL SWAP1 POP SWAP3 SWAP2 POP POP JUMP JUMPDEST PUSH1 0x0 PUSH1 0x8 DUP4 MUL PUSH2 0x2D2 PUSH32 0xFFFFFFFFFFFFFFFFFFFFFFFFFFFFFFFFFFFFFFFFFFFFFFFFFFFFFFFFFFFFFFFF DUP3 PUSH2 0x295 JUMP JUMPDEST PUSH2 0x2DC DUP7 DUP4 PUSH2 0x295 JUMP JUMPDEST SWAP6 POP DUP1 NOT DUP5 AND SWAP4 POP DUP1 DUP7 AND DUP5 OR SWAP3 POP POP POP SWAP4 SWAP3 POP POP POP JUMP JUMPDEST PUSH1 0x0 DUP2 SWAP1 POP SWAP2 SWAP1 POP JUMP JUMPDEST PUSH1 0x0 DUP2 SWAP1 POP SWAP2 SWAP1 POP JUMP JUMPDEST PUSH1 0x0 PUSH2 0x323 PUSH2 0x31E PUSH2 0x319 DUP5 PUSH2 0x2F4 JUMP JUMPDEST PUSH2 0x2FE JUMP JUMPDEST PUSH2 0x2F4 JUMP JUMPDEST SWAP1 POP SWAP2 SWAP1 POP JUMP JUMPDEST PUSH1 0x0 DUP2 SWAP1 POP SWAP2 SWAP1 POP JUMP JUMPDEST PUSH2 0x33D DUP4 PUSH2 0x308 JUMP JUMPDEST PUSH2 0x351 PUSH2 0x349 DUP3 PUSH2 0x32A JUMP JUMPDEST DUP5 DUP5 SLOAD PUSH2 0x2A2 JUMP JUMPDEST DUP3 SSTORE POP POP POP POP JUMP JUMPDEST PUSH1 0x0 SWAP1 JUMP JUMPDEST PUSH2 0x366 PUSH2 0x359 JUMP JUMPDEST PUSH2 0x371 DUP2 DUP5 DUP5 PUSH2 0x334 JUMP JUMPDEST POP POP POP JUMP JUMPDEST JUMPDEST DUP2 DUP2 LT ISZERO PUSH2 0x395 JUMPI PUSH2 0x38A PUSH1 0x0 DUP3 PUSH2 0x35E JUMP JUMPDEST PUSH1 0x1 DUP2 ADD SWAP1 POP PUSH2 0x377 JUMP JUMPDEST POP POP JUMP JUMPDEST PUSH1 0x1F DUP3 GT ISZERO PUSH2 0x3DA JUMPI PUSH2 0x3AB DUP2 PUSH2 0x270 JUMP JUMPDEST PUSH2 0x3B4 DUP5 PUSH2 0x285 JUMP JUMPDEST DUP2 ADD PUSH1 0x20 DUP6 LT ISZERO PUSH2 0x3C3 JUMPI DUP2 SWAP1 POP JUMPDEST PUSH2 0x3D7 PUSH2 0x3CF DUP6 PUSH2 0x285 JUMP JUMPDEST DUP4 ADD DUP3 PUSH2 0x376 JUMP JUMPDEST POP POP JUMPDEST POP POP POP JUMP JUMPDEST PUSH1 0x0 DUP3 DUP3 SHR SWAP1 POP SWAP3 SWAP2 POP POP JUMP JUMPDEST PUSH1 0x0 PUSH2 0x3FD PUSH1 0x0 NOT DUP5 PUSH1 0x8 MUL PUSH2 0x3DF JUMP JUMPDEST NOT DUP1 DUP4 AND SWAP2 POP POP SWAP3 SWAP2 POP POP JUMP JUMPDEST PUSH1 0x0 PUSH2 0x416 DUP4 DUP4 PUSH2 0x3EC JUMP JUMPDEST SWAP2 POP DUP3 PUSH1 0x2 MUL DUP3 OR SWAP1 POP SWAP3 SWAP2 POP POP JUMP JUMPDEST PUSH2 0x42F DUP3 PUSH2 0x1D6 JUMP JUMPDEST PUSH8 0xFFFFFFFFFFFFFFFF DUP2 GT ISZERO PUSH2 0x448 JUMPI PUSH2 0x447 PUSH2 0x1E1 JUMP JUMPDEST JUMPDEST PUSH2 0x452 DUP3 SLOAD PUSH2 0x23F JUMP JUMPDEST PUSH2 0x45D DUP3 DUP3 DUP6 PUSH2 0x399 JUMP JUMPDEST PUSH1 0x0 PUSH1 0x20 SWAP1 POP PUSH1 0x1F DUP4 GT PUSH1 0x1 DUP2 EQ PUSH2 0x490 JUMPI PUSH1 0x0 DUP5 ISZERO PUSH2 0x47E JUMPI DUP3 DUP8 ADD MLOAD SWAP1 POP JUMPDEST PUSH2 0x488 DUP6 DUP3 PUSH2 0x40A JUMP JUMPDEST DUP7 SSTORE POP PUSH2 0x4F0 JUMP JUMPDEST PUSH1 0x1F NOT DUP5 AND PUSH2 0x49E DUP7 PUSH2 0x270 JUMP JUMPDEST PUSH1 0x0 JUMPDEST DUP3 DUP2 LT ISZERO PUSH2 0x4C6 JUMPI DUP5 DUP10 ADD MLOAD DUP3 SSTORE PUSH1 0x1 DUP3 ADD SWAP2 POP PUSH1 0x20 DUP6 ADD SWAP5 POP PUSH1 0x20 DUP2 ADD SWAP1 POP PUSH2 0x4A1 JUMP JUMPDEST DUP7 DUP4 LT ISZERO PUSH2 0x4E3 JUMPI DUP5 DUP10 ADD MLOAD PUSH2 0x4DF PUSH1 0x1F DUP10 AND DUP3 PUSH2 0x3EC JUMP JUMPDEST DUP4 SSTORE POP JUMPDEST PUSH1 0x1 PUSH1 0x2 DUP9 MUL ADD DUP9 SSTORE POP POP POP JUMPDEST POP POP POP POP POP POP JUMP JUMPDEST PUSH2 0x523A DUP1 PUSH2 0x507 PUSH1 0x0 CODECOPY PUSH1 0x0 RETURN INVALID PUSH1 0x80 PUSH1 0x40 MSTORE CALLVALUE DUP1 ISZERO PUSH2 0x10 JUMPI PUSH1 0x0 DUP1 REVERT JUMPDEST POP PUSH1 0x4 CALLDATASIZE LT PUSH2 0x1C3 JUMPI PUSH1 0x0 CALLDATALOAD PUSH1 0xE0 SHR DUP1 PUSH4 0x91D14854 GT PUSH2 0xF9 JUMPI DUP1 PUSH4 0xBD85B039 GT PUSH2 0x97 JUMPI DUP1 PUSH4 0xD547741F GT PUSH2 0x71 JUMPI DUP1 PUSH4 0xD547741F EQ PUSH2 0x574 JUMPI DUP1 PUSH4 0xE149011B EQ PUSH2 0x590 JUMPI DUP1 PUSH4 0xE985E9C5 EQ PUSH2 0x5C0 JUMPI DUP1 PUSH4 0xF242432A EQ PUSH2 0x5F0 JUMPI PUSH2 0x1C3 JUMP JUMPDEST DUP1 PUSH4 0xBD85B039 EQ PUSH2 0x508 JUMPI DUP1 PUSH4 0xD4CBA21C EQ PUSH2 0x538 JUMPI DUP1 PUSH4 0xD5391393 EQ PUSH2 0x556 JUMPI PUSH2 0x1C3 JUMP JUMPDEST DUP1 PUSH4 0x9B8EA179 GT PUSH2 0xD3 JUMPI DUP1 PUSH4 0x9B8EA179 EQ PUSH2 0x482 JUMPI DUP1 PUSH4 0xA217FDDF EQ PUSH2 0x49E JUMPI DUP1 PUSH4 0xA22CB465 EQ PUSH2 0x4BC JUMPI DUP1 PUSH4 0xA3ACE66B EQ PUSH2 0x4D8 JUMPI PUSH2 0x1C3 JUMP JUMPDEST DUP1 PUSH4 0x91D14854 EQ PUSH2 0x406 JUMPI DUP1 PUSH4 0x945EDBEB EQ PUSH2 0x436 JUMPI DUP1 PUSH4 0x97889056 EQ PUSH2 0x452 JUMPI PUSH2 0x1C3 JUMP JUMPDEST DUP1 PUSH4 0x27A956F6 GT PUSH2 0x166 JUMPI DUP1 PUSH4 0x36568ABE GT PUSH2 0x140 JUMPI DUP1 PUSH4 0x36568ABE EQ PUSH2 0x36E JUMPI DUP1 PUSH4 0x4E1273F4 EQ PUSH2 0x38A JUMPI DUP1 PUSH4 0x4F558E79 EQ PUSH2 0x3BA JUMPI DUP1 PUSH4 0x91AAC065 EQ PUSH2 0x3EA JUMPI PUSH2 0x1C3 JUMP JUMPDEST DUP1 PUSH4 0x27A956F6 EQ PUSH2 0x306 JUMPI DUP1 PUSH4 0x2EB2C2D6 EQ PUSH2 0x336 JUMPI DUP1 PUSH4 0x2F2FF15D EQ PUSH2 0x352 JUMPI PUSH2 0x1C3 JUMP JUMPDEST DUP1 PUSH4 0xE89341C GT PUSH2 0x1A2 JUMPI DUP1 PUSH4 0xE89341C EQ PUSH2 0x258 JUMPI DUP1 PUSH4 0x17CB7D7C EQ PUSH2 0x288 JUMPI DUP1 PUSH4 0x18160DDD EQ PUSH2 0x2B8 JUMPI DUP1 PUSH4 0x248A9CA3 EQ PUSH2 0x2D6 JUMPI PUSH2 0x1C3 JUMP JUMPDEST DUP1 PUSH3 0xFDD58E EQ PUSH2 0x1C8 JUMPI DUP1 PUSH4 0x1FFC9A7 EQ PUSH2 0x1F8 JUMPI DUP1 PUSH4 0xB91E28D EQ PUSH2 0x228 JUMPI JUMPDEST PUSH1 0x0 DUP1 REVERT JUMPDEST PUSH2 0x1E2 PUSH1 0x4 DUP1 CALLDATASIZE SUB DUP2 ADD SWAP1 PUSH2 0x1DD SWAP2 SWAP1 PUSH2 0x337C JUMP JUMPDEST PUSH2 0x60C JUMP JUMPDEST PUSH1 0x40 MLOAD PUSH2 0x1EF SWAP2 SWAP1 PUSH2 0x33CB JUMP JUMPDEST PUSH1 0x40 MLOAD DUP1 SWAP2 SUB SWAP1 RETURN JUMPDEST PUSH2 0x212 PUSH1 0x4 DUP1 CALLDATASIZE SUB DUP2 ADD SWAP1 PUSH2 0x20D SWAP2 SWAP1 PUSH2 0x343E JUMP JUMPDEST PUSH2 0x666 JUMP JUMPDEST PUSH1 0x40 MLOAD PUSH2 0x21F SWAP2 SWAP1 PUSH2 0x3486 JUMP JUMPDEST PUSH1 0x40 MLOAD DUP1 SWAP2 SUB SWAP1 RETURN JUMPDEST PUSH2 0x242 PUSH1 0x4 DUP1 CALLDATASIZE SUB DUP2 ADD SWAP1 PUSH2 0x23D SWAP2 SWAP1 PUSH2 0x34A1 JUMP JUMPDEST PUSH2 0x678 JUMP JUMPDEST PUSH1 0x40 MLOAD PUSH2 0x24F SWAP2 SWAP1 PUSH2 0x3600 JUMP JUMPDEST PUSH1 0x40 MLOAD DUP1 SWAP2 SUB SWAP1 RETURN JUMPDEST PUSH2 0x272 PUSH1 0x4 DUP1 CALLDATASIZE SUB DUP2 ADD SWAP1 PUSH2 0x26D SWAP2 SWAP1 PUSH2 0x34A1 JUMP JUMPDEST PUSH2 0x8E3 JUMP JUMPDEST PUSH1 0x40 MLOAD PUSH2 0x27F SWAP2 SWAP1 PUSH2 0x366C JUMP JUMPDEST PUSH1 0x40 MLOAD DUP1 SWAP2 SUB SWAP1 RETURN JUMPDEST PUSH2 0x2A2 PUSH1 0x4 DUP1 CALLDATASIZE SUB DUP2 ADD SWAP1 PUSH2 0x29D SWAP2 SWAP1 PUSH2 0x37C3 JUMP JUMPDEST PUSH2 0xBBE JUMP JUMPDEST PUSH1 0x40 MLOAD PUSH2 0x2AF SWAP2 SWAP1 PUSH2 0x33CB JUMP JUMPDEST PUSH1 0x40 MLOAD DUP1 SWAP2 SUB SWAP1 RETURN JUMPDEST PUSH2 0x2C0 PUSH2 0xE69 JUMP JUMPDEST PUSH1 0x40 MLOAD PUSH2 0x2CD SWAP2 SWAP1 PUSH2 0x33CB JUMP JUMPDEST PUSH1 0x40 MLOAD DUP1 SWAP2 SUB SWAP1 RETURN JUMPDEST PUSH2 0x2F0 PUSH1 0x4 DUP1 CALLDATASIZE SUB DUP2 ADD SWAP1 PUSH2 0x2EB SWAP2 SWAP1 PUSH2 0x38B4 JUMP JUMPDEST PUSH2 0xE73 JUMP JUMPDEST PUSH1 0x40 MLOAD PUSH2 0x2FD SWAP2 SWAP1 PUSH2 0x38F0 JUMP JUMPDEST PUSH1 0x40 MLOAD DUP1 SWAP2 SUB SWAP1 RETURN JUMPDEST PUSH2 0x320 PUSH1 0x4 DUP1 CALLDATASIZE SUB DUP2 ADD SWAP1 PUSH2 0x31B SWAP2 SWAP1 PUSH2 0x390B JUMP JUMPDEST PUSH2 0xE93 JUMP JUMPDEST PUSH1 0x40 MLOAD PUSH2 0x32D SWAP2 SWAP1 PUSH2 0x3486 JUMP JUMPDEST PUSH1 0x40 MLOAD DUP1 SWAP2 SUB SWAP1 RETURN JUMPDEST PUSH2 0x350 PUSH1 0x4 DUP1 CALLDATASIZE SUB DUP2 ADD SWAP1 PUSH2 0x34B SWAP2 SWAP1 PUSH2 0x3AB4 JUMP JUMPDEST PUSH2 0xF49 JUMP JUMPDEST STOP JUMPDEST PUSH2 0x36C PUSH1 0x4 DUP1 CALLDATASIZE SUB DUP2 ADD SWAP1 PUSH2 0x367 SWAP2 SWAP1 PUSH2 0x3B83 JUMP JUMPDEST PUSH2 0xFF1 JUMP JUMPDEST STOP JUMPDEST PUSH2 0x388 PUSH1 0x4 DUP1 CALLDATASIZE SUB DUP2 ADD SWAP1 PUSH2 0x383 SWAP2 SWAP1 PUSH2 0x3B83 JUMP JUMPDEST PUSH2 0x1013 JUMP JUMPDEST STOP JUMPDEST PUSH2 0x3A4 PUSH1 0x4 DUP1 CALLDATASIZE SUB DUP2 ADD SWAP1 PUSH2 0x39F SWAP2 SWAP1 PUSH2 0x3C86 JUMP JUMPDEST PUSH2 0x108E JUMP JUMPDEST PUSH1 0x40 MLOAD PUSH2 0x3B1 SWAP2 SWAP1 PUSH2 0x3DAD JUMP JUMPDEST PUSH1 0x40 MLOAD DUP1 SWAP2 SUB SWAP1 RETURN JUMPDEST PUSH2 0x3D4 PUSH1 0x4 DUP1 CALLDATASIZE SUB DUP2 ADD SWAP1 PUSH2 0x3CF SWAP2 SWAP1 PUSH2 0x34A1 JUMP JUMPDEST PUSH2 0x1197 JUMP JUMPDEST PUSH1 0x40 MLOAD PUSH2 0x3E1 SWAP2 SWAP1 PUSH2 0x3486 JUMP JUMPDEST PUSH1 0x40 MLOAD DUP1 SWAP2 SUB SWAP1 RETURN JUMPDEST PUSH2 0x404 PUSH1 0x4 DUP1 CALLDATASIZE SUB DUP2 ADD SWAP1 PUSH2 0x3FF SWAP2 SWAP1 PUSH2 0x3DCF JUMP JUMPDEST PUSH2 0x11AB JUMP JUMPDEST STOP JUMPDEST PUSH2 0x420 PUSH1 0x4 DUP1 CALLDATASIZE SUB DUP2 ADD SWAP1 PUSH2 0x41B SWAP2 SWAP1 PUSH2 0x3B83 JUMP JUMPDEST PUSH2 0x138C JUMP JUMPDEST PUSH1 0x40 MLOAD PUSH2 0x42D SWAP2 SWAP1 PUSH2 0x3486 JUMP JUMPDEST PUSH1 0x40 MLOAD DUP1 SWAP2 SUB SWAP1 RETURN JUMPDEST PUSH2 0x450 PUSH1 0x4 DUP1 CALLDATASIZE SUB DUP2 ADD SWAP1 PUSH2 0x44B SWAP2 SWAP1 PUSH2 0x3E6E JUMP JUMPDEST PUSH2 0x13F7 JUMP JUMPDEST STOP JUMPDEST PUSH2 0x46C PUSH1 0x4 DUP1 CALLDATASIZE SUB DUP2 ADD SWAP1 PUSH2 0x467 SWAP2 SWAP1 PUSH2 0x390B JUMP JUMPDEST PUSH2 0x1657 JUMP JUMPDEST PUSH1 0x40 MLOAD PUSH2 0x479 SWAP2 SWAP1 PUSH2 0x33CB JUMP JUMPDEST PUSH1 0x40 MLOAD DUP1 SWAP2 SUB SWAP1 RETURN JUMPDEST PUSH2 0x49C PUSH1 0x4 DUP1 CALLDATASIZE SUB DUP2 ADD SWAP1 PUSH2 0x497 SWAP2 SWAP1 PUSH2 0x3EF9 JUMP JUMPDEST PUSH2 0x16EB JUMP JUMPDEST STOP JUMPDEST PUSH2 0x4A6 PUSH2 0x18C7 JUMP JUMPDEST PUSH1 0x40 MLOAD PUSH2 0x4B3 SWAP2 SWAP1 PUSH2 0x38F0 JUMP JUMPDEST PUSH1 0x40 MLOAD DUP1 SWAP2 SUB SWAP1 RETURN JUMPDEST PUSH2 0x4D6 PUSH1 0x4 DUP1 CALLDATASIZE SUB DUP2 ADD SWAP1 PUSH2 0x4D1 SWAP2 SWAP1 PUSH2 0x3F94 JUMP JUMPDEST PUSH2 0x18CE JUMP JUMPDEST STOP JUMPDEST PUSH2 0x4F2 PUSH1 0x4 DUP1 CALLDATASIZE SUB DUP2 ADD SWAP1 PUSH2 0x4ED SWAP2 SWAP1 PUSH2 0x390B JUMP JUMPDEST PUSH2 0x18E4 JUMP JUMPDEST PUSH1 0x40 MLOAD PUSH2 0x4FF SWAP2 SWAP1 PUSH2 0x33CB JUMP JUMPDEST PUSH1 0x40 MLOAD DUP1 SWAP2 SUB SWAP1 RETURN JUMPDEST PUSH2 0x522 PUSH1 0x4 DUP1 CALLDATASIZE SUB DUP2 ADD SWAP1 PUSH2 0x51D SWAP2 SWAP1 PUSH2 0x34A1 JUMP JUMPDEST PUSH2 0x193F JUMP JUMPDEST PUSH1 0x40 MLOAD PUSH2 0x52F SWAP2 SWAP1 PUSH2 0x33CB JUMP JUMPDEST PUSH1 0x40 MLOAD DUP1 SWAP2 SUB SWAP1 RETURN JUMPDEST PUSH2 0x540 PUSH2 0x195C JUMP JUMPDEST PUSH1 0x40 MLOAD PUSH2 0x54D SWAP2 SWAP1 PUSH2 0x33CB JUMP JUMPDEST PUSH1 0x40 MLOAD DUP1 SWAP2 SUB SWAP1 RETURN JUMPDEST PUSH2 0x55E PUSH2 0x1972 JUMP JUMPDEST PUSH1 0x40 MLOAD PUSH2 0x56B SWAP2 SWAP1 PUSH2 0x38F0 JUMP JUMPDEST PUSH1 0x40 MLOAD DUP1 SWAP2 SUB SWAP1 RETURN JUMPDEST PUSH2 0x58E PUSH1 0x4 DUP1 CALLDATASIZE SUB DUP2 ADD SWAP1 PUSH2 0x589 SWAP2 SWAP1 PUSH2 0x3B83 JUMP JUMPDEST PUSH2 0x1996 JUMP JUMPDEST STOP JUMPDEST PUSH2 0x5AA PUSH1 0x4 DUP1 CALLDATASIZE SUB DUP2 ADD SWAP1 PUSH2 0x5A5 SWAP2 SWAP1 PUSH2 0x3FD4 JUMP JUMPDEST PUSH2 0x19B8 JUMP JUMPDEST PUSH1 0x40 MLOAD PUSH2 0x5B7 SWAP2 SWAP1 PUSH2 0x40DF JUMP JUMPDEST PUSH1 0x40 MLOAD DUP1 SWAP2 SUB SWAP1 RETURN JUMPDEST PUSH2 0x5DA PUSH1 0x4 DUP1 CALLDATASIZE SUB DUP2 ADD SWAP1 PUSH2 0x5D5 SWAP2 SWAP1 PUSH2 0x4101 JUMP JUMPDEST PUSH2 0x1BAA JUMP JUMPDEST PUSH1 0x40 MLOAD PUSH2 0x5E7 SWAP2 SWAP1 PUSH2 0x3486 JUMP JUMPDEST PUSH1 0x40 MLOAD DUP1 SWAP2 SUB SWAP1 RETURN JUMPDEST PUSH2 0x60A PUSH1 0x4 DUP1 CALLDATASIZE SUB DUP2 ADD SWAP1 PUSH2 0x605 SWAP2 SWAP1 PUSH2 0x4141 JUMP JUMPDEST PUSH2 0x1C3E JUMP JUMPDEST STOP JUMPDEST PUSH1 0x0 DUP1 PUSH1 0x0 DUP4 DUP2 MSTORE PUSH1 0x20 ADD SWAP1 DUP2 MSTORE PUSH1 0x20 ADD PUSH1 0x0 KECCAK256 PUSH1 0x0 DUP5 PUSH20 0xFFFFFFFFFFFFFFFFFFFFFFFFFFFFFFFFFFFFFFFF AND PUSH20 0xFFFFFFFFFFFFFFFFFFFFFFFFFFFFFFFFFFFFFFFF AND DUP2 MSTORE PUSH1 0x20 ADD SWAP1 DUP2 MSTORE PUSH1 0x20 ADD PUSH1 0x0 KECCAK256 SLOAD SWAP1 POP SWAP3 SWAP2 POP POP JUMP JUMPDEST PUSH1 0x0 PUSH2 0x671 DUP3 PUSH2 0x1CE6 JUMP JUMPDEST SWAP1 POP SWAP2 SWAP1 POP JUMP JUMPDEST PUSH2 0x680 PUSH2 0x32A3 JUMP JUMPDEST PUSH1 0x7 PUSH1 0x0 DUP4 DUP2 MSTORE PUSH1 0x20 ADD SWAP1 DUP2 MSTORE PUSH1 0x20 ADD PUSH1 0x0 KECCAK256 PUSH1 0x4 ADD PUSH1 0x0 SWAP1 SLOAD SWAP1 PUSH2 0x100 EXP SWAP1 DIV PUSH1 0xFF AND PUSH2 0x6E3 JUMPI PUSH1 0x40 MLOAD PUSH32 0x8C379A000000000000000000000000000000000000000000000000000000000 DUP2 MSTORE PUSH1 0x4 ADD PUSH2 0x6DA SWAP1 PUSH2 0x4224 JUMP JUMPDEST PUSH1 0x40 MLOAD DUP1 SWAP2 SUB SWAP1 REVERT JUMPDEST PUSH1 0x7 PUSH1 0x0 DUP4 DUP2 MSTORE PUSH1 0x20 ADD SWAP1 DUP2 MSTORE PUSH1 0x20 ADD PUSH1 0x0 KECCAK256 PUSH1 0x40 MLOAD DUP1 PUSH1 0xA0 ADD PUSH1 0x40 MSTORE SWAP1 DUP2 PUSH1 0x0 DUP3 ADD DUP1 SLOAD PUSH2 0x711 SWAP1 PUSH2 0x4273 JUMP JUMPDEST DUP1 PUSH1 0x1F ADD PUSH1 0x20 DUP1 SWAP2 DIV MUL PUSH1 0x20 ADD PUSH1 0x40 MLOAD SWAP1 DUP2 ADD PUSH1 0x40 MSTORE DUP1 SWAP3 SWAP2 SWAP1 DUP2 DUP2 MSTORE PUSH1 0x20 ADD DUP3 DUP1 SLOAD PUSH2 0x73D SWAP1 PUSH2 0x4273 JUMP JUMPDEST DUP1 ISZERO PUSH2 0x78A JUMPI DUP1 PUSH1 0x1F LT PUSH2 0x75F JUMPI PUSH2 0x100 DUP1 DUP4 SLOAD DIV MUL DUP4 MSTORE SWAP2 PUSH1 0x20 ADD SWAP2 PUSH2 0x78A JUMP JUMPDEST DUP3 ADD SWAP2 SWAP1 PUSH1 0x0 MSTORE PUSH1 0x20 PUSH1 0x0 KECCAK256 SWAP1 JUMPDEST DUP2 SLOAD DUP2 MSTORE SWAP1 PUSH1 0x1 ADD SWAP1 PUSH1 0x20 ADD DUP1 DUP4 GT PUSH2 0x76D JUMPI DUP3 SWAP1 SUB PUSH1 0x1F AND DUP3 ADD SWAP2 JUMPDEST POP POP POP POP POP DUP2 MSTORE PUSH1 0x20 ADD PUSH1 0x1 DUP3 ADD DUP1 SLOAD PUSH2 0x7A3 SWAP1 PUSH2 0x4273 JUMP JUMPDEST DUP1 PUSH1 0x1F ADD PUSH1 0x20 DUP1 SWAP2 DIV MUL PUSH1 0x20 ADD PUSH1 0x40 MLOAD SWAP1 DUP2 ADD PUSH1 0x40 MSTORE DUP1 SWAP3 SWAP2 SWAP1 DUP2 DUP2 MSTORE PUSH1 0x20 ADD DUP3 DUP1 SLOAD PUSH2 0x7CF SWAP1 PUSH2 0x4273 JUMP JUMPDEST DUP1 ISZERO PUSH2 0x81C JUMPI DUP1 PUSH1 0x1F LT PUSH2 0x7F1 JUMPI PUSH2 0x100 DUP1 DUP4 SLOAD DIV MUL DUP4 MSTORE SWAP2 PUSH1 0x20 ADD SWAP2 PUSH2 0x81C JUMP JUMPDEST DUP3 ADD SWAP2 SWAP1 PUSH1 0x0 MSTORE PUSH1 0x20 PUSH1 0x0 KECCAK256 SWAP1 JUMPDEST DUP2 SLOAD DUP2 MSTORE SWAP1 PUSH1 0x1 ADD SWAP1 PUSH1 0x20 ADD DUP1 DUP4 GT PUSH2 0x7FF JUMPI DUP3 SWAP1 SUB PUSH1 0x1F AND DUP3 ADD SWAP2 JUMPDEST POP POP POP POP POP DUP2 MSTORE PUSH1 0x20 ADD PUSH1 0x2 DUP3 ADD DUP1 SLOAD PUSH2 0x835 SWAP1 PUSH2 0x4273 JUMP JUMPDEST DUP1 PUSH1 0x1F ADD PUSH1 0x20 DUP1 SWAP2 DIV MUL PUSH1 0x20 ADD PUSH1 0x40 MLOAD SWAP1 DUP2 ADD PUSH1 0x40 MSTORE DUP1 SWAP3 SWAP2 SWAP1 DUP2 DUP2 MSTORE PUSH1 0x20 ADD DUP3 DUP1 SLOAD PUSH2 0x861 SWAP1 PUSH2 0x4273 JUMP JUMPDEST DUP1 ISZERO PUSH2 0x8AE JUMPI DUP1 PUSH1 0x1F LT PUSH2 0x883 JUMPI PUSH2 0x100 DUP1 DUP4 SLOAD DIV MUL DUP4 MSTORE SWAP2 PUSH1 0x20 ADD SWAP2 PUSH2 0x8AE JUMP JUMPDEST DUP3 ADD SWAP2 SWAP1 PUSH1 0x0 MSTORE PUSH1 0x20 PUSH1 0x0 KECCAK256 SWAP1 JUMPDEST DUP2 SLOAD DUP2 MSTORE SWAP1 PUSH1 0x1 ADD SWAP1 PUSH1 0x20 ADD DUP1 DUP4 GT PUSH2 0x891 JUMPI DUP3 SWAP1 SUB PUSH1 0x1F AND DUP3 ADD SWAP2 JUMPDEST POP POP POP POP POP DUP2 MSTORE PUSH1 0x20 ADD PUSH1 0x3 DUP3 ADD SLOAD DUP2 MSTORE PUSH1 0x20 ADD PUSH1 0x4 DUP3 ADD PUSH1 0x0 SWAP1 SLOAD SWAP1 PUSH2 0x100 EXP SWAP1 DIV PUSH1 0xFF AND ISZERO ISZERO ISZERO ISZERO DUP2 MSTORE POP POP SWAP1 POP SWAP2 SWAP1 POP JUMP JUMPDEST PUSH1 0x60 PUSH1 0x7 PUSH1 0x0 DUP4 DUP2 MSTORE PUSH1 0x20 ADD SWAP1 DUP2 MSTORE PUSH1 0x20 ADD PUSH1 0x0 KECCAK256 PUSH1 0x4 ADD PUSH1 0x0 SWAP1 SLOAD SWAP1 PUSH2 0x100 EXP SWAP1 DIV PUSH1 0xFF AND PUSH2 0x948 JUMPI PUSH1 0x40 MLOAD PUSH32 0x8C379A000000000000000000000000000000000000000000000000000000000 DUP2 MSTORE PUSH1 0x4 ADD PUSH2 0x93F SWAP1 PUSH2 0x4224 JUMP JUMPDEST PUSH1 0x40 MLOAD DUP1 SWAP2 SUB SWAP1 REVERT JUMPDEST PUSH1 0x0 PUSH1 0x7 PUSH1 0x0 DUP5 DUP2 MSTORE PUSH1 0x20 ADD SWAP1 DUP2 MSTORE PUSH1 0x20 ADD PUSH1 0x0 KECCAK256 PUSH1 0x40 MLOAD DUP1 PUSH1 0xA0 ADD PUSH1 0x40 MSTORE SWAP1 DUP2 PUSH1 0x0 DUP3 ADD DUP1 SLOAD PUSH2 0x978 SWAP1 PUSH2 0x4273 JUMP JUMPDEST DUP1 PUSH1 0x1F ADD PUSH1 0x20 DUP1 SWAP2 DIV MUL PUSH1 0x20 ADD PUSH1 0x40 MLOAD SWAP1 DUP2 ADD PUSH1 0x40 MSTORE DUP1 SWAP3 SWAP2 SWAP1 DUP2 DUP2 MSTORE PUSH1 0x20 ADD DUP3 DUP1 SLOAD PUSH2 0x9A4 SWAP1 PUSH2 0x4273 JUMP JUMPDEST DUP1 ISZERO PUSH2 0x9F1 JUMPI DUP1 PUSH1 0x1F LT PUSH2 0x9C6 JUMPI PUSH2 0x100 DUP1 DUP4 SLOAD DIV MUL DUP4 MSTORE SWAP2 PUSH1 0x20 ADD SWAP2 PUSH2 0x9F1 JUMP JUMPDEST DUP3 ADD SWAP2 SWAP1 PUSH1 0x0 MSTORE PUSH1 0x20 PUSH1 0x0 KECCAK256 SWAP1 JUMPDEST DUP2 SLOAD DUP2 MSTORE SWAP1 PUSH1 0x1 ADD SWAP1 PUSH1 0x20 ADD DUP1 DUP4 GT PUSH2 0x9D4 JUMPI DUP3 SWAP1 SUB PUSH1 0x1F AND DUP3 ADD SWAP2 JUMPDEST POP POP POP POP POP DUP2 MSTORE PUSH1 0x20 ADD PUSH1 0x1 DUP3 ADD DUP1 SLOAD PUSH2 0xA0A SWAP1 PUSH2 0x4273 JUMP JUMPDEST DUP1 PUSH1 0x1F ADD PUSH1 0x20 DUP1 SWAP2 DIV MUL PUSH1 0x20 ADD PUSH1 0x40 MLOAD SWAP1 DUP2 ADD PUSH1 0x40 MSTORE DUP1 SWAP3 SWAP2 SWAP1 DUP2 DUP2 MSTORE PUSH1 0x20 ADD DUP3 DUP1 SLOAD PUSH2 0xA36 SWAP1 PUSH2 0x4273 JUMP JUMPDEST DUP1 ISZERO PUSH2 0xA83 JUMPI DUP1 PUSH1 0x1F LT PUSH2 0xA58 JUMPI PUSH2 0x100 DUP1 DUP4 SLOAD DIV MUL DUP4 MSTORE SWAP2 PUSH1 0x20 ADD SWAP2 PUSH2 0xA83 JUMP JUMPDEST DUP3 ADD SWAP2 SWAP1 PUSH1 0x0 MSTORE PUSH1 0x20 PUSH1 0x0 KECCAK256 SWAP1 JUMPDEST DUP2 SLOAD DUP2 MSTORE SWAP1 PUSH1 0x1 ADD SWAP1 PUSH1 0x20 ADD DUP1 DUP4 GT PUSH2 0xA66 JUMPI DUP3 SWAP1 SUB PUSH1 0x1F AND DUP3 ADD SWAP2 JUMPDEST POP POP POP POP POP DUP2 MSTORE PUSH1 0x20 ADD PUSH1 0x2 DUP3 ADD DUP1 SLOAD PUSH2 0xA9C SWAP1 PUSH2 0x4273 JUMP JUMPDEST DUP1 PUSH1 0x1F ADD PUSH1 0x20 DUP1 SWAP2 DIV MUL PUSH1 0x20 ADD PUSH1 0x40 MLOAD SWAP1 DUP2 ADD PUSH1 0x40 MSTORE DUP1 SWAP3 SWAP2 SWAP1 DUP2 DUP2 MSTORE PUSH1 0x20 ADD DUP3 DUP1 SLOAD PUSH2 0xAC8 SWAP1 PUSH2 0x4273 JUMP JUMPDEST DUP1 ISZERO PUSH2 0xB15 JUMPI DUP1 PUSH1 0x1F LT PUSH2 0xAEA JUMPI PUSH2 0x100 DUP1 DUP4 SLOAD DIV MUL DUP4 MSTORE SWAP2 PUSH1 0x20 ADD SWAP2 PUSH2 0xB15 JUMP JUMPDEST DUP3 ADD SWAP2 SWAP1 PUSH1 0x0 MSTORE PUSH1 0x20 PUSH1 0x0 KECCAK256 SWAP1 JUMPDEST DUP2 SLOAD DUP2 MSTORE SWAP1 PUSH1 0x1 ADD SWAP1 PUSH1 0x20 ADD DUP1 DUP4 GT PUSH2 0xAF8 JUMPI DUP3 SWAP1 SUB PUSH1 0x1F AND DUP3 ADD SWAP2 JUMPDEST POP POP POP POP POP DUP2 MSTORE PUSH1 0x20 ADD PUSH1 0x3 DUP3 ADD SLOAD DUP2 MSTORE PUSH1 0x20 ADD PUSH1 0x4 DUP3 ADD PUSH1 0x0 SWAP1 SLOAD SWAP1 PUSH2 0x100 EXP SWAP1 DIV PUSH1 0xFF AND ISZERO ISZERO ISZERO ISZERO DUP2 MSTORE POP POP SWAP1 POP PUSH1 0x0 DUP2 PUSH1 0x20 ADD MLOAD DUP3 PUSH1 0x20 ADD MLOAD DUP4 PUSH1 0x40 ADD MLOAD DUP5 PUSH1 0x0 ADD MLOAD PUSH2 0xB68 DUP7 PUSH1 0x60 ADD MLOAD PUSH2 0x1D60 JUMP JUMPDEST PUSH1 0x40 MLOAD PUSH1 0x20 ADD PUSH2 0xB7C SWAP6 SWAP5 SWAP4 SWAP3 SWAP2 SWAP1 PUSH2 0x45FE JUMP JUMPDEST PUSH1 0x40 MLOAD PUSH1 0x20 DUP2 DUP4 SUB SUB DUP2 MSTORE SWAP1 PUSH1 0x40 MSTORE SWAP1 POP PUSH2 0xB96 DUP2 PUSH2 0x1E2E JUMP JUMPDEST PUSH1 0x40 MLOAD PUSH1 0x20 ADD PUSH2 0xBA6 SWAP2 SWAP1 PUSH2 0x46F8 JUMP JUMPDEST PUSH1 0x40 MLOAD PUSH1 0x20 DUP2 DUP4 SUB SUB DUP2 MSTORE SWAP1 PUSH1 0x40 MSTORE SWAP3 POP POP POP SWAP2 SWAP1 POP JUMP JUMPDEST PUSH1 0x0 DUP1 PUSH1 0x0 SHL PUSH2 0xBCD DUP2 PUSH2 0x1E5B JUMP JUMPDEST PUSH1 0x0 DUP7 MLOAD GT PUSH2 0xC11 JUMPI PUSH1 0x40 MLOAD PUSH32 0x8C379A000000000000000000000000000000000000000000000000000000000 DUP2 MSTORE PUSH1 0x4 ADD PUSH2 0xC08 SWAP1 PUSH2 0x4766 JUMP JUMPDEST PUSH1 0x40 MLOAD DUP1 SWAP2 SUB SWAP1 REVERT JUMPDEST PUSH1 0x0 DUP6 MLOAD GT PUSH2 0xC55 JUMPI PUSH1 0x40 MLOAD PUSH32 0x8C379A000000000000000000000000000000000000000000000000000000000 DUP2 MSTORE PUSH1 0x4 ADD PUSH2 0xC4C SWAP1 PUSH2 0x47D2 JUMP JUMPDEST PUSH1 0x40 MLOAD DUP1 SWAP2 SUB SWAP1 REVERT JUMPDEST PUSH1 0x0 DUP5 MLOAD GT PUSH2 0xC99 JUMPI PUSH1 0x40 MLOAD PUSH32 0x8C379A000000000000000000000000000000000000000000000000000000000 DUP2 MSTORE PUSH1 0x4 ADD PUSH2 0xC90 SWAP1 PUSH2 0x483E JUMP JUMPDEST PUSH1 0x40 MLOAD DUP1 SWAP2 SUB SWAP1 REVERT JUMPDEST PUSH1 0x0 DUP4 GT PUSH2 0xCDC JUMPI PUSH1 0x40 MLOAD PUSH32 0x8C379A000000000000000000000000000000000000000000000000000000000 DUP2 MSTORE PUSH1 0x4 ADD PUSH2 0xCD3 SWAP1 PUSH2 0x48D0 JUMP JUMPDEST PUSH1 0x40 MLOAD DUP1 SWAP2 SUB SWAP1 REVERT JUMPDEST PUSH1 0x0 DUP7 DUP1 MLOAD SWAP1 PUSH1 0x20 ADD KECCAK256 SWAP1 POP PUSH1 0x0 PUSH1 0x9 PUSH1 0x0 DUP4 DUP2 MSTORE PUSH1 0x20 ADD SWAP1 DUP2 MSTORE PUSH1 0x20 ADD PUSH1 0x0 KECCAK256 SLOAD EQ PUSH2 0xD3E JUMPI PUSH1 0x40 MLOAD PUSH32 0x8C379A000000000000000000000000000000000000000000000000000000000 DUP2 MSTORE PUSH1 0x4 ADD PUSH2 0xD35 SWAP1 PUSH2 0x493C JUMP JUMPDEST PUSH1 0x40 MLOAD DUP1 SWAP2 SUB SWAP1 REVERT JUMPDEST PUSH1 0x0 PUSH1 0x6 SLOAD SWAP1 POP PUSH1 0x6 PUSH1 0x0 DUP2 SLOAD DUP1 SWAP3 SWAP2 SWAP1 PUSH2 0xD58 SWAP1 PUSH2 0x498B JUMP JUMPDEST SWAP2 SWAP1 POP SSTORE POP PUSH1 0x40 MLOAD DUP1 PUSH1 0xA0 ADD PUSH1 0x40 MSTORE DUP1 DUP10 DUP2 MSTORE PUSH1 0x20 ADD DUP9 DUP2 MSTORE PUSH1 0x20 ADD DUP8 DUP2 MSTORE PUSH1 0x20 ADD DUP7 DUP2 MSTORE PUSH1 0x20 ADD PUSH1 0x1 ISZERO ISZERO DUP2 MSTORE POP PUSH1 0x7 PUSH1 0x0 DUP4 DUP2 MSTORE PUSH1 0x20 ADD SWAP1 DUP2 MSTORE PUSH1 0x20 ADD PUSH1 0x0 KECCAK256 PUSH1 0x0 DUP3 ADD MLOAD DUP2 PUSH1 0x0 ADD SWAP1 DUP2 PUSH2 0xDAF SWAP2 SWAP1 PUSH2 0x4B7F JUMP JUMPDEST POP PUSH1 0x20 DUP3 ADD MLOAD DUP2 PUSH1 0x1 ADD SWAP1 DUP2 PUSH2 0xDC5 SWAP2 SWAP1 PUSH2 0x4B7F JUMP JUMPDEST POP PUSH1 0x40 DUP3 ADD MLOAD DUP2 PUSH1 0x2 ADD SWAP1 DUP2 PUSH2 0xDDB SWAP2 SWAP1 PUSH2 0x4B7F JUMP JUMPDEST POP PUSH1 0x60 DUP3 ADD MLOAD DUP2 PUSH1 0x3 ADD SSTORE PUSH1 0x80 DUP3 ADD MLOAD DUP2 PUSH1 0x4 ADD PUSH1 0x0 PUSH2 0x100 EXP DUP2 SLOAD DUP2 PUSH1 0xFF MUL NOT AND SWAP1 DUP4 ISZERO ISZERO MUL OR SWAP1 SSTORE POP SWAP1 POP POP DUP1 PUSH1 0x9 PUSH1 0x0 DUP5 DUP2 MSTORE PUSH1 0x20 ADD SWAP1 DUP2 MSTORE PUSH1 0x20 ADD PUSH1 0x0 KECCAK256 DUP2 SWAP1 SSTORE POP DUP1 PUSH32 0xDE9406A80EC412E1774C566CFC90B0AA3ADB56B79530121356ED153CD1CBAFD2 DUP10 DUP10 PUSH1 0x40 MLOAD PUSH2 0xE53 SWAP3 SWAP2 SWAP1 PUSH2 0x4C51 JUMP JUMPDEST PUSH1 0x40 MLOAD DUP1 SWAP2 SUB SWAP1 LOG2 DUP1 SWAP4 POP POP POP POP SWAP5 SWAP4 POP POP POP POP JUMP JUMPDEST PUSH1 0x0 PUSH1 0x4 SLOAD SWAP1 POP SWAP1 JUMP JUMPDEST PUSH1 0x0 PUSH1 0x5 PUSH1 0x0 DUP4 DUP2 MSTORE PUSH1 0x20 ADD SWAP1 DUP2 MSTORE PUSH1 0x20 ADD PUSH1 0x0 KECCAK256 PUSH1 0x1 ADD SLOAD SWAP1 POP SWAP2 SWAP1 POP JUMP JUMPDEST PUSH1 0x0 DUP1 PUSH2 0xEA0 DUP4 DUP6 PUSH2 0x60C JUMP JUMPDEST SUB PUSH2 0xEAE JUMPI PUSH1 0x0 SWAP1 POP PUSH2 0xF43 JUMP JUMPDEST PUSH1 0x0 PUSH1 0x8 PUSH1 0x0 DUP6 DUP2 MSTORE PUSH1 0x20 ADD SWAP1 DUP2 MSTORE PUSH1 0x20 ADD PUSH1 0x0 KECCAK256 PUSH1 0x0 DUP5 PUSH20 0xFFFFFFFFFFFFFFFFFFFFFFFFFFFFFFFFFFFFFFFF AND PUSH20 0xFFFFFFFFFFFFFFFFFFFFFFFFFFFFFFFFFFFFFFFF AND DUP2 MSTORE PUSH1 0x20 ADD SWAP1 DUP2 MSTORE PUSH1 0x20 ADD PUSH1 0x0 KECCAK256 SLOAD SWAP1 POP PUSH1 0x0 DUP2 SUB PUSH2 0xF15 JUMPI PUSH1 0x0 SWAP2 POP POP PUSH2 0xF43 JUMP JUMPDEST PUSH1 0x0 PUSH1 0x7 PUSH1 0x0 DUP7 DUP2 MSTORE PUSH1 0x20 ADD SWAP1 DUP2 MSTORE PUSH1 0x20 ADD PUSH1 0x0 KECCAK256 PUSH1 0x3 ADD SLOAD DUP3 PUSH2 0xF39 SWAP2 SWAP1 PUSH2 0x4C88 JUMP JUMPDEST SWAP1 POP DUP1 TIMESTAMP LT SWAP3 POP POP POP JUMPDEST SWAP3 SWAP2 POP POP JUMP JUMPDEST PUSH1 0x0 PUSH2 0xF53 PUSH2 0x1E6F JUMP JUMPDEST SWAP1 POP DUP1 PUSH20 0xFFFFFFFFFFFFFFFFFFFFFFFFFFFFFFFFFFFFFFFF AND DUP7 PUSH20 0xFFFFFFFFFFFFFFFFFFFFFFFFFFFFFFFFFFFFFFFF AND EQ ISZERO DUP1 ISZERO PUSH2 0xF98 JUMPI POP PUSH2 0xF96 DUP7 DUP3 PUSH2 0x1BAA JUMP JUMPDEST ISZERO JUMPDEST ISZERO PUSH2 0xFDC JUMPI DUP1 DUP7 PUSH1 0x40 MLOAD PUSH32 0xE237D92200000000000000000000000000000000000000000000000000000000 DUP2 MSTORE PUSH1 0x4 ADD PUSH2 0xFD3 SWAP3 SWAP2 SWAP1 PUSH2 0x4CCB JUMP JUMPDEST PUSH1 0x40 MLOAD DUP1 SWAP2 SUB SWAP1 REVERT JUMPDEST PUSH2 0xFE9 DUP7 DUP7 DUP7 DUP7 DUP7 PUSH2 0x1E77 JUMP JUMPDEST POP POP POP POP POP POP JUMP JUMPDEST PUSH2 0xFFA DUP3 PUSH2 0xE73 JUMP JUMPDEST PUSH2 0x1003 DUP2 PUSH2 0x1E5B JUMP JUMPDEST PUSH2 0x100D DUP4 DUP4 PUSH2 0x1F6F JUMP JUMPDEST POP POP POP POP JUMP JUMPDEST PUSH2 0x101B PUSH2 0x1E6F JUMP JUMPDEST PUSH20 0xFFFFFFFFFFFFFFFFFFFFFFFFFFFFFFFFFFFFFFFF AND DUP2 PUSH20 0xFFFFFFFFFFFFFFFFFFFFFFFFFFFFFFFFFFFFFFFF AND EQ PUSH2 0x107F JUMPI PUSH1 0x40 MLOAD PUSH32 0x6697B23200000000000000000000000000000000000000000000000000000000 DUP2 MSTORE PUSH1 0x4 ADD PUSH1 0x40 MLOAD DUP1 SWAP2 SUB SWAP1 REVERT JUMPDEST PUSH2 0x1089 DUP3 DUP3 PUSH2 0x2061 JUMP JUMPDEST POP POP POP JUMP JUMPDEST PUSH1 0x60 DUP2 MLOAD DUP4 MLOAD EQ PUSH2 0x10DA JUMPI DUP2 MLOAD DUP4 MLOAD PUSH1 0x40 MLOAD PUSH32 0x5B05999100000000000000000000000000000000000000000000000000000000 DUP2 MSTORE PUSH1 0x4 ADD PUSH2 0x10D1 SWAP3 SWAP2 SWAP1 PUSH2 0x4CF4 JUMP JUMPDEST PUSH1 0x40 MLOAD DUP1 SWAP2 SUB SWAP1 REVERT JUMPDEST PUSH1 0x0 DUP4 MLOAD PUSH8 0xFFFFFFFFFFFFFFFF DUP2 GT ISZERO PUSH2 0x10F7 JUMPI PUSH2 0x10F6 PUSH2 0x3698 JUMP JUMPDEST JUMPDEST PUSH1 0x40 MLOAD SWAP1 DUP1 DUP3 MSTORE DUP1 PUSH1 0x20 MUL PUSH1 0x20 ADD DUP3 ADD PUSH1 0x40 MSTORE DUP1 ISZERO PUSH2 0x1125 JUMPI DUP2 PUSH1 0x20 ADD PUSH1 0x20 DUP3 MUL DUP1 CALLDATASIZE DUP4 CALLDATACOPY DUP1 DUP3 ADD SWAP2 POP POP SWAP1 POP JUMPDEST POP SWAP1 POP PUSH1 0x0 JUMPDEST DUP5 MLOAD DUP2 LT ISZERO PUSH2 0x118C JUMPI PUSH2 0x1162 PUSH2 0x114A DUP3 DUP8 PUSH2 0x2154 SWAP1 SWAP2 SWAP1 PUSH4 0xFFFFFFFF AND JUMP JUMPDEST PUSH2 0x115D DUP4 DUP8 PUSH2 0x2168 SWAP1 SWAP2 SWAP1 PUSH4 0xFFFFFFFF AND JUMP JUMPDEST PUSH2 0x60C JUMP JUMPDEST DUP3 DUP3 DUP2 MLOAD DUP2 LT PUSH2 0x1175 JUMPI PUSH2 0x1174 PUSH2 0x4D1D JUMP JUMPDEST JUMPDEST PUSH1 0x20 MUL PUSH1 0x20 ADD ADD DUP2 DUP2 MSTORE POP POP DUP1 PUSH1 0x1 ADD SWAP1 POP PUSH2 0x112B JUMP JUMPDEST POP DUP1 SWAP2 POP POP SWAP3 SWAP2 POP POP JUMP JUMPDEST PUSH1 0x0 DUP1 PUSH2 0x11A3 DUP4 PUSH2 0x193F JUMP JUMPDEST GT SWAP1 POP SWAP2 SWAP1 POP JUMP JUMPDEST PUSH1 0x0 DUP1 SHL PUSH2 0x11B8 DUP2 PUSH2 0x1E5B JUMP JUMPDEST PUSH1 0x7 PUSH1 0x0 DUP7 DUP2 MSTORE PUSH1 0x20 ADD SWAP1 DUP2 MSTORE PUSH1 0x20 ADD PUSH1 0x0 KECCAK256 PUSH1 0x4 ADD PUSH1 0x0 SWAP1 SLOAD SWAP1 PUSH2 0x100 EXP SWAP1 DIV PUSH1 0xFF AND PUSH2 0x121B JUMPI PUSH1 0x40 MLOAD PUSH32 0x8C379A000000000000000000000000000000000000000000000000000000000 DUP2 MSTORE PUSH1 0x4 ADD PUSH2 0x1212 SWAP1 PUSH2 0x4224 JUMP JUMPDEST PUSH1 0x40 MLOAD DUP1 SWAP2 SUB SWAP1 REVERT JUMPDEST PUSH1 0x0 DUP5 MLOAD GT PUSH2 0x125F JUMPI PUSH1 0x40 MLOAD PUSH32 0x8C379A000000000000000000000000000000000000000000000000000000000 DUP2 MSTORE PUSH1 0x4 ADD PUSH2 0x1256 SWAP1 PUSH2 0x47D2 JUMP JUMPDEST PUSH1 0x40 MLOAD DUP1 SWAP2 SUB SWAP1 REVERT JUMPDEST PUSH1 0x0 DUP4 MLOAD GT PUSH2 0x12A3 JUMPI PUSH1 0x40 MLOAD PUSH32 0x8C379A000000000000000000000000000000000000000000000000000000000 DUP2 MSTORE PUSH1 0x4 ADD PUSH2 0x129A SWAP1 PUSH2 0x483E JUMP JUMPDEST PUSH1 0x40 MLOAD DUP1 SWAP2 SUB SWAP1 REVERT JUMPDEST PUSH1 0x0 DUP3 GT PUSH2 0x12E6 JUMPI PUSH1 0x40 MLOAD PUSH32 0x8C379A000000000000000000000000000000000000000000000000000000000 DUP2 MSTORE PUSH1 0x4 ADD PUSH2 0x12DD SWAP1 PUSH2 0x48D0 JUMP JUMPDEST PUSH1 0x40 MLOAD DUP1 SWAP2 SUB SWAP1 REVERT JUMPDEST DUP4 PUSH1 0x7 PUSH1 0x0 DUP8 DUP2 MSTORE PUSH1 0x20 ADD SWAP1 DUP2 MSTORE PUSH1 0x20 ADD PUSH1 0x0 KECCAK256 PUSH1 0x1 ADD SWAP1 DUP2 PUSH2 0x1309 SWAP2 SWAP1 PUSH2 0x4B7F JUMP JUMPDEST POP DUP3 PUSH1 0x7 PUSH1 0x0 DUP8 DUP2 MSTORE PUSH1 0x20 ADD SWAP1 DUP2 MSTORE PUSH1 0x20 ADD PUSH1 0x0 KECCAK256 PUSH1 0x2 ADD SWAP1 DUP2 PUSH2 0x132D SWAP2 SWAP1 PUSH2 0x4B7F JUMP JUMPDEST POP DUP2 PUSH1 0x7 PUSH1 0x0 DUP8 DUP2 MSTORE PUSH1 0x20 ADD SWAP1 DUP2 MSTORE PUSH1 0x20 ADD PUSH1 0x0 KECCAK256 PUSH1 0x3 ADD DUP2 SWAP1 SSTORE POP DUP5 PUSH32 0xC128F82E4A6850637E3659E21039E2D8FA11326D0888C5BA6193F3B1C132CD45 DUP6 DUP6 DUP6 PUSH1 0x40 MLOAD PUSH2 0x137D SWAP4 SWAP3 SWAP2 SWAP1 PUSH2 0x4D4C JUMP JUMPDEST PUSH1 0x40 MLOAD DUP1 SWAP2 SUB SWAP1 LOG2 POP POP POP POP POP JUMP JUMPDEST PUSH1 0x0 PUSH1 0x5 PUSH1 0x0 DUP5 DUP2 MSTORE PUSH1 0x20 ADD SWAP1 DUP2 MSTORE PUSH1 0x20 ADD PUSH1 0x0 KECCAK256 PUSH1 0x0 ADD PUSH1 0x0 DUP4 PUSH20 0xFFFFFFFFFFFFFFFFFFFFFFFFFFFFFFFFFFFFFFFF AND PUSH20 0xFFFFFFFFFFFFFFFFFFFFFFFFFFFFFFFFFFFFFFFF AND DUP2 MSTORE PUSH1 0x20 ADD SWAP1 DUP2 MSTORE PUSH1 0x20 ADD PUSH1 0x0 KECCAK256 PUSH1 0x0 SWAP1 SLOAD SWAP1 PUSH2 0x100 EXP SWAP1 DIV PUSH1 0xFF AND SWAP1 POP SWAP3 SWAP2 POP POP JUMP JUMPDEST PUSH32 0x9F2DF0FED2C77648DE5860A4CC508CD0818C85B8B8A1AB4CEEEF8D981C8956A6 PUSH2 0x1421 DUP2 PUSH2 0x1E5B JUMP JUMPDEST PUSH1 0x0 DUP5 MLOAD GT PUSH2 0x1465 JUMPI PUSH1 0x40 MLOAD PUSH32 0x8C379A000000000000000000000000000000000000000000000000000000000 DUP2 MSTORE PUSH1 0x4 ADD PUSH2 0x145C SWAP1 PUSH2 0x4DDD JUMP JUMPDEST PUSH1 0x40 MLOAD DUP1 SWAP2 SUB SWAP1 REVERT JUMPDEST PUSH1 0x7 PUSH1 0x0 DUP5 DUP2 MSTORE PUSH1 0x20 ADD SWAP1 DUP2 MSTORE PUSH1 0x20 ADD PUSH1 0x0 KECCAK256 PUSH1 0x4 ADD PUSH1 0x0 SWAP1 SLOAD SWAP1 PUSH2 0x100 EXP SWAP1 DIV PUSH1 0xFF AND PUSH2 0x14C8 JUMPI PUSH1 0x40 MLOAD PUSH32 0x8C379A000000000000000000000000000000000000000000000000000000000 DUP2 MSTORE PUSH1 0x4 ADD PUSH2 0x14BF SWAP1 PUSH2 0x4224 JUMP JUMPDEST PUSH1 0x40 MLOAD DUP1 SWAP2 SUB SWAP1 REVERT JUMPDEST PUSH1 0x0 TIMESTAMP SWAP1 POP PUSH1 0x0 PUSH1 0x7 PUSH1 0x0 DUP7 DUP2 MSTORE PUSH1 0x20 ADD SWAP1 DUP2 MSTORE PUSH1 0x20 ADD PUSH1 0x0 KECCAK256 PUSH1 0x3 ADD SLOAD DUP3 PUSH2 0x14F1 SWAP2 SWAP1 PUSH2 0x4C88 JUMP JUMPDEST SWAP1 POP PUSH1 0x0 JUMPDEST DUP7 MLOAD DUP2 LT ISZERO PUSH2 0x164E JUMPI PUSH1 0x0 DUP8 DUP3 DUP2 MLOAD DUP2 LT PUSH2 0x1514 JUMPI PUSH2 0x1513 PUSH2 0x4D1D JUMP JUMPDEST JUMPDEST PUSH1 0x20 MUL PUSH1 0x20 ADD ADD MLOAD SWAP1 POP PUSH1 0x0 PUSH20 0xFFFFFFFFFFFFFFFFFFFFFFFFFFFFFFFFFFFFFFFF AND DUP2 PUSH20 0xFFFFFFFFFFFFFFFFFFFFFFFFFFFFFFFFFFFFFFFF AND SUB PUSH2 0x158D JUMPI PUSH1 0x40 MLOAD PUSH32 0x8C379A000000000000000000000000000000000000000000000000000000000 DUP2 MSTORE PUSH1 0x4 ADD PUSH2 0x1584 SWAP1 PUSH2 0x4E49 JUMP JUMPDEST PUSH1 0x40 MLOAD DUP1 SWAP2 SUB SWAP1 REVERT JUMPDEST DUP4 PUSH1 0x8 PUSH1 0x0 DUP10 DUP2 MSTORE PUSH1 0x20 ADD SWAP1 DUP2 MSTORE PUSH1 0x20 ADD PUSH1 0x0 KECCAK256 PUSH1 0x0 DUP4 PUSH20 0xFFFFFFFFFFFFFFFFFFFFFFFFFFFFFFFFFFFFFFFF AND PUSH20 0xFFFFFFFFFFFFFFFFFFFFFFFFFFFFFFFFFFFFFFFF AND DUP2 MSTORE PUSH1 0x20 ADD SWAP1 DUP2 MSTORE PUSH1 0x20 ADD PUSH1 0x0 KECCAK256 DUP2 SWAP1 SSTORE POP PUSH2 0x15EF DUP2 DUP9 PUSH1 0x1 DUP10 PUSH2 0x217C JUMP JUMPDEST DUP7 DUP2 PUSH20 0xFFFFFFFFFFFFFFFFFFFFFFFFFFFFFFFFFFFFFFFF AND PUSH32 0x68D1CB491F47403F44E44C4D83D2A2D3DB46E6F9FE2400782FE7D1AF35029242 DUP7 DUP7 PUSH1 0x40 MLOAD PUSH2 0x1638 SWAP3 SWAP2 SWAP1 PUSH2 0x4CF4 JUMP JUMPDEST PUSH1 0x40 MLOAD DUP1 SWAP2 SUB SWAP1 LOG3 POP DUP1 DUP1 PUSH1 0x1 ADD SWAP2 POP POP PUSH2 0x14F6 JUMP JUMPDEST POP POP POP POP POP POP POP JUMP JUMPDEST PUSH1 0x0 DUP1 PUSH1 0x8 PUSH1 0x0 DUP6 DUP2 MSTORE PUSH1 0x20 ADD SWAP1 DUP2 MSTORE PUSH1 0x20 ADD PUSH1 0x0 KECCAK256 PUSH1 0x0 DUP5 PUSH20 0xFFFFFFFFFFFFFFFFFFFFFFFFFFFFFFFFFFFFFFFF AND PUSH20 0xFFFFFFFFFFFFFFFFFFFFFFFFFFFFFFFFFFFFFFFF AND DUP2 MSTORE PUSH1 0x20 ADD SWAP1 DUP2 MSTORE PUSH1 0x20 ADD PUSH1 0x0 KECCAK256 SLOAD SWAP1 POP PUSH1 0x0 DUP2 SUB PUSH2 0x16BF JUMPI PUSH1 0x0 SWAP2 POP POP PUSH2 0x16E5 JUMP JUMPDEST PUSH1 0x7 PUSH1 0x0 DUP6 DUP2 MSTORE PUSH1 0x20 ADD SWAP1 DUP2 MSTORE PUSH1 0x20 ADD PUSH1 0x0 KECCAK256 PUSH1 0x3 ADD SLOAD DUP2 PUSH2 0x16E1 SWAP2 SWAP1 PUSH2 0x4C88 JUMP JUMPDEST SWAP2 POP POP JUMPDEST SWAP3 SWAP2 POP POP JUMP JUMPDEST PUSH32 0x9F2DF0FED2C77648DE5860A4CC508CD0818C85B8B8A1AB4CEEEF8D981C8956A6 PUSH2 0x1715 DUP2 PUSH2 0x1E5B JUMP JUMPDEST PUSH1 0x7 PUSH1 0x0 DUP5 DUP2 MSTORE PUSH1 0x20 ADD SWAP1 DUP2 MSTORE PUSH1 0x20 ADD PUSH1 0x0 KECCAK256 PUSH1 0x4 ADD PUSH1 0x0 SWAP1 SLOAD SWAP1 PUSH2 0x100 EXP SWAP1 DIV PUSH1 0xFF AND PUSH2 0x1778 JUMPI PUSH1 0x40 MLOAD PUSH32 0x8C379A000000000000000000000000000000000000000000000000000000000 DUP2 MSTORE PUSH1 0x4 ADD PUSH2 0x176F SWAP1 PUSH2 0x4224 JUMP JUMPDEST PUSH1 0x40 MLOAD DUP1 SWAP2 SUB SWAP1 REVERT JUMPDEST PUSH1 0x0 PUSH20 0xFFFFFFFFFFFFFFFFFFFFFFFFFFFFFFFFFFFFFFFF AND DUP5 PUSH20 0xFFFFFFFFFFFFFFFFFFFFFFFFFFFFFFFFFFFFFFFF AND SUB PUSH2 0x17E7 JUMPI PUSH1 0x40 MLOAD PUSH32 0x8C379A000000000000000000000000000000000000000000000000000000000 DUP2 MSTORE PUSH1 0x4 ADD PUSH2 0x17DE SWAP1 PUSH2 0x4E49 JUMP JUMPDEST PUSH1 0x40 MLOAD DUP1 SWAP2 SUB SWAP1 REVERT JUMPDEST TIMESTAMP PUSH1 0x8 PUSH1 0x0 DUP6 DUP2 MSTORE PUSH1 0x20 ADD SWAP1 DUP2 MSTORE PUSH1 0x20 ADD PUSH1 0x0 KECCAK256 PUSH1 0x0 DUP7 PUSH20 0xFFFFFFFFFFFFFFFFFFFFFFFFFFFFFFFFFFFFFFFF AND PUSH20 0xFFFFFFFFFFFFFFFFFFFFFFFFFFFFFFFFFFFFFFFF AND DUP2 MSTORE PUSH1 0x20 ADD SWAP1 DUP2 MSTORE PUSH1 0x20 ADD PUSH1 0x0 KECCAK256 DUP2 SWAP1 SSTORE POP PUSH1 0x0 PUSH1 0x7 PUSH1 0x0 DUP6 DUP2 MSTORE PUSH1 0x20 ADD SWAP1 DUP2 MSTORE PUSH1 0x20 ADD PUSH1 0x0 KECCAK256 PUSH1 0x3 ADD SLOAD TIMESTAMP PUSH2 0x1860 SWAP2 SWAP1 PUSH2 0x4C88 JUMP JUMPDEST SWAP1 POP PUSH2 0x186F DUP6 DUP6 PUSH1 0x1 DUP7 PUSH2 0x217C JUMP JUMPDEST DUP4 DUP6 PUSH20 0xFFFFFFFFFFFFFFFFFFFFFFFFFFFFFFFFFFFFFFFF AND PUSH32 0x68D1CB491F47403F44E44C4D83D2A2D3DB46E6F9FE2400782FE7D1AF35029242 TIMESTAMP DUP5 PUSH1 0x40 MLOAD PUSH2 0x18B8 SWAP3 SWAP2 SWAP1 PUSH2 0x4CF4 JUMP JUMPDEST PUSH1 0x40 MLOAD DUP1 SWAP2 SUB SWAP1 LOG3 POP POP POP POP POP JUMP JUMPDEST PUSH1 0x0 DUP1 SHL DUP2 JUMP JUMPDEST PUSH2 0x18E0 PUSH2 0x18D9 PUSH2 0x1E6F JUMP JUMPDEST DUP4 DUP4 PUSH2 0x2215 JUMP JUMPDEST POP POP JUMP JUMPDEST PUSH1 0x0 PUSH1 0x8 PUSH1 0x0 DUP5 DUP2 MSTORE PUSH1 0x20 ADD SWAP1 DUP2 MSTORE PUSH1 0x20 ADD PUSH1 0x0 KECCAK256 PUSH1 0x0 DUP4 PUSH20 0xFFFFFFFFFFFFFFFFFFFFFFFFFFFFFFFFFFFFFFFF AND PUSH20 0xFFFFFFFFFFFFFFFFFFFFFFFFFFFFFFFFFFFFFFFF AND DUP2 MSTORE PUSH1 0x20 ADD SWAP1 DUP2 MSTORE PUSH1 0x20 ADD PUSH1 0x0 KECCAK256 SLOAD SWAP1 POP SWAP3 SWAP2 POP POP JUMP JUMPDEST PUSH1 0x0 PUSH1 0x3 PUSH1 0x0 DUP4 DUP2 MSTORE PUSH1 0x20 ADD SWAP1 DUP2 MSTORE PUSH1 0x20 ADD PUSH1 0x0 KECCAK256 SLOAD SWAP1 POP SWAP2 SWAP1 POP JUMP JUMPDEST PUSH1 0x0 PUSH1 0x1 PUSH1 0x6 SLOAD PUSH2 0x196D SWAP2 SWAP1 PUSH2 0x4E69 JUMP JUMPDEST SWAP1 POP SWAP1 JUMP JUMPDEST PUSH32 0x9F2DF0FED2C77648DE5860A4CC508CD0818C85B8B8A1AB4CEEEF8D981C8956A6 DUP2 JUMP JUMPDEST PUSH2 0x199F DUP3 PUSH2 0xE73 JUMP JUMPDEST PUSH2 0x19A8 DUP2 PUSH2 0x1E5B JUMP JUMPDEST PUSH2 0x19B2 DUP4 DUP4 PUSH2 0x2061 JUMP JUMPDEST POP POP POP POP JUMP JUMPDEST PUSH1 0x60 PUSH1 0x0 DUP3 MLOAD GT PUSH2 0x19FE JUMPI PUSH1 0x40 MLOAD PUSH32 0x8C379A000000000000000000000000000000000000000000000000000000000 DUP2 MSTORE PUSH1 0x4 ADD PUSH2 0x19F5 SWAP1 PUSH2 0x4EE9 JUMP JUMPDEST PUSH1 0x40 MLOAD DUP1 SWAP2 SUB SWAP1 REVERT JUMPDEST PUSH1 0x0 DUP3 MLOAD PUSH8 0xFFFFFFFFFFFFFFFF DUP2 GT ISZERO PUSH2 0x1A1B JUMPI PUSH2 0x1A1A PUSH2 0x3698 JUMP JUMPDEST JUMPDEST PUSH1 0x40 MLOAD SWAP1 DUP1 DUP3 MSTORE DUP1 PUSH1 0x20 MUL PUSH1 0x20 ADD DUP3 ADD PUSH1 0x40 MSTORE DUP1 ISZERO PUSH2 0x1A49 JUMPI DUP2 PUSH1 0x20 ADD PUSH1 0x20 DUP3 MUL DUP1 CALLDATASIZE DUP4 CALLDATACOPY DUP1 DUP3 ADD SWAP2 POP POP SWAP1 POP JUMPDEST POP SWAP1 POP PUSH1 0x0 JUMPDEST DUP4 MLOAD DUP2 LT ISZERO PUSH2 0x1B9F JUMPI PUSH1 0x0 DUP5 DUP3 DUP2 MLOAD DUP2 LT PUSH2 0x1A6D JUMPI PUSH2 0x1A6C PUSH2 0x4D1D JUMP JUMPDEST JUMPDEST PUSH1 0x20 MUL PUSH1 0x20 ADD ADD MLOAD SWAP1 POP PUSH1 0x0 PUSH2 0x1A83 DUP3 DUP9 PUSH2 0x60C JUMP JUMPDEST SUB PUSH2 0x1AB5 JUMPI PUSH1 0x0 DUP4 DUP4 DUP2 MLOAD DUP2 LT PUSH2 0x1A9D JUMPI PUSH2 0x1A9C PUSH2 0x4D1D JUMP JUMPDEST JUMPDEST PUSH1 0x20 MUL PUSH1 0x20 ADD ADD SWAP1 ISZERO ISZERO SWAP1 DUP2 ISZERO ISZERO DUP2 MSTORE POP POP POP PUSH2 0x1B92 JUMP JUMPDEST PUSH1 0x0 PUSH1 0x8 PUSH1 0x0 DUP9 DUP2 MSTORE PUSH1 0x20 ADD SWAP1 DUP2 MSTORE PUSH1 0x20 ADD PUSH1 0x0 KECCAK256 PUSH1 0x0 DUP4 PUSH20 0xFFFFFFFFFFFFFFFFFFFFFFFFFFFFFFFFFFFFFFFF AND PUSH20 0xFFFFFFFFFFFFFFFFFFFFFFFFFFFFFFFFFFFFFFFF AND DUP2 MSTORE PUSH1 0x20 ADD SWAP1 DUP2 MSTORE PUSH1 0x20 ADD PUSH1 0x0 KECCAK256 SLOAD SWAP1 POP PUSH1 0x0 DUP2 SUB PUSH2 0x1B40 JUMPI PUSH1 0x0 DUP5 DUP5 DUP2 MLOAD DUP2 LT PUSH2 0x1B27 JUMPI PUSH2 0x1B26 PUSH2 0x4D1D JUMP JUMPDEST JUMPDEST PUSH1 0x20 MUL PUSH1 0x20 ADD ADD SWAP1 ISZERO ISZERO SWAP1 DUP2 ISZERO ISZERO DUP2 MSTORE POP POP POP POP PUSH2 0x1B92 JUMP JUMPDEST PUSH1 0x0 PUSH1 0x7 PUSH1 0x0 DUP10 DUP2 MSTORE PUSH1 0x20 ADD SWAP1 DUP2 MSTORE PUSH1 0x20 ADD PUSH1 0x0 KECCAK256 PUSH1 0x3 ADD SLOAD DUP3 PUSH2 0x1B64 SWAP2 SWAP1 PUSH2 0x4C88 JUMP JUMPDEST SWAP1 POP DUP1 TIMESTAMP LT DUP6 DUP6 DUP2 MLOAD DUP2 LT PUSH2 0x1B7C JUMPI PUSH2 0x1B7B PUSH2 0x4D1D JUMP JUMPDEST JUMPDEST PUSH1 0x20 MUL PUSH1 0x20 ADD ADD SWAP1 ISZERO ISZERO SWAP1 DUP2 ISZERO ISZERO DUP2 MSTORE POP POP POP POP POP JUMPDEST DUP1 DUP1 PUSH1 0x1 ADD SWAP2 POP POP PUSH2 0x1A4F JUMP JUMPDEST POP DUP1 SWAP2 POP POP SWAP3 SWAP2 POP POP JUMP JUMPDEST PUSH1 0x0 PUSH1 0x1 PUSH1 0x0 DUP5 PUSH20 0xFFFFFFFFFFFFFFFFFFFFFFFFFFFFFFFFFFFFFFFF AND PUSH20 0xFFFFFFFFFFFFFFFFFFFFFFFFFFFFFFFFFFFFFFFF AND DUP2 MSTORE PUSH1 0x20 ADD SWAP1 DUP2 MSTORE PUSH1 0x20 ADD PUSH1 0x0 KECCAK256 PUSH1 0x0 DUP4 PUSH20 0xFFFFFFFFFFFFFFFFFFFFFFFFFFFFFFFFFFFFFFFF AND PUSH20 0xFFFFFFFFFFFFFFFFFFFFFFFFFFFFFFFFFFFFFFFF AND DUP2 MSTORE PUSH1 0x20 ADD SWAP1 DUP2 MSTORE PUSH1 0x20 ADD PUSH1 0x0 KECCAK256 PUSH1 0x0 SWAP1 SLOAD SWAP1 PUSH2 0x100 EXP SWAP1 DIV PUSH1 0xFF AND SWAP1 POP SWAP3 SWAP2 POP POP JUMP JUMPDEST PUSH1 0x0 PUSH2 0x1C48 PUSH2 0x1E6F JUMP JUMPDEST SWAP1 POP DUP1 PUSH20 0xFFFFFFFFFFFFFFFFFFFFFFFFFFFFFFFFFFFFFFFF AND DUP7 PUSH20 0xFFFFFFFFFFFFFFFFFFFFFFFFFFFFFFFFFFFFFFFF AND EQ ISZERO DUP1 ISZERO PUSH2 0x1C8D JUMPI POP PUSH2 0x1C8B DUP7 DUP3 PUSH2 0x1BAA JUMP JUMPDEST ISZERO JUMPDEST ISZERO PUSH2 0x1CD1 JUMPI DUP1 DUP7 PUSH1 0x40 MLOAD PUSH32 0xE237D92200000000000000000000000000000000000000000000000000000000 DUP2 MSTORE PUSH1 0x4 ADD PUSH2 0x1CC8 SWAP3 SWAP2 SWAP1 PUSH2 0x4CCB JUMP JUMPDEST PUSH1 0x40 MLOAD DUP1 SWAP2 SUB SWAP1 REVERT JUMPDEST PUSH2 0x1CDE DUP7 DUP7 DUP7 DUP7 DUP7 PUSH2 0x2385 JUMP JUMPDEST POP POP POP POP POP POP JUMP JUMPDEST PUSH1 0x0 PUSH32 0x7965DB0B00000000000000000000000000000000000000000000000000000000 PUSH28 0xFFFFFFFFFFFFFFFFFFFFFFFFFFFFFFFFFFFFFFFFFFFFFFFFFFFFFFFF NOT AND DUP3 PUSH28 0xFFFFFFFFFFFFFFFFFFFFFFFFFFFFFFFFFFFFFFFFFFFFFFFFFFFFFFFF NOT AND EQ DUP1 PUSH2 0x1D59 JUMPI POP PUSH2 0x1D58 DUP3 PUSH2 0x2490 JUMP JUMPDEST JUMPDEST SWAP1 POP SWAP2 SWAP1 POP JUMP JUMPDEST PUSH1 0x60 PUSH1 0x0 PUSH1 0x1 PUSH2 0x1D6F DUP5 PUSH2 0x2572 JUMP JUMPDEST ADD SWAP1 POP PUSH1 0x0 DUP2 PUSH8 0xFFFFFFFFFFFFFFFF DUP2 GT ISZERO PUSH2 0x1D8E JUMPI PUSH2 0x1D8D PUSH2 0x3698 JUMP JUMPDEST JUMPDEST PUSH1 0x40 MLOAD SWAP1 DUP1 DUP3 MSTORE DUP1 PUSH1 0x1F ADD PUSH1 0x1F NOT AND PUSH1 0x20 ADD DUP3 ADD PUSH1 0x40 MSTORE DUP1 ISZERO PUSH2 0x1DC0 JUMPI DUP2 PUSH1 0x20 ADD PUSH1 0x1 DUP3 MUL DUP1 CALLDATASIZE DUP4 CALLDATACOPY DUP1 DUP3 ADD SWAP2 POP POP SWAP1 POP JUMPDEST POP SWAP1 POP PUSH1 0x0 DUP3 PUSH1 0x20 DUP4 ADD ADD SWAP1 POP JUMPDEST PUSH1 0x1 ISZERO PUSH2 0x1E23 JUMPI DUP1 DUP1 PUSH1 0x1 SWAP1 SUB SWAP2 POP POP PUSH32 0x3031323334353637383961626364656600000000000000000000000000000000 PUSH1 0xA DUP7 MOD BYTE DUP2 MSTORE8 PUSH1 0xA DUP6 DUP2 PUSH2 0x1E17 JUMPI PUSH2 0x1E16 PUSH2 0x4F09 JUMP JUMPDEST JUMPDEST DIV SWAP5 POP PUSH1 0x0 DUP6 SUB PUSH2 0x1DCE JUMPI JUMPDEST DUP2 SWAP4 POP POP POP POP SWAP2 SWAP1 POP JUMP JUMPDEST PUSH1 0x60 PUSH2 0x1E54 DUP3 PUSH1 0x40 MLOAD DUP1 PUSH1 0x60 ADD PUSH1 0x40 MSTORE DUP1 PUSH1 0x40 DUP2 MSTORE PUSH1 0x20 ADD PUSH2 0x51C5 PUSH1 0x40 SWAP2 CODECOPY PUSH1 0x1 PUSH2 0x26C5 JUMP JUMPDEST SWAP1 POP SWAP2 SWAP1 POP JUMP JUMPDEST PUSH2 0x1E6C DUP2 PUSH2 0x1E67 PUSH2 0x1E6F JUMP JUMPDEST PUSH2 0x2859 JUMP JUMPDEST POP JUMP JUMPDEST PUSH1 0x0 CALLER SWAP1 POP SWAP1 JUMP JUMPDEST PUSH1 0x0 PUSH20 0xFFFFFFFFFFFFFFFFFFFFFFFFFFFFFFFFFFFFFFFF AND DUP5 PUSH20 0xFFFFFFFFFFFFFFFFFFFFFFFFFFFFFFFFFFFFFFFF AND SUB PUSH2 0x1EE9 JUMPI PUSH1 0x0 PUSH1 0x40 MLOAD PUSH32 0x57F447CE00000000000000000000000000000000000000000000000000000000 DUP2 MSTORE PUSH1 0x4 ADD PUSH2 0x1EE0 SWAP2 SWAP1 PUSH2 0x4F38 JUMP JUMPDEST PUSH1 0x40 MLOAD DUP1 SWAP2 SUB SWAP1 REVERT JUMPDEST PUSH1 0x0 PUSH20 0xFFFFFFFFFFFFFFFFFFFFFFFFFFFFFFFFFFFFFFFF AND DUP6 PUSH20 0xFFFFFFFFFFFFFFFFFFFFFFFFFFFFFFFFFFFFFFFF AND SUB PUSH2 0x1F5B JUMPI PUSH1 0x0 PUSH1 0x40 MLOAD PUSH32 0x1A8351400000000000000000000000000000000000000000000000000000000 DUP2 MSTORE PUSH1 0x4 ADD PUSH2 0x1F52 SWAP2 SWAP1 PUSH2 0x4F38 JUMP JUMPDEST PUSH1 0x40 MLOAD DUP1 SWAP2 SUB SWAP1 REVERT JUMPDEST PUSH2 0x1F68 DUP6 DUP6 DUP6 DUP6 DUP6 PUSH2 0x28AA JUMP JUMPDEST POP POP POP POP POP JUMP JUMPDEST PUSH1 0x0 PUSH2 0x1F7B DUP4 DUP4 PUSH2 0x138C JUMP JUMPDEST PUSH2 0x2056 JUMPI PUSH1 0x1 PUSH1 0x5 PUSH1 0x0 DUP6 DUP2 MSTORE PUSH1 0x20 ADD SWAP1 DUP2 MSTORE PUSH1 0x20 ADD PUSH1 0x0 KECCAK256 PUSH1 0x0 ADD PUSH1 0x0 DUP5 PUSH20 0xFFFFFFFFFFFFFFFFFFFFFFFFFFFFFFFFFFFFFFFF AND PUSH20 0xFFFFFFFFFFFFFFFFFFFFFFFFFFFFFFFFFFFFFFFF AND DUP2 MSTORE PUSH1 0x20 ADD SWAP1 DUP2 MSTORE PUSH1 0x20 ADD PUSH1 0x0 KECCAK256 PUSH1 0x0 PUSH2 0x100 EXP DUP2 SLOAD DUP2 PUSH1 0xFF MUL NOT AND SWAP1 DUP4 ISZERO ISZERO MUL OR SWAP1 SSTORE POP PUSH2 0x1FF3 PUSH2 0x1E6F JUMP JUMPDEST PUSH20 0xFFFFFFFFFFFFFFFFFFFFFFFFFFFFFFFFFFFFFFFF AND DUP3 PUSH20 0xFFFFFFFFFFFFFFFFFFFFFFFFFFFFFFFFFFFFFFFF AND DUP5 PUSH32 0x2F8788117E7EFF1D82E926EC794901D17C78024A50270940304540A733656F0D PUSH1 0x40 MLOAD PUSH1 0x40 MLOAD DUP1 SWAP2 SUB SWAP1 LOG4 PUSH1 0x1 SWAP1 POP PUSH2 0x205B JUMP JUMPDEST PUSH1 0x0 SWAP1 POP JUMPDEST SWAP3 SWAP2 POP POP JUMP JUMPDEST PUSH1 0x0 PUSH2 0x206D DUP4 DUP4 PUSH2 0x138C JUMP JUMPDEST ISZERO PUSH2 0x2149 JUMPI PUSH1 0x0 PUSH1 0x5 PUSH1 0x0 DUP6 DUP2 MSTORE PUSH1 0x20 ADD SWAP1 DUP2 MSTORE PUSH1 0x20 ADD PUSH1 0x0 KECCAK256 PUSH1 0x0 ADD PUSH1 0x0 DUP5 PUSH20 0xFFFFFFFFFFFFFFFFFFFFFFFFFFFFFFFFFFFFFFFF AND PUSH20 0xFFFFFFFFFFFFFFFFFFFFFFFFFFFFFFFFFFFFFFFF AND DUP2 MSTORE PUSH1 0x20 ADD SWAP1 DUP2 MSTORE PUSH1 0x20 ADD PUSH1 0x0 KECCAK256 PUSH1 0x0 PUSH2 0x100 EXP DUP2 SLOAD DUP2 PUSH1 0xFF MUL NOT AND SWAP1 DUP4 ISZERO ISZERO MUL OR SWAP1 SSTORE POP PUSH2 0x20E6 PUSH2 0x1E6F JUMP JUMPDEST PUSH20 0xFFFFFFFFFFFFFFFFFFFFFFFFFFFFFFFFFFFFFFFF AND DUP3 PUSH20 0xFFFFFFFFFFFFFFFFFFFFFFFFFFFFFFFFFFFFFFFF AND DUP5 PUSH32 0xF6391F5C32D9C69D2A47EA670B442974B53935D1EDC7FD64EB21E047A839171B PUSH1 0x40 MLOAD PUSH1 0x40 MLOAD DUP1 SWAP2 SUB SWAP1 LOG4 PUSH1 0x1 SWAP1 POP PUSH2 0x214E JUMP JUMPDEST PUSH1 0x0 SWAP1 POP JUMPDEST SWAP3 SWAP2 POP POP JUMP JUMPDEST PUSH1 0x0 PUSH1 0x20 DUP3 MUL PUSH1 0x20 DUP5 ADD ADD MLOAD SWAP1 POP SWAP3 SWAP2 POP POP JUMP JUMPDEST PUSH1 0x0 PUSH1 0x20 DUP3 MUL PUSH1 0x20 DUP5 ADD ADD MLOAD SWAP1 POP SWAP3 SWAP2 POP POP JUMP JUMPDEST PUSH1 0x0 PUSH20 0xFFFFFFFFFFFFFFFFFFFFFFFFFFFFFFFFFFFFFFFF AND DUP5 PUSH20 0xFFFFFFFFFFFFFFFFFFFFFFFFFFFFFFFFFFFFFFFF AND SUB PUSH2 0x21EE JUMPI PUSH1 0x0 PUSH1 0x40 MLOAD PUSH32 0x57F447CE00000000000000000000000000000000000000000000000000000000 DUP2 MSTORE PUSH1 0x4 ADD PUSH2 0x21E5 SWAP2 SWAP1 PUSH2 0x4F38 JUMP JUMPDEST PUSH1 0x40 MLOAD DUP1 SWAP2 SUB SWAP1 REVERT JUMPDEST PUSH1 0x0 DUP1 PUSH2 0x21FB DUP6 DUP6 PUSH2 0x295C JUMP JUMPDEST SWAP2 POP SWAP2 POP PUSH2 0x220D PUSH1 0x0 DUP8 DUP5 DUP5 DUP8 PUSH2 0x28AA JUMP JUMPDEST POP POP POP POP POP POP JUMP JUMPDEST PUSH1 0x0 PUSH20 0xFFFFFFFFFFFFFFFFFFFFFFFFFFFFFFFFFFFFFFFF AND DUP3 PUSH20 0xFFFFFFFFFFFFFFFFFFFFFFFFFFFFFFFFFFFFFFFF AND SUB PUSH2 0x2287 JUMPI PUSH1 0x0 PUSH1 0x40 MLOAD PUSH32 0xCED3E10000000000000000000000000000000000000000000000000000000000 DUP2 MSTORE PUSH1 0x4 ADD PUSH2 0x227E SWAP2 SWAP1 PUSH2 0x4F38 JUMP JUMPDEST PUSH1 0x40 MLOAD DUP1 SWAP2 SUB SWAP1 REVERT JUMPDEST DUP1 PUSH1 0x1 PUSH1 0x0 DUP6 PUSH20 0xFFFFFFFFFFFFFFFFFFFFFFFFFFFFFFFFFFFFFFFF AND PUSH20 0xFFFFFFFFFFFFFFFFFFFFFFFFFFFFFFFFFFFFFFFF AND DUP2 MSTORE PUSH1 0x20 ADD SWAP1 DUP2 MSTORE PUSH1 0x20 ADD PUSH1 0x0 KECCAK256 PUSH1 0x0 DUP5 PUSH20 0xFFFFFFFFFFFFFFFFFFFFFFFFFFFFFFFFFFFFFFFF AND PUSH20 0xFFFFFFFFFFFFFFFFFFFFFFFFFFFFFFFFFFFFFFFF AND DUP2 MSTORE PUSH1 0x20 ADD SWAP1 DUP2 MSTORE PUSH1 0x20 ADD PUSH1 0x0 KECCAK256 PUSH1 0x0 PUSH2 0x100 EXP DUP2 SLOAD DUP2 PUSH1 0xFF MUL NOT AND SWAP1 DUP4 ISZERO ISZERO MUL OR SWAP1 SSTORE POP DUP2 PUSH20 0xFFFFFFFFFFFFFFFFFFFFFFFFFFFFFFFFFFFFFFFF AND DUP4 PUSH20 0xFFFFFFFFFFFFFFFFFFFFFFFFFFFFFFFFFFFFFFFF AND PUSH32 0x17307EAB39AB6107E8899845AD3D59BD9653F200F220920489CA2B5937696C31 DUP4 PUSH1 0x40 MLOAD PUSH2 0x2378 SWAP2 SWAP1 PUSH2 0x3486 JUMP JUMPDEST PUSH1 0x40 MLOAD DUP1 SWAP2 SUB SWAP1 LOG3 POP POP POP JUMP JUMPDEST PUSH1 0x0 PUSH20 0xFFFFFFFFFFFFFFFFFFFFFFFFFFFFFFFFFFFFFFFF AND DUP5 PUSH20 0xFFFFFFFFFFFFFFFFFFFFFFFFFFFFFFFFFFFFFFFF AND SUB PUSH2 0x23F7 JUMPI PUSH1 0x0 PUSH1 0x40 MLOAD PUSH32 0x57F447CE00000000000000000000000000000000000000000000000000000000 DUP2 MSTORE PUSH1 0x4 ADD PUSH2 0x23EE SWAP2 SWAP1 PUSH2 0x4F38 JUMP JUMPDEST PUSH1 0x40 MLOAD DUP1 SWAP2 SUB SWAP1 REVERT JUMPDEST PUSH1 0x0 PUSH20 0xFFFFFFFFFFFFFFFFFFFFFFFFFFFFFFFFFFFFFFFF AND DUP6 PUSH20 0xFFFFFFFFFFFFFFFFFFFFFFFFFFFFFFFFFFFFFFFF AND SUB PUSH2 0x2469 JUMPI PUSH1 0x0 PUSH1 0x40 MLOAD PUSH32 0x1A8351400000000000000000000000000000000000000000000000000000000 DUP2 MSTORE PUSH1 0x4 ADD PUSH2 0x2460 SWAP2 SWAP1 PUSH2 0x4F38 JUMP JUMPDEST PUSH1 0x40 MLOAD DUP1 SWAP2 SUB SWAP1 REVERT JUMPDEST PUSH1 0x0 DUP1 PUSH2 0x2476 DUP6 DUP6 PUSH2 0x295C JUMP JUMPDEST SWAP2 POP SWAP2 POP PUSH2 0x2487 DUP8 DUP8 DUP5 DUP5 DUP8 PUSH2 0x28AA JUMP JUMPDEST POP POP POP POP POP POP POP JUMP JUMPDEST PUSH1 0x0 PUSH32 0xD9B67A2600000000000000000000000000000000000000000000000000000000 PUSH28 0xFFFFFFFFFFFFFFFFFFFFFFFFFFFFFFFFFFFFFFFFFFFFFFFFFFFFFFFF NOT AND DUP3 PUSH28 0xFFFFFFFFFFFFFFFFFFFFFFFFFFFFFFFFFFFFFFFFFFFFFFFFFFFFFFFF NOT AND EQ DUP1 PUSH2 0x255B JUMPI POP PUSH32 0xE89341C00000000000000000000000000000000000000000000000000000000 PUSH28 0xFFFFFFFFFFFFFFFFFFFFFFFFFFFFFFFFFFFFFFFFFFFFFFFFFFFFFFFF NOT AND DUP3 PUSH28 0xFFFFFFFFFFFFFFFFFFFFFFFFFFFFFFFFFFFFFFFFFFFFFFFFFFFFFFFF NOT AND EQ JUMPDEST DUP1 PUSH2 0x256B JUMPI POP PUSH2 0x256A DUP3 PUSH2 0x298C JUMP JUMPDEST JUMPDEST SWAP1 POP SWAP2 SWAP1 POP JUMP JUMPDEST PUSH1 0x0 DUP1 PUSH1 0x0 SWAP1 POP PUSH27 0x184F03E93FF9F4DAA797ED6E38ED64BF6A1F010000000000000000 DUP4 LT PUSH2 0x25D0 JUMPI PUSH27 0x184F03E93FF9F4DAA797ED6E38ED64BF6A1F010000000000000000 DUP4 DUP2 PUSH2 0x25C6 JUMPI PUSH2 0x25C5 PUSH2 0x4F09 JUMP JUMPDEST JUMPDEST DIV SWAP3 POP PUSH1 0x40 DUP2 ADD SWAP1 POP JUMPDEST PUSH14 0x4EE2D6D415B85ACEF8100000000 DUP4 LT PUSH2 0x260D JUMPI PUSH14 0x4EE2D6D415B85ACEF8100000000 DUP4 DUP2 PUSH2 0x2603 JUMPI PUSH2 0x2602 PUSH2 0x4F09 JUMP JUMPDEST JUMPDEST DIV SWAP3 POP PUSH1 0x20 DUP2 ADD SWAP1 POP JUMPDEST PUSH7 0x2386F26FC10000 DUP4 LT PUSH2 0x263C JUMPI PUSH7 0x2386F26FC10000 DUP4 DUP2 PUSH2 0x2632 JUMPI PUSH2 0x2631 PUSH2 0x4F09 JUMP JUMPDEST JUMPDEST DIV SWAP3 POP PUSH1 0x10 DUP2 ADD SWAP1 POP JUMPDEST PUSH4 0x5F5E100 DUP4 LT PUSH2 0x2665 JUMPI PUSH4 0x5F5E100 DUP4 DUP2 PUSH2 0x265B JUMPI PUSH2 0x265A PUSH2 0x4F09 JUMP JUMPDEST JUMPDEST DIV SWAP3 POP PUSH1 0x8 DUP2 ADD SWAP1 POP JUMPDEST PUSH2 0x2710 DUP4 LT PUSH2 0x268A JUMPI PUSH2 0x2710 DUP4 DUP2 PUSH2 0x2680 JUMPI PUSH2 0x267F PUSH2 0x4F09 JUMP JUMPDEST JUMPDEST DIV SWAP3 POP PUSH1 0x4 DUP2 ADD SWAP1 POP JUMPDEST PUSH1 0x64 DUP4 LT PUSH2 0x26AD JUMPI PUSH1 0x64 DUP4 DUP2 PUSH2 0x26A3 JUMPI PUSH2 0x26A2 PUSH2 0x4F09 JUMP JUMPDEST JUMPDEST DIV SWAP3 POP PUSH1 0x2 DUP2 ADD SWAP1 POP JUMPDEST PUSH1 0xA DUP4 LT PUSH2 0x26BC JUMPI PUSH1 0x1 DUP2 ADD SWAP1 POP JUMPDEST DUP1 SWAP2 POP POP SWAP2 SWAP1 POP JUMP JUMPDEST PUSH1 0x60 PUSH1 0x0 DUP5 MLOAD SUB PUSH2 0x26E7 JUMPI PUSH1 0x40 MLOAD DUP1 PUSH1 0x20 ADD PUSH1 0x40 MSTORE DUP1 PUSH1 0x0 DUP2 MSTORE POP SWAP1 POP PUSH2 0x2852 JUMP JUMPDEST PUSH1 0x0 DUP3 PUSH2 0x2719 JUMPI PUSH1 0x3 PUSH1 0x2 DUP7 MLOAD PUSH1 0x4 PUSH2 0x2700 SWAP2 SWAP1 PUSH2 0x4F53 JUMP JUMPDEST PUSH2 0x270A SWAP2 SWAP1 PUSH2 0x4C88 JUMP JUMPDEST PUSH2 0x2714 SWAP2 SWAP1 PUSH2 0x4F95 JUMP JUMPDEST PUSH2 0x2740 JUMP JUMPDEST PUSH1 0x3 PUSH1 0x2 DUP7 MLOAD PUSH2 0x2729 SWAP2 SWAP1 PUSH2 0x4C88 JUMP JUMPDEST PUSH2 0x2733 SWAP2 SWAP1 PUSH2 0x4F95 JUMP JUMPDEST PUSH1 0x4 PUSH2 0x273F SWAP2 SWAP1 PUSH2 0x4F53 JUMP JUMPDEST JUMPDEST SWAP1 POP PUSH1 0x0 DUP2 PUSH8 0xFFFFFFFFFFFFFFFF DUP2 GT ISZERO PUSH2 0x275E JUMPI PUSH2 0x275D PUSH2 0x3698 JUMP JUMPDEST JUMPDEST PUSH1 0x40 MLOAD SWAP1 DUP1 DUP3 MSTORE DUP1 PUSH1 0x1F ADD PUSH1 0x1F NOT AND PUSH1 0x20 ADD DUP3 ADD PUSH1 0x40 MSTORE DUP1 ISZERO PUSH2 0x2790 JUMPI DUP2 PUSH1 0x20 ADD PUSH1 0x1 DUP3 MUL DUP1 CALLDATASIZE DUP4 CALLDATACOPY DUP1 DUP3 ADD SWAP2 POP POP SWAP1 POP JUMPDEST POP SWAP1 POP PUSH1 0x1 DUP6 ADD PUSH1 0x20 DUP3 ADD DUP8 DUP9 MLOAD DUP10 ADD PUSH1 0x20 DUP2 ADD DUP1 MLOAD PUSH1 0x0 DUP3 MSTORE JUMPDEST DUP3 DUP5 LT ISZERO PUSH2 0x2806 JUMPI PUSH1 0x3 DUP5 ADD SWAP4 POP DUP4 MLOAD PUSH1 0x3F DUP2 PUSH1 0x12 SHR AND DUP8 ADD MLOAD DUP7 MSTORE8 PUSH1 0x1 DUP7 ADD SWAP6 POP PUSH1 0x3F DUP2 PUSH1 0xC SHR AND DUP8 ADD MLOAD DUP7 MSTORE8 PUSH1 0x1 DUP7 ADD SWAP6 POP PUSH1 0x3F DUP2 PUSH1 0x6 SHR AND DUP8 ADD MLOAD DUP7 MSTORE8 PUSH1 0x1 DUP7 ADD SWAP6 POP PUSH1 0x3F DUP2 AND DUP8 ADD MLOAD DUP7 MSTORE8 PUSH1 0x1 DUP7 ADD SWAP6 POP POP PUSH2 0x27AB JUMP JUMPDEST DUP1 DUP3 MSTORE DUP10 ISZERO PUSH2 0x2846 JUMPI PUSH1 0x3 DUP13 MLOAD MOD PUSH1 0x1 DUP2 EQ PUSH2 0x2829 JUMPI PUSH1 0x2 DUP2 EQ PUSH2 0x283C JUMPI PUSH2 0x2844 JUMP JUMPDEST PUSH1 0x3D PUSH1 0x1 DUP8 SUB MSTORE8 PUSH1 0x3D PUSH1 0x2 DUP8 SUB MSTORE8 PUSH2 0x2844 JUMP JUMPDEST PUSH1 0x3D PUSH1 0x1 DUP8 SUB MSTORE8 JUMPDEST POP JUMPDEST POP POP POP POP POP POP DUP1 SWAP3 POP POP POP JUMPDEST SWAP4 SWAP3 POP POP POP JUMP JUMPDEST PUSH2 0x2863 DUP3 DUP3 PUSH2 0x138C JUMP JUMPDEST PUSH2 0x28A6 JUMPI DUP1 DUP3 PUSH1 0x40 MLOAD PUSH32 0xE2517D3F00000000000000000000000000000000000000000000000000000000 DUP2 MSTORE PUSH1 0x4 ADD PUSH2 0x289D SWAP3 SWAP2 SWAP1 PUSH2 0x4FC6 JUMP JUMPDEST PUSH1 0x40 MLOAD DUP1 SWAP2 SUB SWAP1 REVERT JUMPDEST POP POP JUMP JUMPDEST PUSH2 0x28B6 DUP6 DUP6 DUP6 DUP6 PUSH2 0x29F6 JUMP JUMPDEST PUSH1 0x0 PUSH20 0xFFFFFFFFFFFFFFFFFFFFFFFFFFFFFFFFFFFFFFFF AND DUP5 PUSH20 0xFFFFFFFFFFFFFFFFFFFFFFFFFFFFFFFFFFFFFFFF AND EQ PUSH2 0x2955 JUMPI PUSH1 0x0 PUSH2 0x28F4 PUSH2 0x1E6F JUMP JUMPDEST SWAP1 POP PUSH1 0x1 DUP5 MLOAD SUB PUSH2 0x2944 JUMPI PUSH1 0x0 PUSH2 0x2915 PUSH1 0x0 DUP7 PUSH2 0x2168 SWAP1 SWAP2 SWAP1 PUSH4 0xFFFFFFFF AND JUMP JUMPDEST SWAP1 POP PUSH1 0x0 PUSH2 0x292D PUSH1 0x0 DUP7 PUSH2 0x2168 SWAP1 SWAP2 SWAP1 PUSH4 0xFFFFFFFF AND JUMP JUMPDEST SWAP1 POP PUSH2 0x293D DUP4 DUP10 DUP10 DUP6 DUP6 DUP10 PUSH2 0x2A08 JUMP JUMPDEST POP POP PUSH2 0x2953 JUMP JUMPDEST PUSH2 0x2952 DUP2 DUP8 DUP8 DUP8 DUP8 DUP8 PUSH2 0x2BBC JUMP JUMPDEST JUMPDEST POP JUMPDEST POP POP POP POP POP JUMP JUMPDEST PUSH1 0x60 DUP1 PUSH1 0x40 MLOAD SWAP2 POP PUSH1 0x1 DUP3 MSTORE DUP4 PUSH1 0x20 DUP4 ADD MSTORE PUSH1 0x40 DUP3 ADD SWAP1 POP PUSH1 0x1 DUP2 MSTORE DUP3 PUSH1 0x20 DUP3 ADD MSTORE PUSH1 0x40 DUP2 ADD PUSH1 0x40 MSTORE SWAP3 POP SWAP3 SWAP1 POP JUMP JUMPDEST PUSH1 0x0 PUSH32 0x1FFC9A700000000000000000000000000000000000000000000000000000000 PUSH28 0xFFFFFFFFFFFFFFFFFFFFFFFFFFFFFFFFFFFFFFFFFFFFFFFFFFFFFFFF NOT AND DUP3 PUSH28 0xFFFFFFFFFFFFFFFFFFFFFFFFFFFFFFFFFFFFFFFFFFFFFFFFFFFFFFFF NOT AND EQ SWAP1 POP SWAP2 SWAP1 POP JUMP JUMPDEST PUSH2 0x2A02 DUP5 DUP5 DUP5 DUP5 PUSH2 0x2D70 JUMP JUMPDEST POP POP POP POP JUMP JUMPDEST PUSH1 0x0 DUP5 PUSH20 0xFFFFFFFFFFFFFFFFFFFFFFFFFFFFFFFFFFFFFFFF AND EXTCODESIZE GT ISZERO PUSH2 0x2BB4 JUMPI DUP4 PUSH20 0xFFFFFFFFFFFFFFFFFFFFFFFFFFFFFFFFFFFFFFFF AND PUSH4 0xF23A6E61 DUP8 DUP8 DUP7 DUP7 DUP7 PUSH1 0x40 MLOAD DUP7 PUSH4 0xFFFFFFFF AND PUSH1 0xE0 SHL DUP2 MSTORE PUSH1 0x4 ADD PUSH2 0x2A69 SWAP6 SWAP5 SWAP4 SWAP3 SWAP2 SWAP1 PUSH2 0x5044 JUMP JUMPDEST PUSH1 0x20 PUSH1 0x40 MLOAD DUP1 DUP4 SUB DUP2 PUSH1 0x0 DUP8 GAS CALL SWAP3 POP POP POP DUP1 ISZERO PUSH2 0x2AA5 JUMPI POP PUSH1 0x40 MLOAD RETURNDATASIZE PUSH1 0x1F NOT PUSH1 0x1F DUP3 ADD AND DUP3 ADD DUP1 PUSH1 0x40 MSTORE POP DUP2 ADD SWAP1 PUSH2 0x2AA2 SWAP2 SWAP1 PUSH2 0x50B3 JUMP JUMPDEST PUSH1 0x1 JUMPDEST PUSH2 0x2B29 JUMPI RETURNDATASIZE DUP1 PUSH1 0x0 DUP2 EQ PUSH2 0x2AD5 JUMPI PUSH1 0x40 MLOAD SWAP2 POP PUSH1 0x1F NOT PUSH1 0x3F RETURNDATASIZE ADD AND DUP3 ADD PUSH1 0x40 MSTORE RETURNDATASIZE DUP3 MSTORE RETURNDATASIZE PUSH1 0x0 PUSH1 0x20 DUP5 ADD RETURNDATACOPY PUSH2 0x2ADA JUMP JUMPDEST PUSH1 0x60 SWAP2 POP JUMPDEST POP PUSH1 0x0 DUP2 MLOAD SUB PUSH2 0x2B21 JUMPI DUP5 PUSH1 0x40 MLOAD PUSH32 0x57F447CE00000000000000000000000000000000000000000000000000000000 DUP2 MSTORE PUSH1 0x4 ADD PUSH2 0x2B18 SWAP2 SWAP1 PUSH2 0x4F38 JUMP JUMPDEST PUSH1 0x40 MLOAD DUP1 SWAP2 SUB SWAP1 REVERT JUMPDEST DUP1 MLOAD PUSH1 0x20 DUP3 ADD REVERT JUMPDEST PUSH4 0xF23A6E61 PUSH1 0xE0 SHL PUSH28 0xFFFFFFFFFFFFFFFFFFFFFFFFFFFFFFFFFFFFFFFFFFFFFFFFFFFFFFFF NOT AND DUP2 PUSH28 0xFFFFFFFFFFFFFFFFFFFFFFFFFFFFFFFFFFFFFFFFFFFFFFFFFFFFFFFF NOT AND EQ PUSH2 0x2BB2 JUMPI DUP5 PUSH1 0x40 MLOAD PUSH32 0x57F447CE00000000000000000000000000000000000000000000000000000000 DUP2 MSTORE PUSH1 0x4 ADD PUSH2 0x2BA9 SWAP2 SWAP1 PUSH2 0x4F38 JUMP JUMPDEST PUSH1 0x40 MLOAD DUP1 SWAP2 SUB SWAP1 REVERT JUMPDEST POP JUMPDEST POP POP POP POP POP POP JUMP JUMPDEST PUSH1 0x0 DUP5 PUSH20 0xFFFFFFFFFFFFFFFFFFFFFFFFFFFFFFFFFFFFFFFF AND EXTCODESIZE GT ISZERO PUSH2 0x2D68 JUMPI DUP4 PUSH20 0xFFFFFFFFFFFFFFFFFFFFFFFFFFFFFFFFFFFFFFFF AND PUSH4 0xBC197C81 DUP8 DUP8 DUP7 DUP7 DUP7 PUSH1 0x40 MLOAD DUP7 PUSH4 0xFFFFFFFF AND PUSH1 0xE0 SHL DUP2 MSTORE PUSH1 0x4 ADD PUSH2 0x2C1D SWAP6 SWAP5 SWAP4 SWAP3 SWAP2 SWAP1 PUSH2 0x50E0 JUMP JUMPDEST PUSH1 0x20 PUSH1 0x40 MLOAD DUP1 DUP4 SUB DUP2 PUSH1 0x0 DUP8 GAS CALL SWAP3 POP POP POP DUP1 ISZERO PUSH2 0x2C59 JUMPI POP PUSH1 0x40 MLOAD RETURNDATASIZE PUSH1 0x1F NOT PUSH1 0x1F DUP3 ADD AND DUP3 ADD DUP1 PUSH1 0x40 MSTORE POP DUP2 ADD SWAP1 PUSH2 0x2C56 SWAP2 SWAP1 PUSH2 0x50B3 JUMP JUMPDEST PUSH1 0x1 JUMPDEST PUSH2 0x2CDD JUMPI RETURNDATASIZE DUP1 PUSH1 0x0 DUP2 EQ PUSH2 0x2C89 JUMPI PUSH1 0x40 MLOAD SWAP2 POP PUSH1 0x1F NOT PUSH1 0x3F RETURNDATASIZE ADD AND DUP3 ADD PUSH1 0x40 MSTORE RETURNDATASIZE DUP3 MSTORE RETURNDATASIZE PUSH1 0x0 PUSH1 0x20 DUP5 ADD RETURNDATACOPY PUSH2 0x2C8E JUMP JUMPDEST PUSH1 0x60 SWAP2 POP JUMPDEST POP PUSH1 0x0 DUP2 MLOAD SUB PUSH2 0x2CD5 JUMPI DUP5 PUSH1 0x40 MLOAD PUSH32 0x57F447CE00000000000000000000000000000000000000000000000000000000 DUP2 MSTORE PUSH1 0x4 ADD PUSH2 0x2CCC SWAP2 SWAP1 PUSH2 0x4F38 JUMP JUMPDEST PUSH1 0x40 MLOAD DUP1 SWAP2 SUB SWAP1 REVERT JUMPDEST DUP1 MLOAD PUSH1 0x20 DUP3 ADD REVERT JUMPDEST PUSH4 0xBC197C81 PUSH1 0xE0 SHL PUSH28 0xFFFFFFFFFFFFFFFFFFFFFFFFFFFFFFFFFFFFFFFFFFFFFFFFFFFFFFFF NOT AND DUP2 PUSH28 0xFFFFFFFFFFFFFFFFFFFFFFFFFFFFFFFFFFFFFFFFFFFFFFFFFFFFFFFF NOT AND EQ PUSH2 0x2D66 JUMPI DUP5 PUSH1 0x40 MLOAD PUSH32 0x57F447CE00000000000000000000000000000000000000000000000000000000 DUP2 MSTORE PUSH1 0x4 ADD PUSH2 0x2D5D SWAP2 SWAP1 PUSH2 0x4F38 JUMP JUMPDEST PUSH1 0x40 MLOAD DUP1 SWAP2 SUB SWAP1 REVERT JUMPDEST POP JUMPDEST POP POP POP POP POP POP JUMP JUMPDEST PUSH2 0x2D7C DUP5 DUP5 DUP5 DUP5 PUSH2 0x2EFB JUMP JUMPDEST PUSH1 0x0 PUSH20 0xFFFFFFFFFFFFFFFFFFFFFFFFFFFFFFFFFFFFFFFF AND DUP5 PUSH20 0xFFFFFFFFFFFFFFFFFFFFFFFFFFFFFFFFFFFFFFFF AND SUB PUSH2 0x2E46 JUMPI PUSH1 0x0 DUP1 JUMPDEST DUP4 MLOAD DUP2 LT ISZERO PUSH2 0x2E2A JUMPI PUSH1 0x0 PUSH2 0x2DD2 DUP3 DUP6 PUSH2 0x2168 SWAP1 SWAP2 SWAP1 PUSH4 0xFFFFFFFF AND JUMP JUMPDEST SWAP1 POP DUP1 PUSH1 0x3 PUSH1 0x0 PUSH2 0x2DEC DUP6 DUP10 PUSH2 0x2168 SWAP1 SWAP2 SWAP1 PUSH4 0xFFFFFFFF AND JUMP JUMPDEST DUP2 MSTORE PUSH1 0x20 ADD SWAP1 DUP2 MSTORE PUSH1 0x20 ADD PUSH1 0x0 KECCAK256 PUSH1 0x0 DUP3 DUP3 SLOAD PUSH2 0x2E09 SWAP2 SWAP1 PUSH2 0x4C88 JUMP JUMPDEST SWAP3 POP POP DUP2 SWAP1 SSTORE POP DUP1 DUP4 PUSH2 0x2E1C SWAP2 SWAP1 PUSH2 0x4C88 JUMP JUMPDEST SWAP3 POP POP DUP1 PUSH1 0x1 ADD SWAP1 POP PUSH2 0x2DB4 JUMP JUMPDEST POP DUP1 PUSH1 0x4 PUSH1 0x0 DUP3 DUP3 SLOAD PUSH2 0x2E3D SWAP2 SWAP1 PUSH2 0x4C88 JUMP JUMPDEST SWAP3 POP POP DUP2 SWAP1 SSTORE POP POP JUMPDEST PUSH1 0x0 PUSH20 0xFFFFFFFFFFFFFFFFFFFFFFFFFFFFFFFFFFFFFFFF AND DUP4 PUSH20 0xFFFFFFFFFFFFFFFFFFFFFFFFFFFFFFFFFFFFFFFF AND SUB PUSH2 0x2EF5 JUMPI PUSH1 0x0 DUP1 JUMPDEST DUP4 MLOAD DUP2 LT ISZERO PUSH2 0x2EE2 JUMPI PUSH1 0x0 PUSH2 0x2E9C DUP3 DUP6 PUSH2 0x2168 SWAP1 SWAP2 SWAP1 PUSH4 0xFFFFFFFF AND JUMP JUMPDEST SWAP1 POP DUP1 PUSH1 0x3 PUSH1 0x0 PUSH2 0x2EB6 DUP6 DUP10 PUSH2 0x2168 SWAP1 SWAP2 SWAP1 PUSH4 0xFFFFFFFF AND JUMP JUMPDEST DUP2 MSTORE PUSH1 0x20 ADD SWAP1 DUP2 MSTORE PUSH1 0x20 ADD PUSH1 0x0 KECCAK256 PUSH1 0x0 DUP3 DUP3 SLOAD SUB SWAP3 POP POP DUP2 SWAP1 SSTORE POP DUP1 DUP4 ADD SWAP3 POP POP DUP1 PUSH1 0x1 ADD SWAP1 POP PUSH2 0x2E7E JUMP JUMPDEST POP DUP1 PUSH1 0x4 PUSH1 0x0 DUP3 DUP3 SLOAD SUB SWAP3 POP POP DUP2 SWAP1 SSTORE POP POP JUMPDEST POP POP POP POP JUMP JUMPDEST DUP1 MLOAD DUP3 MLOAD EQ PUSH2 0x2F45 JUMPI DUP2 MLOAD DUP2 MLOAD PUSH1 0x40 MLOAD PUSH32 0x5B05999100000000000000000000000000000000000000000000000000000000 DUP2 MSTORE PUSH1 0x4 ADD PUSH2 0x2F3C SWAP3 SWAP2 SWAP1 PUSH2 0x4CF4 JUMP JUMPDEST PUSH1 0x40 MLOAD DUP1 SWAP2 SUB SWAP1 REVERT JUMPDEST PUSH1 0x0 PUSH2 0x2F4F PUSH2 0x1E6F JUMP JUMPDEST SWAP1 POP PUSH1 0x0 JUMPDEST DUP4 MLOAD DUP2 LT ISZERO PUSH2 0x315E JUMPI PUSH1 0x0 PUSH2 0x2F72 DUP3 DUP7 PUSH2 0x2168 SWAP1 SWAP2 SWAP1 PUSH4 0xFFFFFFFF AND JUMP JUMPDEST SWAP1 POP PUSH1 0x0 PUSH2 0x2F89 DUP4 DUP7 PUSH2 0x2168 SWAP1 SWAP2 SWAP1 PUSH4 0xFFFFFFFF AND JUMP JUMPDEST SWAP1 POP PUSH1 0x0 PUSH20 0xFFFFFFFFFFFFFFFFFFFFFFFFFFFFFFFFFFFFFFFF AND DUP9 PUSH20 0xFFFFFFFFFFFFFFFFFFFFFFFFFFFFFFFFFFFFFFFF AND EQ PUSH2 0x30B6 JUMPI PUSH1 0x0 DUP1 PUSH1 0x0 DUP5 DUP2 MSTORE PUSH1 0x20 ADD SWAP1 DUP2 MSTORE PUSH1 0x20 ADD PUSH1 0x0 KECCAK256 PUSH1 0x0 DUP11 PUSH20 0xFFFFFFFFFFFFFFFFFFFFFFFFFFFFFFFFFFFFFFFF AND PUSH20 0xFFFFFFFFFFFFFFFFFFFFFFFFFFFFFFFFFFFFFFFF AND DUP2 MSTORE PUSH1 0x20 ADD SWAP1 DUP2 MSTORE PUSH1 0x20 ADD PUSH1 0x0 KECCAK256 SLOAD SWAP1 POP DUP2 DUP2 LT ISZERO PUSH2 0x305E JUMPI DUP9 DUP2 DUP4 DUP6 PUSH1 0x40 MLOAD PUSH32 0x3DEE4C500000000000000000000000000000000000000000000000000000000 DUP2 MSTORE PUSH1 0x4 ADD PUSH2 0x3055 SWAP5 SWAP4 SWAP3 SWAP2 SWAP1 PUSH2 0x5148 JUMP JUMPDEST PUSH1 0x40 MLOAD DUP1 SWAP2 SUB SWAP1 REVERT JUMPDEST DUP2 DUP2 SUB PUSH1 0x0 DUP1 DUP6 DUP2 MSTORE PUSH1 0x20 ADD SWAP1 DUP2 MSTORE PUSH1 0x20 ADD PUSH1 0x0 KECCAK256 PUSH1 0x0 DUP12 PUSH20 0xFFFFFFFFFFFFFFFFFFFFFFFFFFFFFFFFFFFFFFFF AND PUSH20 0xFFFFFFFFFFFFFFFFFFFFFFFFFFFFFFFFFFFFFFFF AND DUP2 MSTORE PUSH1 0x20 ADD SWAP1 DUP2 MSTORE PUSH1 0x20 ADD PUSH1 0x0 KECCAK256 DUP2 SWAP1 SSTORE POP POP JUMPDEST PUSH1 0x0 PUSH20 0xFFFFFFFFFFFFFFFFFFFFFFFFFFFFFFFFFFFFFFFF AND DUP8 PUSH20 0xFFFFFFFFFFFFFFFFFFFFFFFFFFFFFFFFFFFFFFFF AND EQ PUSH2 0x3151 JUMPI DUP1 PUSH1 0x0 DUP1 DUP5 DUP2 MSTORE PUSH1 0x20 ADD SWAP1 DUP2 MSTORE PUSH1 0x20 ADD PUSH1 0x0 KECCAK256 PUSH1 0x0 DUP10 PUSH20 0xFFFFFFFFFFFFFFFFFFFFFFFFFFFFFFFFFFFFFFFF AND PUSH20 0xFFFFFFFFFFFFFFFFFFFFFFFFFFFFFFFFFFFFFFFF AND DUP2 MSTORE PUSH1 0x20 ADD SWAP1 DUP2 MSTORE PUSH1 0x20 ADD PUSH1 0x0 KECCAK256 PUSH1 0x0 DUP3 DUP3 SLOAD PUSH2 0x3149 SWAP2 SWAP1 PUSH2 0x4C88 JUMP JUMPDEST SWAP3 POP POP DUP2 SWAP1 SSTORE POP JUMPDEST POP POP DUP1 PUSH1 0x1 ADD SWAP1 POP PUSH2 0x2F54 JUMP JUMPDEST POP PUSH1 0x1 DUP4 MLOAD SUB PUSH2 0x321D JUMPI PUSH1 0x0 PUSH2 0x317E PUSH1 0x0 DUP6 PUSH2 0x2168 SWAP1 SWAP2 SWAP1 PUSH4 0xFFFFFFFF AND JUMP JUMPDEST SWAP1 POP PUSH1 0x0 PUSH2 0x3196 PUSH1 0x0 DUP6 PUSH2 0x2168 SWAP1 SWAP2 SWAP1 PUSH4 0xFFFFFFFF AND JUMP JUMPDEST SWAP1 POP DUP6 PUSH20 0xFFFFFFFFFFFFFFFFFFFFFFFFFFFFFFFFFFFFFFFF AND DUP8 PUSH20 0xFFFFFFFFFFFFFFFFFFFFFFFFFFFFFFFFFFFFFFFF AND DUP5 PUSH20 0xFFFFFFFFFFFFFFFFFFFFFFFFFFFFFFFFFFFFFFFF AND PUSH32 0xC3D58168C5AE7397731D063D5BBF3D657854427343F4C083240F7AACAA2D0F62 DUP6 DUP6 PUSH1 0x40 MLOAD PUSH2 0x320E SWAP3 SWAP2 SWAP1 PUSH2 0x4CF4 JUMP JUMPDEST PUSH1 0x40 MLOAD DUP1 SWAP2 SUB SWAP1 LOG4 POP POP PUSH2 0x329C JUMP JUMPDEST DUP4 PUSH20 0xFFFFFFFFFFFFFFFFFFFFFFFFFFFFFFFFFFFFFFFF AND DUP6 PUSH20 0xFFFFFFFFFFFFFFFFFFFFFFFFFFFFFFFFFFFFFFFF AND DUP3 PUSH20 0xFFFFFFFFFFFFFFFFFFFFFFFFFFFFFFFFFFFFFFFF AND PUSH32 0x4A39DC06D4C0DBC64B70AF90FD698A233A518AA5D07E595D983B8C0526C8F7FB DUP7 DUP7 PUSH1 0x40 MLOAD PUSH2 0x3293 SWAP3 SWAP2 SWAP1 PUSH2 0x518D JUMP JUMPDEST PUSH1 0x40 MLOAD DUP1 SWAP2 SUB SWAP1 LOG4 JUMPDEST POP POP POP POP POP JUMP JUMPDEST PUSH1 0x40 MLOAD DUP1 PUSH1 0xA0 ADD PUSH1 0x40 MSTORE DUP1 PUSH1 0x60 DUP2 MSTORE PUSH1 0x20 ADD PUSH1 0x60 DUP2 MSTORE PUSH1 0x20 ADD PUSH1 0x60 DUP2 MSTORE PUSH1 0x20 ADD PUSH1 0x0 DUP2 MSTORE PUSH1 0x20 ADD PUSH1 0x0 ISZERO ISZERO DUP2 MSTORE POP SWAP1 JUMP JUMPDEST PUSH1 0x0 PUSH1 0x40 MLOAD SWAP1 POP SWAP1 JUMP JUMPDEST PUSH1 0x0 DUP1 REVERT JUMPDEST PUSH1 0x0 DUP1 REVERT JUMPDEST PUSH1 0x0 PUSH20 0xFFFFFFFFFFFFFFFFFFFFFFFFFFFFFFFFFFFFFFFF DUP3 AND SWAP1 POP SWAP2 SWAP1 POP JUMP JUMPDEST PUSH1 0x0 PUSH2 0x3313 DUP3 PUSH2 0x32E8 JUMP JUMPDEST SWAP1 POP SWAP2 SWAP1 POP JUMP JUMPDEST PUSH2 0x3323 DUP2 PUSH2 0x3308 JUMP JUMPDEST DUP2 EQ PUSH2 0x332E JUMPI PUSH1 0x0 DUP1 REVERT JUMPDEST POP JUMP JUMPDEST PUSH1 0x0 DUP2 CALLDATALOAD SWAP1 POP PUSH2 0x3340 DUP2 PUSH2 0x331A JUMP JUMPDEST SWAP3 SWAP2 POP POP JUMP JUMPDEST PUSH1 0x0 DUP2 SWAP1 POP SWAP2 SWAP1 POP JUMP JUMPDEST PUSH2 0x3359 DUP2 PUSH2 0x3346 JUMP JUMPDEST DUP2 EQ PUSH2 0x3364 JUMPI PUSH1 0x0 DUP1 REVERT JUMPDEST POP JUMP JUMPDEST PUSH1 0x0 DUP2 CALLDATALOAD SWAP1 POP PUSH2 0x3376 DUP2 PUSH2 0x3350 JUMP JUMPDEST SWAP3 SWAP2 POP POP JUMP JUMPDEST PUSH1 0x0 DUP1 PUSH1 0x40 DUP4 DUP6 SUB SLT ISZERO PUSH2 0x3393 JUMPI PUSH2 0x3392 PUSH2 0x32DE JUMP JUMPDEST JUMPDEST PUSH1 0x0 PUSH2 0x33A1 DUP6 DUP3 DUP7 ADD PUSH2 0x3331 JUMP JUMPDEST SWAP3 POP POP PUSH1 0x20 PUSH2 0x33B2 DUP6 DUP3 DUP7 ADD PUSH2 0x3367 JUMP JUMPDEST SWAP2 POP POP SWAP3 POP SWAP3 SWAP1 POP JUMP JUMPDEST PUSH2 0x33C5 DUP2 PUSH2 0x3346 JUMP JUMPDEST DUP3 MSTORE POP POP JUMP JUMPDEST PUSH1 0x0 PUSH1 0x20 DUP3 ADD SWAP1 POP PUSH2 0x33E0 PUSH1 0x0 DUP4 ADD DUP5 PUSH2 0x33BC JUMP JUMPDEST SWAP3 SWAP2 POP POP JUMP JUMPDEST PUSH1 0x0 PUSH32 0xFFFFFFFF00000000000000000000000000000000000000000000000000000000 DUP3 AND SWAP1 POP SWAP2 SWAP1 POP JUMP JUMPDEST PUSH2 0x341B DUP2 PUSH2 0x33E6 JUMP JUMPDEST DUP2 EQ PUSH2 0x3426 JUMPI PUSH1 0x0 DUP1 REVERT JUMPDEST POP JUMP JUMPDEST PUSH1 0x0 DUP2 CALLDATALOAD SWAP1 POP PUSH2 0x3438 DUP2 PUSH2 0x3412 JUMP JUMPDEST SWAP3 SWAP2 POP POP JUMP JUMPDEST PUSH1 0x0 PUSH1 0x20 DUP3 DUP5 SUB SLT ISZERO PUSH2 0x3454 JUMPI PUSH2 0x3453 PUSH2 0x32DE JUMP JUMPDEST JUMPDEST PUSH1 0x0 PUSH2 0x3462 DUP5 DUP3 DUP6 ADD PUSH2 0x3429 JUMP JUMPDEST SWAP2 POP POP SWAP3 SWAP2 POP POP JUMP JUMPDEST PUSH1 0x0 DUP2 ISZERO ISZERO SWAP1 POP SWAP2 SWAP1 POP JUMP JUMPDEST PUSH2 0x3480 DUP2 PUSH2 0x346B JUMP JUMPDEST DUP3 MSTORE POP POP JUMP JUMPDEST PUSH1 0x0 PUSH1 0x20 DUP3 ADD SWAP1 POP PUSH2 0x349B PUSH1 0x0 DUP4 ADD DUP5 PUSH2 0x3477 JUMP JUMPDEST SWAP3 SWAP2 POP POP JUMP JUMPDEST PUSH1 0x0 PUSH1 0x20 DUP3 DUP5 SUB SLT ISZERO PUSH2 0x34B7 JUMPI PUSH2 0x34B6 PUSH2 0x32DE JUMP JUMPDEST JUMPDEST PUSH1 0x0 PUSH2 0x34C5 DUP5 DUP3 DUP6 ADD PUSH2 0x3367 JUMP JUMPDEST SWAP2 POP POP SWAP3 SWAP2 POP POP JUMP JUMPDEST PUSH1 0x0 DUP2 MLOAD SWAP1 POP SWAP2 SWAP1 POP JUMP JUMPDEST PUSH1 0x0 DUP3 DUP3 MSTORE PUSH1 0x20 DUP3 ADD SWAP1 POP SWAP3 SWAP2 POP POP JUMP JUMPDEST PUSH1 0x0 JUMPDEST DUP4 DUP2 LT ISZERO PUSH2 0x3508 JUMPI DUP1 DUP3 ADD MLOAD DUP2 DUP5 ADD MSTORE PUSH1 0x20 DUP2 ADD SWAP1 POP PUSH2 0x34ED JUMP JUMPDEST PUSH1 0x0 DUP5 DUP5 ADD MSTORE POP POP POP POP JUMP JUMPDEST PUSH1 0x0 PUSH1 0x1F NOT PUSH1 0x1F DUP4 ADD AND SWAP1 POP SWAP2 SWAP1 POP JUMP JUMPDEST PUSH1 0x0 PUSH2 0x3530 DUP3 PUSH2 0x34CE JUMP JUMPDEST PUSH2 0x353A DUP2 DUP6 PUSH2 0x34D9 JUMP JUMPDEST SWAP4 POP PUSH2 0x354A DUP2 DUP6 PUSH1 0x20 DUP7 ADD PUSH2 0x34EA JUMP JUMPDEST PUSH2 0x3553 DUP2 PUSH2 0x3514 JUMP JUMPDEST DUP5 ADD SWAP2 POP POP SWAP3 SWAP2 POP POP JUMP JUMPDEST PUSH2 0x3567 DUP2 PUSH2 0x3346 JUMP JUMPDEST DUP3 MSTORE POP POP JUMP JUMPDEST PUSH2 0x3576 DUP2 PUSH2 0x346B JUMP JUMPDEST DUP3 MSTORE POP POP JUMP JUMPDEST PUSH1 0x0 PUSH1 0xA0 DUP4 ADD PUSH1 0x0 DUP4 ADD MLOAD DUP5 DUP3 SUB PUSH1 0x0 DUP7 ADD MSTORE PUSH2 0x3599 DUP3 DUP3 PUSH2 0x3525 JUMP JUMPDEST SWAP2 POP POP PUSH1 0x20 DUP4 ADD MLOAD DUP5 DUP3 SUB PUSH1 0x20 DUP7 ADD MSTORE PUSH2 0x35B3 DUP3 DUP3 PUSH2 0x3525 JUMP JUMPDEST SWAP2 POP POP PUSH1 0x40 DUP4 ADD MLOAD DUP5 DUP3 SUB PUSH1 0x40 DUP7 ADD MSTORE PUSH2 0x35CD DUP3 DUP3 PUSH2 0x3525 JUMP JUMPDEST SWAP2 POP POP PUSH1 0x60 DUP4 ADD MLOAD PUSH2 0x35E2 PUSH1 0x60 DUP7 ADD DUP3 PUSH2 0x355E JUMP JUMPDEST POP PUSH1 0x80 DUP4 ADD MLOAD PUSH2 0x35F5 PUSH1 0x80 DUP7 ADD DUP3 PUSH2 0x356D JUMP JUMPDEST POP DUP1 SWAP2 POP POP SWAP3 SWAP2 POP POP JUMP JUMPDEST PUSH1 0x0 PUSH1 0x20 DUP3 ADD SWAP1 POP DUP2 DUP2 SUB PUSH1 0x0 DUP4 ADD MSTORE PUSH2 0x361A DUP2 DUP5 PUSH2 0x357C JUMP JUMPDEST SWAP1 POP SWAP3 SWAP2 POP POP JUMP JUMPDEST PUSH1 0x0 DUP3 DUP3 MSTORE PUSH1 0x20 DUP3 ADD SWAP1 POP SWAP3 SWAP2 POP POP JUMP JUMPDEST PUSH1 0x0 PUSH2 0x363E DUP3 PUSH2 0x34CE JUMP JUMPDEST PUSH2 0x3648 DUP2 DUP6 PUSH2 0x3622 JUMP JUMPDEST SWAP4 POP PUSH2 0x3658 DUP2 DUP6 PUSH1 0x20 DUP7 ADD PUSH2 0x34EA JUMP JUMPDEST PUSH2 0x3661 DUP2 PUSH2 0x3514 JUMP JUMPDEST DUP5 ADD SWAP2 POP POP SWAP3 SWAP2 POP POP JUMP JUMPDEST PUSH1 0x0 PUSH1 0x20 DUP3 ADD SWAP1 POP DUP2 DUP2 SUB PUSH1 0x0 DUP4 ADD MSTORE PUSH2 0x3686 DUP2 DUP5 PUSH2 0x3633 JUMP JUMPDEST SWAP1 POP SWAP3 SWAP2 POP POP JUMP JUMPDEST PUSH1 0x0 DUP1 REVERT JUMPDEST PUSH1 0x0 DUP1 REVERT JUMPDEST PUSH32 0x4E487B7100000000000000000000000000000000000000000000000000000000 PUSH1 0x0 MSTORE PUSH1 0x41 PUSH1 0x4 MSTORE PUSH1 0x24 PUSH1 0x0 REVERT JUMPDEST PUSH2 0x36D0 DUP3 PUSH2 0x3514 JUMP JUMPDEST DUP2 ADD DUP2 DUP2 LT PUSH8 0xFFFFFFFFFFFFFFFF DUP3 GT OR ISZERO PUSH2 0x36EF JUMPI PUSH2 0x36EE PUSH2 0x3698 JUMP JUMPDEST JUMPDEST DUP1 PUSH1 0x40 MSTORE POP POP POP JUMP JUMPDEST PUSH1 0x0 PUSH2 0x3702 PUSH2 0x32D4 JUMP JUMPDEST SWAP1 POP PUSH2 0x370E DUP3 DUP3 PUSH2 0x36C7 JUMP JUMPDEST SWAP2 SWAP1 POP JUMP JUMPDEST PUSH1 0x0 PUSH8 0xFFFFFFFFFFFFFFFF DUP3 GT ISZERO PUSH2 0x372E JUMPI PUSH2 0x372D PUSH2 0x3698 JUMP JUMPDEST JUMPDEST PUSH2 0x3737 DUP3 PUSH2 0x3514 JUMP JUMPDEST SWAP1 POP PUSH1 0x20 DUP2 ADD SWAP1 POP SWAP2 SWAP1 POP JUMP JUMPDEST DUP3 DUP2 DUP4 CALLDATACOPY PUSH1 0x0 DUP4 DUP4 ADD MSTORE POP POP POP JUMP JUMPDEST PUSH1 0x0 PUSH2 0x3766 PUSH2 0x3761 DUP5 PUSH2 0x3713 JUMP JUMPDEST PUSH2 0x36F8 JUMP JUMPDEST SWAP1 POP DUP3 DUP2 MSTORE PUSH1 0x20 DUP2 ADD DUP5 DUP5 DUP5 ADD GT ISZERO PUSH2 0x3782 JUMPI PUSH2 0x3781 PUSH2 0x3693 JUMP JUMPDEST JUMPDEST PUSH2 0x378D DUP5 DUP3 DUP6 PUSH2 0x3744 JUMP JUMPDEST POP SWAP4 SWAP3 POP POP POP JUMP JUMPDEST PUSH1 0x0 DUP3 PUSH1 0x1F DUP4 ADD SLT PUSH2 0x37AA JUMPI PUSH2 0x37A9 PUSH2 0x368E JUMP JUMPDEST JUMPDEST DUP2 CALLDATALOAD PUSH2 0x37BA DUP5 DUP3 PUSH1 0x20 DUP7 ADD PUSH2 0x3753 JUMP JUMPDEST SWAP2 POP POP SWAP3 SWAP2 POP POP JUMP JUMPDEST PUSH1 0x0 DUP1 PUSH1 0x0 DUP1 PUSH1 0x80 DUP6 DUP8 SUB SLT ISZERO PUSH2 0x37DD JUMPI PUSH2 0x37DC PUSH2 0x32DE JUMP JUMPDEST JUMPDEST PUSH1 0x0 DUP6 ADD CALLDATALOAD PUSH8 0xFFFFFFFFFFFFFFFF DUP2 GT ISZERO PUSH2 0x37FB JUMPI PUSH2 0x37FA PUSH2 0x32E3 JUMP JUMPDEST JUMPDEST PUSH2 0x3807 DUP8 DUP3 DUP9 ADD PUSH2 0x3795 JUMP JUMPDEST SWAP5 POP POP PUSH1 0x20 DUP6 ADD CALLDATALOAD PUSH8 0xFFFFFFFFFFFFFFFF DUP2 GT ISZERO PUSH2 0x3828 JUMPI PUSH2 0x3827 PUSH2 0x32E3 JUMP JUMPDEST JUMPDEST PUSH2 0x3834 DUP8 DUP3 DUP9 ADD PUSH2 0x3795 JUMP JUMPDEST SWAP4 POP POP PUSH1 0x40 DUP6 ADD CALLDATALOAD PUSH8 0xFFFFFFFFFFFFFFFF DUP2 GT ISZERO PUSH2 0x3855 JUMPI PUSH2 0x3854 PUSH2 0x32E3 JUMP JUMPDEST JUMPDEST PUSH2 0x3861 DUP8 DUP3 DUP9 ADD PUSH2 0x3795 JUMP JUMPDEST SWAP3 POP POP PUSH1 0x60 PUSH2 0x3872 DUP8 DUP3 DUP9 ADD PUSH2 0x3367 JUMP JUMPDEST SWAP2 POP POP SWAP3 SWAP6 SWAP2 SWAP5 POP SWAP3 POP JUMP JUMPDEST PUSH1 0x0 DUP2 SWAP1 POP SWAP2 SWAP1 POP JUMP JUMPDEST PUSH2 0x3891 DUP2 PUSH2 0x387E JUMP JUMPDEST DUP2 EQ PUSH2 0x389C JUMPI PUSH1 0x0 DUP1 REVERT JUMPDEST POP JUMP JUMPDEST PUSH1 0x0 DUP2 CALLDATALOAD SWAP1 POP PUSH2 0x38AE DUP2 PUSH2 0x3888 JUMP JUMPDEST SWAP3 SWAP2 POP POP JUMP JUMPDEST PUSH1 0x0 PUSH1 0x20 DUP3 DUP5 SUB SLT ISZERO PUSH2 0x38CA JUMPI PUSH2 0x38C9 PUSH2 0x32DE JUMP JUMPDEST JUMPDEST PUSH1 0x0 PUSH2 0x38D8 DUP5 DUP3 DUP6 ADD PUSH2 0x389F JUMP JUMPDEST SWAP2 POP POP SWAP3 SWAP2 POP POP JUMP JUMPDEST PUSH2 0x38EA DUP2 PUSH2 0x387E JUMP JUMPDEST DUP3 MSTORE POP POP JUMP JUMPDEST PUSH1 0x0 PUSH1 0x20 DUP3 ADD SWAP1 POP PUSH2 0x3905 PUSH1 0x0 DUP4 ADD DUP5 PUSH2 0x38E1 JUMP JUMPDEST SWAP3 SWAP2 POP POP JUMP JUMPDEST PUSH1 0x0 DUP1 PUSH1 0x40 DUP4 DUP6 SUB SLT ISZERO PUSH2 0x3922 JUMPI PUSH2 0x3921 PUSH2 0x32DE JUMP JUMPDEST JUMPDEST PUSH1 0x0 PUSH2 0x3930 DUP6 DUP3 DUP7 ADD PUSH2 0x3367 JUMP JUMPDEST SWAP3 POP POP PUSH1 0x20 PUSH2 0x3941 DUP6 DUP3 DUP7 ADD PUSH2 0x3331 JUMP JUMPDEST SWAP2 POP POP SWAP3 POP SWAP3 SWAP1 POP JUMP JUMPDEST PUSH1 0x0 PUSH8 0xFFFFFFFFFFFFFFFF DUP3 GT ISZERO PUSH2 0x3966 JUMPI PUSH2 0x3965 PUSH2 0x3698 JUMP JUMPDEST JUMPDEST PUSH1 0x20 DUP3 MUL SWAP1 POP PUSH1 0x20 DUP2 ADD SWAP1 POP SWAP2 SWAP1 POP JUMP JUMPDEST PUSH1 0x0 DUP1 REVERT JUMPDEST PUSH1 0x0 PUSH2 0x398F PUSH2 0x398A DUP5 PUSH2 0x394B JUMP JUMPDEST PUSH2 0x36F8 JUMP JUMPDEST SWAP1 POP DUP1 DUP4 DUP3 MSTORE PUSH1 0x20 DUP3 ADD SWAP1 POP PUSH1 0x20 DUP5 MUL DUP4 ADD DUP6 DUP2 GT ISZERO PUSH2 0x39B2 JUMPI PUSH2 0x39B1 PUSH2 0x3977 JUMP JUMPDEST JUMPDEST DUP4 JUMPDEST DUP2 DUP2 LT ISZERO PUSH2 0x39DB JUMPI DUP1 PUSH2 0x39C7 DUP9 DUP3 PUSH2 0x3367 JUMP JUMPDEST DUP5 MSTORE PUSH1 0x20 DUP5 ADD SWAP4 POP POP PUSH1 0x20 DUP2 ADD SWAP1 POP PUSH2 0x39B4 JUMP JUMPDEST POP POP POP SWAP4 SWAP3 POP POP POP JUMP JUMPDEST PUSH1 0x0 DUP3 PUSH1 0x1F DUP4 ADD SLT PUSH2 0x39FA JUMPI PUSH2 0x39F9 PUSH2 0x368E JUMP JUMPDEST JUMPDEST DUP2 CALLDATALOAD PUSH2 0x3A0A DUP5 DUP3 PUSH1 0x20 DUP7 ADD PUSH2 0x397C JUMP JUMPDEST SWAP2 POP POP SWAP3 SWAP2 POP POP JUMP JUMPDEST PUSH1 0x0 PUSH8 0xFFFFFFFFFFFFFFFF DUP3 GT ISZERO PUSH2 0x3A2E JUMPI PUSH2 0x3A2D PUSH2 0x3698 JUMP JUMPDEST JUMPDEST PUSH2 0x3A37 DUP3 PUSH2 0x3514 JUMP JUMPDEST SWAP1 POP PUSH1 0x20 DUP2 ADD SWAP1 POP SWAP2 SWAP1 POP JUMP JUMPDEST PUSH1 0x0 PUSH2 0x3A57 PUSH2 0x3A52 DUP5 PUSH2 0x3A13 JUMP JUMPDEST PUSH2 0x36F8 JUMP JUMPDEST SWAP1 POP DUP3 DUP2 MSTORE PUSH1 0x20 DUP2 ADD DUP5 DUP5 DUP5 ADD GT ISZERO PUSH2 0x3A73 JUMPI PUSH2 0x3A72 PUSH2 0x3693 JUMP JUMPDEST JUMPDEST PUSH2 0x3A7E DUP5 DUP3 DUP6 PUSH2 0x3744 JUMP JUMPDEST POP SWAP4 SWAP3 POP POP POP JUMP JUMPDEST PUSH1 0x0 DUP3 PUSH1 0x1F DUP4 ADD SLT PUSH2 0x3A9B JUMPI PUSH2 0x3A9A PUSH2 0x368E JUMP JUMPDEST JUMPDEST DUP2 CALLDATALOAD PUSH2 0x3AAB DUP5 DUP3 PUSH1 0x20 DUP7 ADD PUSH2 0x3A44 JUMP JUMPDEST SWAP2 POP POP SWAP3 SWAP2 POP POP JUMP JUMPDEST PUSH1 0x0 DUP1 PUSH1 0x0 DUP1 PUSH1 0x0 PUSH1 0xA0 DUP7 DUP9 SUB SLT ISZERO PUSH2 0x3AD0 JUMPI PUSH2 0x3ACF PUSH2 0x32DE JUMP JUMPDEST JUMPDEST PUSH1 0x0 PUSH2 0x3ADE DUP9 DUP3 DUP10 ADD PUSH2 0x3331 JUMP JUMPDEST SWAP6 POP POP PUSH1 0x20 PUSH2 0x3AEF DUP9 DUP3 DUP10 ADD PUSH2 0x3331 JUMP JUMPDEST SWAP5 POP POP PUSH1 0x40 DUP7 ADD CALLDATALOAD PUSH8 0xFFFFFFFFFFFFFFFF DUP2 GT ISZERO PUSH2 0x3B10 JUMPI PUSH2 0x3B0F PUSH2 0x32E3 JUMP JUMPDEST JUMPDEST PUSH2 0x3B1C DUP9 DUP3 DUP10 ADD PUSH2 0x39E5 JUMP JUMPDEST SWAP4 POP POP PUSH1 0x60 DUP7 ADD CALLDATALOAD PUSH8 0xFFFFFFFFFFFFFFFF DUP2 GT ISZERO PUSH2 0x3B3D JUMPI PUSH2 0x3B3C PUSH2 0x32E3 JUMP JUMPDEST JUMPDEST PUSH2 0x3B49 DUP9 DUP3 DUP10 ADD PUSH2 0x39E5 JUMP JUMPDEST SWAP3 POP POP PUSH1 0x80 DUP7 ADD CALLDATALOAD PUSH8 0xFFFFFFFFFFFFFFFF DUP2 GT ISZERO PUSH2 0x3B6A JUMPI PUSH2 0x3B69 PUSH2 0x32E3 JUMP JUMPDEST JUMPDEST PUSH2 0x3B76 DUP9 DUP3 DUP10 ADD PUSH2 0x3A86 JUMP JUMPDEST SWAP2 POP POP SWAP3 SWAP6 POP SWAP3 SWAP6 SWAP1 SWAP4 POP JUMP JUMPDEST PUSH1 0x0 DUP1 PUSH1 0x40 DUP4 DUP6 SUB SLT ISZERO PUSH2 0x3B9A JUMPI PUSH2 0x3B99 PUSH2 0x32DE JUMP JUMPDEST JUMPDEST PUSH1 0x0 PUSH2 0x3BA8 DUP6 DUP3 DUP7 ADD PUSH2 0x389F JUMP JUMPDEST SWAP3 POP POP PUSH1 0x20 PUSH2 0x3BB9 DUP6 DUP3 DUP7 ADD PUSH2 0x3331 JUMP JUMPDEST SWAP2 POP POP SWAP3 POP SWAP3 SWAP1 POP JUMP JUMPDEST PUSH1 0x0 PUSH8 0xFFFFFFFFFFFFFFFF DUP3 GT ISZERO PUSH2 0x3BDE JUMPI PUSH2 0x3BDD PUSH2 0x3698 JUMP JUMPDEST JUMPDEST PUSH1 0x20 DUP3 MUL SWAP1 POP PUSH1 0x20 DUP2 ADD SWAP1 POP SWAP2 SWAP1 POP JUMP JUMPDEST PUSH1 0x0 PUSH2 0x3C02 PUSH2 0x3BFD DUP5 PUSH2 0x3BC3 JUMP JUMPDEST PUSH2 0x36F8 JUMP JUMPDEST SWAP1 POP DUP1 DUP4 DUP3 MSTORE PUSH1 0x20 DUP3 ADD SWAP1 POP PUSH1 0x20 DUP5 MUL DUP4 ADD DUP6 DUP2 GT ISZERO PUSH2 0x3C25 JUMPI PUSH2 0x3C24 PUSH2 0x3977 JUMP JUMPDEST JUMPDEST DUP4 JUMPDEST DUP2 DUP2 LT ISZERO PUSH2 0x3C4E JUMPI DUP1 PUSH2 0x3C3A DUP9 DUP3 PUSH2 0x3331 JUMP JUMPDEST DUP5 MSTORE PUSH1 0x20 DUP5 ADD SWAP4 POP POP PUSH1 0x20 DUP2 ADD SWAP1 POP PUSH2 0x3C27 JUMP JUMPDEST POP POP POP SWAP4 SWAP3 POP POP POP JUMP JUMPDEST PUSH1 0x0 DUP3 PUSH1 0x1F DUP4 ADD SLT PUSH2 0x3C6D JUMPI PUSH2 0x3C6C PUSH2 0x368E JUMP JUMPDEST JUMPDEST DUP2 CALLDATALOAD PUSH2 0x3C7D DUP5 DUP3 PUSH1 0x20 DUP7 ADD PUSH2 0x3BEF JUMP JUMPDEST SWAP2 POP POP SWAP3 SWAP2 POP POP JUMP JUMPDEST PUSH1 0x0 DUP1 PUSH1 0x40 DUP4 DUP6 SUB SLT ISZERO PUSH2 0x3C9D JUMPI PUSH2 0x3C9C PUSH2 0x32DE JUMP JUMPDEST JUMPDEST PUSH1 0x0 DUP4 ADD CALLDATALOAD PUSH8 0xFFFFFFFFFFFFFFFF DUP2 GT ISZERO PUSH2 0x3CBB JUMPI PUSH2 0x3CBA PUSH2 0x32E3 JUMP JUMPDEST JUMPDEST PUSH2 0x3CC7 DUP6 DUP3 DUP7 ADD PUSH2 0x3C58 JUMP JUMPDEST SWAP3 POP POP PUSH1 0x20 DUP4 ADD CALLDATALOAD PUSH8 0xFFFFFFFFFFFFFFFF DUP2 GT ISZERO PUSH2 0x3CE8 JUMPI PUSH2 0x3CE7 PUSH2 0x32E3 JUMP JUMPDEST JUMPDEST PUSH2 0x3CF4 DUP6 DUP3 DUP7 ADD PUSH2 0x39E5 JUMP JUMPDEST SWAP2 POP POP SWAP3 POP SWAP3 SWAP1 POP JUMP JUMPDEST PUSH1 0x0 DUP2 MLOAD SWAP1 POP SWAP2 SWAP1 POP JUMP JUMPDEST PUSH1 0x0 DUP3 DUP3 MSTORE PUSH1 0x20 DUP3 ADD SWAP1 POP SWAP3 SWAP2 POP POP JUMP JUMPDEST PUSH1 0x0 DUP2 SWAP1 POP PUSH1 0x20 DUP3 ADD SWAP1 POP SWAP2 SWAP1 POP JUMP JUMPDEST PUSH1 0x0 PUSH2 0x3D36 DUP4 DUP4 PUSH2 0x355E JUMP JUMPDEST PUSH1 0x20 DUP4 ADD SWAP1 POP SWAP3 SWAP2 POP POP JUMP JUMPDEST PUSH1 0x0 PUSH1 0x20 DUP3 ADD SWAP1 POP SWAP2 SWAP1 POP JUMP JUMPDEST PUSH1 0x0 PUSH2 0x3D5A DUP3 PUSH2 0x3CFE JUMP JUMPDEST PUSH2 0x3D64 DUP2 DUP6 PUSH2 0x3D09 JUMP JUMPDEST SWAP4 POP PUSH2 0x3D6F DUP4 PUSH2 0x3D1A JUMP JUMPDEST DUP1 PUSH1 0x0 JUMPDEST DUP4 DUP2 LT ISZERO PUSH2 0x3DA0 JUMPI DUP2 MLOAD PUSH2 0x3D87 DUP9 DUP3 PUSH2 0x3D2A JUMP JUMPDEST SWAP8 POP PUSH2 0x3D92 DUP4 PUSH2 0x3D42 JUMP JUMPDEST SWAP3 POP POP PUSH1 0x1 DUP2 ADD SWAP1 POP PUSH2 0x3D73 JUMP JUMPDEST POP DUP6 SWAP4 POP POP POP POP SWAP3 SWAP2 POP POP JUMP JUMPDEST PUSH1 0x0 PUSH1 0x20 DUP3 ADD SWAP1 POP DUP2 DUP2 SUB PUSH1 0x0 DUP4 ADD MSTORE PUSH2 0x3DC7 DUP2 DUP5 PUSH2 0x3D4F JUMP JUMPDEST SWAP1 POP SWAP3 SWAP2 POP POP JUMP JUMPDEST PUSH1 0x0 DUP1 PUSH1 0x0 DUP1 PUSH1 0x80 DUP6 DUP8 SUB SLT ISZERO PUSH2 0x3DE9 JUMPI PUSH2 0x3DE8 PUSH2 0x32DE JUMP JUMPDEST JUMPDEST PUSH1 0x0 PUSH2 0x3DF7 DUP8 DUP3 DUP9 ADD PUSH2 0x3367 JUMP JUMPDEST SWAP5 POP POP PUSH1 0x20 DUP6 ADD CALLDATALOAD PUSH8 0xFFFFFFFFFFFFFFFF DUP2 GT ISZERO PUSH2 0x3E18 JUMPI PUSH2 0x3E17 PUSH2 0x32E3 JUMP JUMPDEST JUMPDEST PUSH2 0x3E24 DUP8 DUP3 DUP9 ADD PUSH2 0x3795 JUMP JUMPDEST SWAP4 POP POP PUSH1 0x40 DUP6 ADD CALLDATALOAD PUSH8 0xFFFFFFFFFFFFFFFF DUP2 GT ISZERO PUSH2 0x3E45 JUMPI PUSH2 0x3E44 PUSH2 0x32E3 JUMP JUMPDEST JUMPDEST PUSH2 0x3E51 DUP8 DUP3 DUP9 ADD PUSH2 0x3795 JUMP JUMPDEST SWAP3 POP POP PUSH1 0x60 PUSH2 0x3E62 DUP8 DUP3 DUP9 ADD PUSH2 0x3367 JUMP JUMPDEST SWAP2 POP POP SWAP3 SWAP6 SWAP2 SWAP5 POP SWAP3 POP JUMP JUMPDEST PUSH1 0x0 DUP1 PUSH1 0x0 PUSH1 0x60 DUP5 DUP7 SUB SLT ISZERO PUSH2 0x3E87 JUMPI PUSH2 0x3E86 PUSH2 0x32DE JUMP JUMPDEST JUMPDEST PUSH1 0x0 DUP5 ADD CALLDATALOAD PUSH8 0xFFFFFFFFFFFFFFFF DUP2 GT ISZERO PUSH2 0x3EA5 JUMPI PUSH2 0x3EA4 PUSH2 0x32E3 JUMP JUMPDEST JUMPDEST PUSH2 0x3EB1 DUP7 DUP3 DUP8 ADD PUSH2 0x3C58 JUMP JUMPDEST SWAP4 POP POP PUSH1 0x20 PUSH2 0x3EC2 DUP7 DUP3 DUP8 ADD PUSH2 0x3367 JUMP JUMPDEST SWAP3 POP POP PUSH1 0x40 DUP5 ADD CALLDATALOAD PUSH8 0xFFFFFFFFFFFFFFFF DUP2 GT ISZERO PUSH2 0x3EE3 JUMPI PUSH2 0x3EE2 PUSH2 0x32E3 JUMP JUMPDEST JUMPDEST PUSH2 0x3EEF DUP7 DUP3 DUP8 ADD PUSH2 0x3A86 JUMP JUMPDEST SWAP2 POP POP SWAP3 POP SWAP3 POP SWAP3 JUMP JUMPDEST PUSH1 0x0 DUP1 PUSH1 0x0 PUSH1 0x60 DUP5 DUP7 SUB SLT ISZERO PUSH2 0x3F12 JUMPI PUSH2 0x3F11 PUSH2 0x32DE JUMP JUMPDEST JUMPDEST PUSH1 0x0 PUSH2 0x3F20 DUP7 DUP3 DUP8 ADD PUSH2 0x3331 JUMP JUMPDEST SWAP4 POP POP PUSH1 0x20 PUSH2 0x3F31 DUP7 DUP3 DUP8 ADD PUSH2 0x3367 JUMP JUMPDEST SWAP3 POP POP PUSH1 0x40 DUP5 ADD CALLDATALOAD PUSH8 0xFFFFFFFFFFFFFFFF DUP2 GT ISZERO PUSH2 0x3F52 JUMPI PUSH2 0x3F51 PUSH2 0x32E3 JUMP JUMPDEST JUMPDEST PUSH2 0x3F5E DUP7 DUP3 DUP8 ADD PUSH2 0x3A86 JUMP JUMPDEST SWAP2 POP POP SWAP3 POP SWAP3 POP SWAP3 JUMP JUMPDEST PUSH2 0x3F71 DUP2 PUSH2 0x346B JUMP JUMPDEST DUP2 EQ PUSH2 0x3F7C JUMPI PUSH1 0x0 DUP1 REVERT JUMPDEST POP JUMP JUMPDEST PUSH1 0x0 DUP2 CALLDATALOAD SWAP1 POP PUSH2 0x3F8E DUP2 PUSH2 0x3F68 JUMP JUMPDEST SWAP3 SWAP2 POP POP JUMP JUMPDEST PUSH1 0x0 DUP1 PUSH1 0x40 DUP4 DUP6 SUB SLT ISZERO PUSH2 0x3FAB JUMPI PUSH2 0x3FAA PUSH2 0x32DE JUMP JUMPDEST JUMPDEST PUSH1 0x0 PUSH2 0x3FB9 DUP6 DUP3 DUP7 ADD PUSH2 0x3331 JUMP JUMPDEST SWAP3 POP POP PUSH1 0x20 PUSH2 0x3FCA DUP6 DUP3 DUP7 ADD PUSH2 0x3F7F JUMP JUMPDEST SWAP2 POP POP SWAP3 POP SWAP3 SWAP1 POP JUMP JUMPDEST PUSH1 0x0 DUP1 PUSH1 0x40 DUP4 DUP6 SUB SLT ISZERO PUSH2 0x3FEB JUMPI PUSH2 0x3FEA PUSH2 0x32DE JUMP JUMPDEST JUMPDEST PUSH1 0x0 PUSH2 0x3FF9 DUP6 DUP3 DUP7 ADD PUSH2 0x3367 JUMP JUMPDEST SWAP3 POP POP PUSH1 0x20 DUP4 ADD CALLDATALOAD PUSH8 0xFFFFFFFFFFFFFFFF DUP2 GT ISZERO PUSH2 0x401A JUMPI PUSH2 0x4019 PUSH2 0x32E3 JUMP JUMPDEST JUMPDEST PUSH2 0x4026 DUP6 DUP3 DUP7 ADD PUSH2 0x3C58 JUMP JUMPDEST SWAP2 POP POP SWAP3 POP SWAP3 SWAP1 POP JUMP JUMPDEST PUSH1 0x0 DUP2 MLOAD SWAP1 POP SWAP2 SWAP1 POP JUMP JUMPDEST PUSH1 0x0 DUP3 DUP3 MSTORE PUSH1 0x20 DUP3 ADD SWAP1 POP SWAP3 SWAP2 POP POP JUMP JUMPDEST PUSH1 0x0 DUP2 SWAP1 POP PUSH1 0x20 DUP3 ADD SWAP1 POP SWAP2 SWAP1 POP JUMP JUMPDEST PUSH1 0x0 PUSH2 0x4068 DUP4 DUP4 PUSH2 0x356D JUMP JUMPDEST PUSH1 0x20 DUP4 ADD SWAP1 POP SWAP3 SWAP2 POP POP JUMP JUMPDEST PUSH1 0x0 PUSH1 0x20 DUP3 ADD SWAP1 POP SWAP2 SWAP1 POP JUMP JUMPDEST PUSH1 0x0 PUSH2 0x408C DUP3 PUSH2 0x4030 JUMP JUMPDEST PUSH2 0x4096 DUP2 DUP6 PUSH2 0x403B JUMP JUMPDEST SWAP4 POP PUSH2 0x40A1 DUP4 PUSH2 0x404C JUMP JUMPDEST DUP1 PUSH1 0x0 JUMPDEST DUP4 DUP2 LT ISZERO PUSH2 0x40D2 JUMPI DUP2 MLOAD PUSH2 0x40B9 DUP9 DUP3 PUSH2 0x405C JUMP JUMPDEST SWAP8 POP PUSH2 0x40C4 DUP4 PUSH2 0x4074 JUMP JUMPDEST SWAP3 POP POP PUSH1 0x1 DUP2 ADD SWAP1 POP PUSH2 0x40A5 JUMP JUMPDEST POP DUP6 SWAP4 POP POP POP POP SWAP3 SWAP2 POP POP JUMP JUMPDEST PUSH1 0x0 PUSH1 0x20 DUP3 ADD SWAP1 POP DUP2 DUP2 SUB PUSH1 0x0 DUP4 ADD MSTORE PUSH2 0x40F9 DUP2 DUP5 PUSH2 0x4081 JUMP JUMPDEST SWAP1 POP SWAP3 SWAP2 POP POP JUMP JUMPDEST PUSH1 0x0 DUP1 PUSH1 0x40 DUP4 DUP6 SUB SLT ISZERO PUSH2 0x4118 JUMPI PUSH2 0x4117 PUSH2 0x32DE JUMP JUMPDEST JUMPDEST PUSH1 0x0 PUSH2 0x4126 DUP6 DUP3 DUP7 ADD PUSH2 0x3331 JUMP JUMPDEST SWAP3 POP POP PUSH1 0x20 PUSH2 0x4137 DUP6 DUP3 DUP7 ADD PUSH2 0x3331 JUMP JUMPDEST SWAP2 POP POP SWAP3 POP SWAP3 SWAP1 POP JUMP JUMPDEST PUSH1 0x0 DUP1 PUSH1 0x0 DUP1 PUSH1 0x0 PUSH1 0xA0 DUP7 DUP9 SUB SLT ISZERO PUSH2 0x415D JUMPI PUSH2 0x415C PUSH2 0x32DE JUMP JUMPDEST JUMPDEST PUSH1 0x0 PUSH2 0x416B DUP9 DUP3 DUP10 ADD PUSH2 0x3331 JUMP JUMPDEST SWAP6 POP POP PUSH1 0x20 PUSH2 0x417C DUP9 DUP3 DUP10 ADD PUSH2 0x3331 JUMP JUMPDEST SWAP5 POP POP PUSH1 0x40 PUSH2 0x418D DUP9 DUP3 DUP10 ADD PUSH2 0x3367 JUMP JUMPDEST SWAP4 POP POP PUSH1 0x60 PUSH2 0x419E DUP9 DUP3 DUP10 ADD PUSH2 0x3367 JUMP JUMPDEST SWAP3 POP POP PUSH1 0x80 DUP7 ADD CALLDATALOAD PUSH8 0xFFFFFFFFFFFFFFFF DUP2 GT ISZERO PUSH2 0x41BF JUMPI PUSH2 0x41BE PUSH2 0x32E3 JUMP JUMPDEST JUMPDEST PUSH2 0x41CB DUP9 DUP3 DUP10 ADD PUSH2 0x3A86 JUMP JUMPDEST SWAP2 POP POP SWAP3 SWAP6 POP SWAP3 SWAP6 SWAP1 SWAP4 POP JUMP JUMPDEST PUSH32 0x436F7572736520646F6573206E6F742065786973740000000000000000000000 PUSH1 0x0 DUP3 ADD MSTORE POP JUMP JUMPDEST PUSH1 0x0 PUSH2 0x420E PUSH1 0x15 DUP4 PUSH2 0x3622 JUMP JUMPDEST SWAP2 POP PUSH2 0x4219 DUP3 PUSH2 0x41D8 JUMP JUMPDEST PUSH1 0x20 DUP3 ADD SWAP1 POP SWAP2 SWAP1 POP JUMP JUMPDEST PUSH1 0x0 PUSH1 0x20 DUP3 ADD SWAP1 POP DUP2 DUP2 SUB PUSH1 0x0 DUP4 ADD MSTORE PUSH2 0x423D DUP2 PUSH2 0x4201 JUMP JUMPDEST SWAP1 POP SWAP2 SWAP1 POP JUMP JUMPDEST PUSH32 0x4E487B7100000000000000000000000000000000000000000000000000000000 PUSH1 0x0 MSTORE PUSH1 0x22 PUSH1 0x4 MSTORE PUSH1 0x24 PUSH1 0x0 REVERT JUMPDEST PUSH1 0x0 PUSH1 0x2 DUP3 DIV SWAP1 POP PUSH1 0x1 DUP3 AND DUP1 PUSH2 0x428B JUMPI PUSH1 0x7F DUP3 AND SWAP2 POP JUMPDEST PUSH1 0x20 DUP3 LT DUP2 SUB PUSH2 0x429E JUMPI PUSH2 0x429D PUSH2 0x4244 JUMP JUMPDEST JUMPDEST POP SWAP2 SWAP1 POP JUMP JUMPDEST PUSH1 0x0 DUP2 SWAP1 POP SWAP3 SWAP2 POP POP JUMP JUMPDEST PUSH32 0x7B226E616D65223A220000000000000000000000000000000000000000000000 PUSH1 0x0 DUP3 ADD MSTORE POP JUMP JUMPDEST PUSH1 0x0 PUSH2 0x42E5 PUSH1 0x9 DUP4 PUSH2 0x42A4 JUMP JUMPDEST SWAP2 POP PUSH2 0x42F0 DUP3 PUSH2 0x42AF JUMP JUMPDEST PUSH1 0x9 DUP3 ADD SWAP1 POP SWAP2 SWAP1 POP JUMP JUMPDEST PUSH1 0x0 PUSH2 0x4306 DUP3 PUSH2 0x34CE JUMP JUMPDEST PUSH2 0x4310 DUP2 DUP6 PUSH2 0x42A4 JUMP JUMPDEST SWAP4 POP PUSH2 0x4320 DUP2 DUP6 PUSH1 0x20 DUP7 ADD PUSH2 0x34EA JUMP JUMPDEST DUP1 DUP5 ADD SWAP2 POP POP SWAP3 SWAP2 POP POP JUMP JUMPDEST PUSH32 0x222C226465736372697074696F6E223A224F6666696369616C20636572746966 PUSH1 0x0 DUP3 ADD MSTORE PUSH32 0x69636174696F6E20666F72200000000000000000000000000000000000000000 PUSH1 0x20 DUP3 ADD MSTORE POP JUMP JUMPDEST PUSH1 0x0 PUSH2 0x4388 PUSH1 0x2C DUP4 PUSH2 0x42A4 JUMP JUMPDEST SWAP2 POP PUSH2 0x4393 DUP3 PUSH2 0x432C JUMP JUMPDEST PUSH1 0x2C DUP3 ADD SWAP1 POP SWAP2 SWAP1 POP JUMP JUMPDEST PUSH32 0x222C22696D616765223A22000000000000000000000000000000000000000000 PUSH1 0x0 DUP3 ADD MSTORE POP JUMP JUMPDEST PUSH1 0x0 PUSH2 0x43D4 PUSH1 0xB DUP4 PUSH2 0x42A4 JUMP JUMPDEST SWAP2 POP PUSH2 0x43DF DUP3 PUSH2 0x439E JUMP JUMPDEST PUSH1 0xB DUP3 ADD SWAP1 POP SWAP2 SWAP1 POP JUMP JUMPDEST PUSH32 0x222C2261747472696275746573223A5B00000000000000000000000000000000 PUSH1 0x0 DUP3 ADD MSTORE POP JUMP JUMPDEST PUSH1 0x0 PUSH2 0x4420 PUSH1 0x10 DUP4 PUSH2 0x42A4 JUMP JUMPDEST SWAP2 POP PUSH2 0x442B DUP3 PUSH2 0x43EA JUMP JUMPDEST PUSH1 0x10 DUP3 ADD SWAP1 POP SWAP2 SWAP1 POP JUMP JUMPDEST PUSH32 0x7B2274726169745F74797065223A22436F7572736520436F6465222C2276616C PUSH1 0x0 DUP3 ADD MSTORE PUSH32 0x7565223A22000000000000000000000000000000000000000000000000000000 PUSH1 0x20 DUP3 ADD MSTORE POP JUMP JUMPDEST PUSH1 0x0 PUSH2 0x4492 PUSH1 0x25 DUP4 PUSH2 0x42A4 JUMP JUMPDEST SWAP2 POP PUSH2 0x449D DUP3 PUSH2 0x4436 JUMP JUMPDEST PUSH1 0x25 DUP3 ADD SWAP1 POP SWAP2 SWAP1 POP JUMP JUMPDEST PUSH32 0x227D2C0000000000000000000000000000000000000000000000000000000000 PUSH1 0x0 DUP3 ADD MSTORE POP JUMP JUMPDEST PUSH1 0x0 PUSH2 0x44DE PUSH1 0x3 DUP4 PUSH2 0x42A4 JUMP JUMPDEST SWAP2 POP PUSH2 0x44E9 DUP3 PUSH2 0x44A8 JUMP JUMPDEST PUSH1 0x3 DUP3 ADD SWAP1 POP SWAP2 SWAP1 POP JUMP JUMPDEST PUSH32 0x7B2274726169745F74797065223A2256616C6964697479204475726174696F6E PUSH1 0x0 DUP3 ADD MSTORE PUSH32 0x222C2276616C7565223A22000000000000000000000000000000000000000000 PUSH1 0x20 DUP3 ADD MSTORE POP JUMP JUMPDEST PUSH1 0x0 PUSH2 0x4550 PUSH1 0x2B DUP4 PUSH2 0x42A4 JUMP JUMPDEST SWAP2 POP PUSH2 0x455B DUP3 PUSH2 0x44F4 JUMP JUMPDEST PUSH1 0x2B DUP3 ADD SWAP1 POP SWAP2 SWAP1 POP JUMP JUMPDEST PUSH32 0x207365636F6E6473227D00000000000000000000000000000000000000000000 PUSH1 0x0 DUP3 ADD MSTORE POP JUMP JUMPDEST PUSH1 0x0 PUSH2 0x459C PUSH1 0xA DUP4 PUSH2 0x42A4 JUMP JUMPDEST SWAP2 POP PUSH2 0x45A7 DUP3 PUSH2 0x4566 JUMP JUMPDEST PUSH1 0xA DUP3 ADD SWAP1 POP SWAP2 SWAP1 POP JUMP JUMPDEST PUSH32 0x5D7D000000000000000000000000000000000000000000000000000000000000 PUSH1 0x0 DUP3 ADD MSTORE POP JUMP JUMPDEST PUSH1 0x0 PUSH2 0x45E8 PUSH1 0x2 DUP4 PUSH2 0x42A4 JUMP JUMPDEST SWAP2 POP PUSH2 0x45F3 DUP3 PUSH2 0x45B2 JUMP JUMPDEST PUSH1 0x2 DUP3 ADD SWAP1 POP SWAP2 SWAP1 POP JUMP JUMPDEST PUSH1 0x0 PUSH2 0x4609 DUP3 PUSH2 0x42D8 JUMP JUMPDEST SWAP2 POP PUSH2 0x4615 DUP3 DUP9 PUSH2 0x42FB JUMP JUMPDEST SWAP2 POP PUSH2 0x4620 DUP3 PUSH2 0x437B JUMP JUMPDEST SWAP2 POP PUSH2 0x462C DUP3 DUP8 PUSH2 0x42FB JUMP JUMPDEST SWAP2 POP PUSH2 0x4637 DUP3 PUSH2 0x43C7 JUMP JUMPDEST SWAP2 POP PUSH2 0x4643 DUP3 DUP7 PUSH2 0x42FB JUMP JUMPDEST SWAP2 POP PUSH2 0x464E DUP3 PUSH2 0x4413 JUMP JUMPDEST SWAP2 POP PUSH2 0x4659 DUP3 PUSH2 0x4485 JUMP JUMPDEST SWAP2 POP PUSH2 0x4665 DUP3 DUP6 PUSH2 0x42FB JUMP JUMPDEST SWAP2 POP PUSH2 0x4670 DUP3 PUSH2 0x44D1 JUMP JUMPDEST SWAP2 POP PUSH2 0x467B DUP3 PUSH2 0x4543 JUMP JUMPDEST SWAP2 POP PUSH2 0x4687 DUP3 DUP5 PUSH2 0x42FB JUMP JUMPDEST SWAP2 POP PUSH2 0x4692 DUP3 PUSH2 0x458F JUMP JUMPDEST SWAP2 POP PUSH2 0x469D DUP3 PUSH2 0x45DB JUMP JUMPDEST SWAP2 POP DUP2 SWAP1 POP SWAP7 SWAP6 POP POP POP POP POP POP JUMP JUMPDEST PUSH32 0x646174613A6170706C69636174696F6E2F6A736F6E3B6261736536342C000000 PUSH1 0x0 DUP3 ADD MSTORE POP JUMP JUMPDEST PUSH1 0x0 PUSH2 0x46E2 PUSH1 0x1D DUP4 PUSH2 0x42A4 JUMP JUMPDEST SWAP2 POP PUSH2 0x46ED DUP3 PUSH2 0x46AC JUMP JUMPDEST PUSH1 0x1D DUP3 ADD SWAP1 POP SWAP2 SWAP1 POP JUMP JUMPDEST PUSH1 0x0 PUSH2 0x4703 DUP3 PUSH2 0x46D5 JUMP JUMPDEST SWAP2 POP PUSH2 0x470F DUP3 DUP5 PUSH2 0x42FB JUMP JUMPDEST SWAP2 POP DUP2 SWAP1 POP SWAP3 SWAP2 POP POP JUMP JUMPDEST PUSH32 0x436F7572736520636F64652063616E6E6F7420626520656D7074790000000000 PUSH1 0x0 DUP3 ADD MSTORE POP JUMP JUMPDEST PUSH1 0x0 PUSH2 0x4750 PUSH1 0x1B DUP4 PUSH2 0x3622 JUMP JUMPDEST SWAP2 POP PUSH2 0x475B DUP3 PUSH2 0x471A JUMP JUMPDEST PUSH1 0x20 DUP3 ADD SWAP1 POP SWAP2 SWAP1 POP JUMP JUMPDEST PUSH1 0x0 PUSH1 0x20 DUP3 ADD SWAP1 POP DUP2 DUP2 SUB PUSH1 0x0 DUP4 ADD MSTORE PUSH2 0x477F DUP2 PUSH2 0x4743 JUMP JUMPDEST SWAP1 POP SWAP2 SWAP1 POP JUMP JUMPDEST PUSH32 0x436F75727365206E616D652063616E6E6F7420626520656D7074790000000000 PUSH1 0x0 DUP3 ADD MSTORE POP JUMP JUMPDEST PUSH1 0x0 PUSH2 0x47BC PUSH1 0x1B DUP4 PUSH2 0x3622 JUMP JUMPDEST SWAP2 POP PUSH2 0x47C7 DUP3 PUSH2 0x4786 JUMP JUMPDEST PUSH1 0x20 DUP3 ADD SWAP1 POP SWAP2 SWAP1 POP JUMP JUMPDEST PUSH1 0x0 PUSH1 0x20 DUP3 ADD SWAP1 POP DUP2 DUP2 SUB PUSH1 0x0 DUP4 ADD MSTORE PUSH2 0x47EB DUP2 PUSH2 0x47AF JUMP JUMPDEST SWAP1 POP SWAP2 SWAP1 POP JUMP JUMPDEST PUSH32 0x496D616765205552492063616E6E6F7420626520656D70747900000000000000 PUSH1 0x0 DUP3 ADD MSTORE POP JUMP JUMPDEST PUSH1 0x0 PUSH2 0x4828 PUSH1 0x19 DUP4 PUSH2 0x3622 JUMP JUMPDEST SWAP2 POP PUSH2 0x4833 DUP3 PUSH2 0x47F2 JUMP JUMPDEST PUSH1 0x20 DUP3 ADD SWAP1 POP SWAP2 SWAP1 POP JUMP JUMPDEST PUSH1 0x0 PUSH1 0x20 DUP3 ADD SWAP1 POP DUP2 DUP2 SUB PUSH1 0x0 DUP4 ADD MSTORE PUSH2 0x4857 DUP2 PUSH2 0x481B JUMP JUMPDEST SWAP1 POP SWAP2 SWAP1 POP JUMP JUMPDEST PUSH32 0x56616C6964697479206475726174696F6E206D75737420626520677265617465 PUSH1 0x0 DUP3 ADD MSTORE PUSH32 0x72207468616E207A65726F000000000000000000000000000000000000000000 PUSH1 0x20 DUP3 ADD MSTORE POP JUMP JUMPDEST PUSH1 0x0 PUSH2 0x48BA PUSH1 0x2B DUP4 PUSH2 0x3622 JUMP JUMPDEST SWAP2 POP PUSH2 0x48C5 DUP3 PUSH2 0x485E JUMP JUMPDEST PUSH1 0x40 DUP3 ADD SWAP1 POP SWAP2 SWAP1 POP JUMP JUMPDEST PUSH1 0x0 PUSH1 0x20 DUP3 ADD SWAP1 POP DUP2 DUP2 SUB PUSH1 0x0 DUP4 ADD MSTORE PUSH2 0x48E9 DUP2 PUSH2 0x48AD JUMP JUMPDEST SWAP1 POP SWAP2 SWAP1 POP JUMP JUMPDEST PUSH32 0x436F7572736520636F646520616C726561647920657869737473000000000000 PUSH1 0x0 DUP3 ADD MSTORE POP JUMP JUMPDEST PUSH1 0x0 PUSH2 0x4926 PUSH1 0x1A DUP4 PUSH2 0x3622 JUMP JUMPDEST SWAP2 POP PUSH2 0x4931 DUP3 PUSH2 0x48F0 JUMP JUMPDEST PUSH1 0x20 DUP3 ADD SWAP1 POP SWAP2 SWAP1 POP JUMP JUMPDEST PUSH1 0x0 PUSH1 0x20 DUP3 ADD SWAP1 POP DUP2 DUP2 SUB PUSH1 0x0 DUP4 ADD MSTORE PUSH2 0x4955 DUP2 PUSH2 0x4919 JUMP JUMPDEST SWAP1 POP SWAP2 SWAP1 POP JUMP JUMPDEST PUSH32 0x4E487B7100000000000000000000000000000000000000000000000000000000 PUSH1 0x0 MSTORE PUSH1 0x11 PUSH1 0x4 MSTORE PUSH1 0x24 PUSH1 0x0 REVERT JUMPDEST PUSH1 0x0 PUSH2 0x4996 DUP3 PUSH2 0x3346 JUMP JUMPDEST SWAP2 POP PUSH32 0xFFFFFFFFFFFFFFFFFFFFFFFFFFFFFFFFFFFFFFFFFFFFFFFFFFFFFFFFFFFFFFFF DUP3 SUB PUSH2 0x49C8 JUMPI PUSH2 0x49C7 PUSH2 0x495C JUMP JUMPDEST JUMPDEST PUSH1 0x1 DUP3 ADD SWAP1 POP SWAP2 SWAP1 POP JUMP JUMPDEST PUSH1 0x0 DUP2 SWAP1 POP DUP2 PUSH1 0x0 MSTORE PUSH1 0x20 PUSH1 0x0 KECCAK256 SWAP1 POP SWAP2 SWAP1 POP JUMP JUMPDEST PUSH1 0x0 PUSH1 0x20 PUSH1 0x1F DUP4 ADD DIV SWAP1 POP SWAP2 SWAP1 POP JUMP JUMPDEST PUSH1 0x0 DUP3 DUP3 SHL SWAP1 POP SWAP3 SWAP2 POP POP JUMP JUMPDEST PUSH1 0x0 PUSH1 0x8 DUP4 MUL PUSH2 0x4A35 PUSH32 0xFFFFFFFFFFFFFFFFFFFFFFFFFFFFFFFFFFFFFFFFFFFFFFFFFFFFFFFFFFFFFFFF DUP3 PUSH2 0x49F8 JUMP JUMPDEST PUSH2 0x4A3F DUP7 DUP4 PUSH2 0x49F8 JUMP JUMPDEST SWAP6 POP DUP1 NOT DUP5 AND SWAP4 POP DUP1 DUP7 AND DUP5 OR SWAP3 POP POP POP SWAP4 SWAP3 POP POP POP JUMP JUMPDEST PUSH1 0x0 DUP2 SWAP1 POP SWAP2 SWAP1 POP JUMP JUMPDEST PUSH1 0x0 PUSH2 0x4A7C PUSH2 0x4A77 PUSH2 0x4A72 DUP5 PUSH2 0x3346 JUMP JUMPDEST PUSH2 0x4A57 JUMP JUMPDEST PUSH2 0x3346 JUMP JUMPDEST SWAP1 POP SWAP2 SWAP1 POP JUMP JUMPDEST PUSH1 0x0 DUP2 SWAP1 POP SWAP2 SWAP1 POP JUMP JUMPDEST PUSH2 0x4A96 DUP4 PUSH2 0x4A61 JUMP JUMPDEST PUSH2 0x4AAA PUSH2 0x4AA2 DUP3 PUSH2 0x4A83 JUMP JUMPDEST DUP5 DUP5 SLOAD PUSH2 0x4A05 JUMP JUMPDEST DUP3 SSTORE POP POP POP POP JUMP JUMPDEST PUSH1 0x0 SWAP1 JUMP JUMPDEST PUSH2 0x4ABF PUSH2 0x4AB2 JUMP JUMPDEST PUSH2 0x4ACA DUP2 DUP5 DUP5 PUSH2 0x4A8D JUMP JUMPDEST POP POP POP JUMP JUMPDEST JUMPDEST DUP2 DUP2 LT ISZERO PUSH2 0x4AEE JUMPI PUSH2 0x4AE3 PUSH1 0x0 DUP3 PUSH2 0x4AB7 JUMP JUMPDEST PUSH1 0x1 DUP2 ADD SWAP1 POP PUSH2 0x4AD0 JUMP JUMPDEST POP POP JUMP JUMPDEST PUSH1 0x1F DUP3 GT ISZERO PUSH2 0x4B33 JUMPI PUSH2 0x4B04 DUP2 PUSH2 0x49D3 JUMP JUMPDEST PUSH2 0x4B0D DUP5 PUSH2 0x49E8 JUMP JUMPDEST DUP2 ADD PUSH1 0x20 DUP6 LT ISZERO PUSH2 0x4B1C JUMPI DUP2 SWAP1 POP JUMPDEST PUSH2 0x4B30 PUSH2 0x4B28 DUP6 PUSH2 0x49E8 JUMP JUMPDEST DUP4 ADD DUP3 PUSH2 0x4ACF JUMP JUMPDEST POP POP JUMPDEST POP POP POP JUMP JUMPDEST PUSH1 0x0 DUP3 DUP3 SHR SWAP1 POP SWAP3 SWAP2 POP POP JUMP JUMPDEST PUSH1 0x0 PUSH2 0x4B56 PUSH1 0x0 NOT DUP5 PUSH1 0x8 MUL PUSH2 0x4B38 JUMP JUMPDEST NOT DUP1 DUP4 AND SWAP2 POP POP SWAP3 SWAP2 POP POP JUMP JUMPDEST PUSH1 0x0 PUSH2 0x4B6F DUP4 DUP4 PUSH2 0x4B45 JUMP JUMPDEST SWAP2 POP DUP3 PUSH1 0x2 MUL DUP3 OR SWAP1 POP SWAP3 SWAP2 POP POP JUMP JUMPDEST PUSH2 0x4B88 DUP3 PUSH2 0x34CE JUMP JUMPDEST PUSH8 0xFFFFFFFFFFFFFFFF DUP2 GT ISZERO PUSH2 0x4BA1 JUMPI PUSH2 0x4BA0 PUSH2 0x3698 JUMP JUMPDEST JUMPDEST PUSH2 0x4BAB DUP3 SLOAD PUSH2 0x4273 JUMP JUMPDEST PUSH2 0x4BB6 DUP3 DUP3 DUP6 PUSH2 0x4AF2 JUMP JUMPDEST PUSH1 0x0 PUSH1 0x20 SWAP1 POP PUSH1 0x1F DUP4 GT PUSH1 0x1 DUP2 EQ PUSH2 0x4BE9 JUMPI PUSH1 0x0 DUP5 ISZERO PUSH2 0x4BD7 JUMPI DUP3 DUP8 ADD MLOAD SWAP1 POP JUMPDEST PUSH2 0x4BE1 DUP6 DUP3 PUSH2 0x4B63 JUMP JUMPDEST DUP7 SSTORE POP PUSH2 0x4C49 JUMP JUMPDEST PUSH1 0x1F NOT DUP5 AND PUSH2 0x4BF7 DUP7 PUSH2 0x49D3 JUMP JUMPDEST PUSH1 0x0 JUMPDEST DUP3 DUP2 LT ISZERO PUSH2 0x4C1F JUMPI DUP5 DUP10 ADD MLOAD DUP3 SSTORE PUSH1 0x1 DUP3 ADD SWAP2 POP PUSH1 0x20 DUP6 ADD SWAP5 POP PUSH1 0x20 DUP2 ADD SWAP1 POP PUSH2 0x4BFA JUMP JUMPDEST DUP7 DUP4 LT ISZERO PUSH2 0x4C3C JUMPI DUP5 DUP10 ADD MLOAD PUSH2 0x4C38 PUSH1 0x1F DUP10 AND DUP3 PUSH2 0x4B45 JUMP JUMPDEST DUP4 SSTORE POP JUMPDEST PUSH1 0x1 PUSH1 0x2 DUP9 MUL ADD DUP9 SSTORE POP POP POP JUMPDEST POP POP POP POP POP POP JUMP JUMPDEST PUSH1 0x0 PUSH1 0x40 DUP3 ADD SWAP1 POP DUP2 DUP2 SUB PUSH1 0x0 DUP4 ADD MSTORE PUSH2 0x4C6B DUP2 DUP6 PUSH2 0x3633 JUMP JUMPDEST SWAP1 POP DUP2 DUP2 SUB PUSH1 0x20 DUP4 ADD MSTORE PUSH2 0x4C7F DUP2 DUP5 PUSH2 0x3633 JUMP JUMPDEST SWAP1 POP SWAP4 SWAP3 POP POP POP JUMP JUMPDEST PUSH1 0x0 PUSH2 0x4C93 DUP3 PUSH2 0x3346 JUMP JUMPDEST SWAP2 POP PUSH2 0x4C9E DUP4 PUSH2 0x3346 JUMP JUMPDEST SWAP3 POP DUP3 DUP3 ADD SWAP1 POP DUP1 DUP3 GT ISZERO PUSH2 0x4CB6 JUMPI PUSH2 0x4CB5 PUSH2 0x495C JUMP JUMPDEST JUMPDEST SWAP3 SWAP2 POP POP JUMP JUMPDEST PUSH2 0x4CC5 DUP2 PUSH2 0x3308 JUMP JUMPDEST DUP3 MSTORE POP POP JUMP JUMPDEST PUSH1 0x0 PUSH1 0x40 DUP3 ADD SWAP1 POP PUSH2 0x4CE0 PUSH1 0x0 DUP4 ADD DUP6 PUSH2 0x4CBC JUMP JUMPDEST PUSH2 0x4CED PUSH1 0x20 DUP4 ADD DUP5 PUSH2 0x4CBC JUMP JUMPDEST SWAP4 SWAP3 POP POP POP JUMP JUMPDEST PUSH1 0x0 PUSH1 0x40 DUP3 ADD SWAP1 POP PUSH2 0x4D09 PUSH1 0x0 DUP4 ADD DUP6 PUSH2 0x33BC JUMP JUMPDEST PUSH2 0x4D16 PUSH1 0x20 DUP4 ADD DUP5 PUSH2 0x33BC JUMP JUMPDEST SWAP4 SWAP3 POP POP POP JUMP JUMPDEST PUSH32 0x4E487B7100000000000000000000000000000000000000000000000000000000 PUSH1 0x0 MSTORE PUSH1 0x32 PUSH1 0x4 MSTORE PUSH1 0x24 PUSH1 0x0 REVERT JUMPDEST PUSH1 0x0 PUSH1 0x60 DUP3 ADD SWAP1 POP DUP2 DUP2 SUB PUSH1 0x0 DUP4 ADD MSTORE PUSH2 0x4D66 DUP2 DUP7 PUSH2 0x3633 JUMP JUMPDEST SWAP1 POP DUP2 DUP2 SUB PUSH1 0x20 DUP4 ADD MSTORE PUSH2 0x4D7A DUP2 DUP6 PUSH2 0x3633 JUMP JUMPDEST SWAP1 POP PUSH2 0x4D89 PUSH1 0x40 DUP4 ADD DUP5 PUSH2 0x33BC JUMP JUMPDEST SWAP5 SWAP4 POP POP POP POP JUMP JUMPDEST PUSH32 0x526563697069656E74732061727261792063616E6E6F7420626520656D707479 PUSH1 0x0 DUP3 ADD MSTORE POP JUMP JUMPDEST PUSH1 0x0 PUSH2 0x4DC7 PUSH1 0x20 DUP4 PUSH2 0x3622 JUMP JUMPDEST SWAP2 POP PUSH2 0x4DD2 DUP3 PUSH2 0x4D91 JUMP JUMPDEST PUSH1 0x20 DUP3 ADD SWAP1 POP SWAP2 SWAP1 POP JUMP JUMPDEST PUSH1 0x0 PUSH1 0x20 DUP3 ADD SWAP1 POP DUP2 DUP2 SUB PUSH1 0x0 DUP4 ADD MSTORE PUSH2 0x4DF6 DUP2 PUSH2 0x4DBA JUMP JUMPDEST SWAP1 POP SWAP2 SWAP1 POP JUMP JUMPDEST PUSH32 0x43616E6E6F74206D696E7420746F207A65726F20616464726573730000000000 PUSH1 0x0 DUP3 ADD MSTORE POP JUMP JUMPDEST PUSH1 0x0 PUSH2 0x4E33 PUSH1 0x1B DUP4 PUSH2 0x3622 JUMP JUMPDEST SWAP2 POP PUSH2 0x4E3E DUP3 PUSH2 0x4DFD JUMP JUMPDEST PUSH1 0x20 DUP3 ADD SWAP1 POP SWAP2 SWAP1 POP JUMP JUMPDEST PUSH1 0x0 PUSH1 0x20 DUP3 ADD SWAP1 POP DUP2 DUP2 SUB PUSH1 0x0 DUP4 ADD MSTORE PUSH2 0x4E62 DUP2 PUSH2 0x4E26 JUMP JUMPDEST SWAP1 POP SWAP2 SWAP1 POP JUMP JUMPDEST PUSH1 0x0 PUSH2 0x4E74 DUP3 PUSH2 0x3346 JUMP JUMPDEST SWAP2 POP PUSH2 0x4E7F DUP4 PUSH2 0x3346 JUMP JUMPDEST SWAP3 POP DUP3 DUP3 SUB SWAP1 POP DUP2 DUP2 GT ISZERO PUSH2 0x4E97 JUMPI PUSH2 0x4E96 PUSH2 0x495C JUMP JUMPDEST JUMPDEST SWAP3 SWAP2 POP POP JUMP JUMPDEST PUSH32 0x486F6C646572732061727261792063616E6E6F7420626520656D707479000000 PUSH1 0x0 DUP3 ADD MSTORE POP JUMP JUMPDEST PUSH1 0x0 PUSH2 0x4ED3 PUSH1 0x1D DUP4 PUSH2 0x3622 JUMP JUMPDEST SWAP2 POP PUSH2 0x4EDE DUP3 PUSH2 0x4E9D JUMP JUMPDEST PUSH1 0x20 DUP3 ADD SWAP1 POP SWAP2 SWAP1 POP JUMP JUMPDEST PUSH1 0x0 PUSH1 0x20 DUP3 ADD SWAP1 POP DUP2 DUP2 SUB PUSH1 0x0 DUP4 ADD MSTORE PUSH2 0x4F02 DUP2 PUSH2 0x4EC6 JUMP JUMPDEST SWAP1 POP SWAP2 SWAP1 POP JUMP JUMPDEST PUSH32 0x4E487B7100000000000000000000000000000000000000000000000000000000 PUSH1 0x0 MSTORE PUSH1 0x12 PUSH1 0x4 MSTORE PUSH1 0x24 PUSH1 0x0 REVERT JUMPDEST PUSH1 0x0 PUSH1 0x20 DUP3 ADD SWAP1 POP PUSH2 0x4F4D PUSH1 0x0 DUP4 ADD DUP5 PUSH2 0x4CBC JUMP JUMPDEST SWAP3 SWAP2 POP POP JUMP JUMPDEST PUSH1 0x0 PUSH2 0x4F5E DUP3 PUSH2 0x3346 JUMP JUMPDEST SWAP2 POP PUSH2 0x4F69 DUP4 PUSH2 0x3346 JUMP JUMPDEST SWAP3 POP DUP3 DUP3 MUL PUSH2 0x4F77 DUP2 PUSH2 0x3346 JUMP JUMPDEST SWAP2 POP DUP3 DUP3 DIV DUP5 EQ DUP4 ISZERO OR PUSH2 0x4F8E JUMPI PUSH2 0x4F8D PUSH2 0x495C JUMP JUMPDEST JUMPDEST POP SWAP3 SWAP2 POP POP JUMP JUMPDEST PUSH1 0x0 PUSH2 0x4FA0 DUP3 PUSH2 0x3346 JUMP JUMPDEST SWAP2 POP PUSH2 0x4FAB DUP4 PUSH2 0x3346 JUMP JUMPDEST SWAP3 POP DUP3 PUSH2 0x4FBB JUMPI PUSH2 0x4FBA PUSH2 0x4F09 JUMP JUMPDEST JUMPDEST DUP3 DUP3 DIV SWAP1 POP SWAP3 SWAP2 POP POP JUMP JUMPDEST PUSH1 0x0 PUSH1 0x40 DUP3 ADD SWAP1 POP PUSH2 0x4FDB PUSH1 0x0 DUP4 ADD DUP6 PUSH2 0x4CBC JUMP JUMPDEST PUSH2 0x4FE8 PUSH1 0x20 DUP4 ADD DUP5 PUSH2 0x38E1 JUMP JUMPDEST SWAP4 SWAP3 POP POP POP JUMP JUMPDEST PUSH1 0x0 DUP2 MLOAD SWAP1 POP SWAP2 SWAP1 POP JUMP JUMPDEST PUSH1 0x0 DUP3 DUP3 MSTORE PUSH1 0x20 DUP3 ADD SWAP1 POP SWAP3 SWAP2 POP POP JUMP JUMPDEST PUSH1 0x0 PUSH2 0x5016 DUP3 PUSH2 0x4FEF JUMP JUMPDEST PUSH2 0x5020 DUP2 DUP6 PUSH2 0x4FFA JUMP JUMPDEST SWAP4 POP PUSH2 0x5030 DUP2 DUP6 PUSH1 0x20 DUP7 ADD PUSH2 0x34EA JUMP JUMPDEST PUSH2 0x5039 DUP2 PUSH2 0x3514 JUMP JUMPDEST DUP5 ADD SWAP2 POP POP SWAP3 SWAP2 POP POP JUMP JUMPDEST PUSH1 0x0 PUSH1 0xA0 DUP3 ADD SWAP1 POP PUSH2 0x5059 PUSH1 0x0 DUP4 ADD DUP9 PUSH2 0x4CBC JUMP JUMPDEST PUSH2 0x5066 PUSH1 0x20 DUP4 ADD DUP8 PUSH2 0x4CBC JUMP JUMPDEST PUSH2 0x5073 PUSH1 0x40 DUP4 ADD DUP7 PUSH2 0x33BC JUMP JUMPDEST PUSH2 0x5080 PUSH1 0x60 DUP4 ADD DUP6 PUSH2 0x33BC JUMP JUMPDEST DUP2 DUP2 SUB PUSH1 0x80 DUP4 ADD MSTORE PUSH2 0x5092 DUP2 DUP5 PUSH2 0x500B JUMP JUMPDEST SWAP1 POP SWAP7 SWAP6 POP POP POP POP POP POP JUMP JUMPDEST PUSH1 0x0 DUP2 MLOAD SWAP1 POP PUSH2 0x50AD DUP2 PUSH2 0x3412 JUMP JUMPDEST SWAP3 SWAP2 POP POP JUMP JUMPDEST PUSH1 0x0 PUSH1 0x20 DUP3 DUP5 SUB SLT ISZERO PUSH2 0x50C9 JUMPI PUSH2 0x50C8 PUSH2 0x32DE JUMP JUMPDEST JUMPDEST PUSH1 0x0 PUSH2 0x50D7 DUP5 DUP3 DUP6 ADD PUSH2 0x509E JUMP JUMPDEST SWAP2 POP POP SWAP3 SWAP2 POP POP JUMP JUMPDEST PUSH1 0x0 PUSH1 0xA0 DUP3 ADD SWAP1 POP PUSH2 0x50F5 PUSH1 0x0 DUP4 ADD DUP9 PUSH2 0x4CBC JUMP JUMPDEST PUSH2 0x5102 PUSH1 0x20 DUP4 ADD DUP8 PUSH2 0x4CBC JUMP JUMPDEST DUP2 DUP2 SUB PUSH1 0x40 DUP4 ADD MSTORE PUSH2 0x5114 DUP2 DUP7 PUSH2 0x3D4F JUMP JUMPDEST SWAP1 POP DUP2 DUP2 SUB PUSH1 0x60 DUP4 ADD MSTORE PUSH2 0x5128 DUP2 DUP6 PUSH2 0x3D4F JUMP JUMPDEST SWAP1 POP DUP2 DUP2 SUB PUSH1 0x80 DUP4 ADD MSTORE PUSH2 0x513C DUP2 DUP5 PUSH2 0x500B JUMP JUMPDEST SWAP1 POP SWAP7 SWAP6 POP POP POP POP POP POP JUMP JUMPDEST PUSH1 0x0 PUSH1 0x80 DUP3 ADD SWAP1 POP PUSH2 0x515D PUSH1 0x0 DUP4 ADD DUP8 PUSH2 0x4CBC JUMP JUMPDEST PUSH2 0x516A PUSH1 0x20 DUP4 ADD DUP7 PUSH2 0x33BC JUMP JUMPDEST PUSH2 0x5177 PUSH1 0x40 DUP4 ADD DUP6 PUSH2 0x33BC JUMP JUMPDEST PUSH2 0x5184 PUSH1 0x60 DUP4 ADD DUP5 PUSH2 0x33BC JUMP JUMPDEST SWAP6 SWAP5 POP POP POP POP POP JUMP JUMPDEST PUSH1 0x0 PUSH1 0x40 DUP3 ADD SWAP1 POP DUP2 DUP2 SUB PUSH1 0x0 DUP4 ADD MSTORE PUSH2 0x51A7 DUP2 DUP6 PUSH2 0x3D4F JUMP JUMPDEST SWAP1 POP DUP2 DUP2 SUB PUSH1 0x20 DUP4 ADD MSTORE PUSH2 0x51BB DUP2 DUP5 PUSH2 0x3D4F JUMP JUMPDEST SWAP1 POP SWAP4 SWAP3 POP POP POP JUMP INVALID COINBASE TIMESTAMP NUMBER PREVRANDAO GASLIMIT CHAINID SELFBALANCE BASEFEE BLOBHASH BLOBBASEFEE 0x4B 0x4C 0x4D 0x4E 0x4F POP MLOAD MSTORE MSTORE8 SLOAD SSTORE JUMP JUMPI PC MSIZE GAS PUSH2 0x6263 PUSH5 0x6566676869 PUSH11 0x6B6C6D6E6F707172737475 PUSH23 0x7778797A303132333435363738392B2FA2646970667358 0x22 SLT KECCAK256 SWAP14 PUSH13 0xB442D7D6BB20E982CC71FEE2B1 PUSH20 0x7BF9B70D549CF7680C62FCD843C8F39464736F6C PUSH4 0x4300081C STOP CALLER "},"methodIdentifiers":{"DEFAULT_ADMIN_ROLE()":"a217fddf","MINTER_ROLE()":"d5391393","balanceOf(address,uint256)":"00fdd58e","balanceOfBatch(address[],uint256[])":"4e1273f4","batchMintCertifications(address[],uint256,bytes)":"945edbeb","createCourse(string,string,string,uint256)":"17cb7d7c","exists(uint256)":"4f558e79","getCourse(uint256)":"0b91e28d","getExpiryTimestamp(uint256,address)":"97889056","getMintTimestamp(uint256,address)":"a3ace66b","getRoleAdmin(bytes32)":"248a9ca3","getTotalCourses()":"d4cba21c","grantRole(bytes32,address)":"2f2ff15d","hasRole(bytes32,address)":"91d14854","isApprovedForAll(address,address)":"e985e9c5","isValid(uint256,address)":"27a956f6","isValidBatch(uint256,address[])":"e149011b","mintCertification(address,uint256,bytes)":"9b8ea179","renounceRole(bytes32,address)":"36568abe","revokeRole(bytes32,address)":"d547741f","safeBatchTransferFrom(address,address,uint256[],uint256[],bytes)":"2eb2c2d6","safeTransferFrom(address,address,uint256,uint256,bytes)":"f242432a","setApprovalForAll(address,bool)":"a22cb465","supportsInterface(bytes4)":"01ffc9a7","totalSupply()":"18160ddd","totalSupply(uint256)":"bd85b039","updateCourse(uint256,string,string,uint256)":"91aac065","uri(uint256)":"0e89341c"}}}}}